{
	"contracts/app.sol": {
		"DefiChanges": {
			"abi": [
				{
					"inputs": [],
					"stateMutability": "nonpayable",
					"type": "constructor"
				},
				{
					"anonymous": false,
					"inputs": [
						{
							"indexed": true,
							"internalType": "address",
							"name": "user",
							"type": "address"
						},
						{
							"indexed": false,
							"internalType": "uint256",
							"name": "amount",
							"type": "uint256"
						},
						{
							"indexed": false,
							"internalType": "uint256",
							"name": "timestamp",
							"type": "uint256"
						}
					],
					"name": "CollateralDeposited",
					"type": "event"
				},
				{
					"anonymous": false,
					"inputs": [
						{
							"indexed": true,
							"internalType": "address",
							"name": "user",
							"type": "address"
						},
						{
							"indexed": false,
							"internalType": "uint256",
							"name": "amount",
							"type": "uint256"
						},
						{
							"indexed": false,
							"internalType": "uint256",
							"name": "timestamp",
							"type": "uint256"
						}
					],
					"name": "CollateralWithdrawn",
					"type": "event"
				},
				{
					"anonymous": false,
					"inputs": [
						{
							"indexed": true,
							"internalType": "address",
							"name": "user",
							"type": "address"
						},
						{
							"indexed": false,
							"internalType": "uint256",
							"name": "amount",
							"type": "uint256"
						}
					],
					"name": "LoanWithdraw",
					"type": "event"
				},
				{
					"inputs": [
						{
							"internalType": "address",
							"name": "",
							"type": "address"
						}
					],
					"name": "accounts",
					"outputs": [
						{
							"internalType": "uint256",
							"name": "amount",
							"type": "uint256"
						},
						{
							"internalType": "uint256",
							"name": "amountLoan",
							"type": "uint256"
						},
						{
							"internalType": "uint256",
							"name": "loanAtPrice",
							"type": "uint256"
						},
						{
							"internalType": "uint256",
							"name": "availableAmountLoan",
							"type": "uint256"
						},
						{
							"internalType": "uint256",
							"name": "timestamp",
							"type": "uint256"
						}
					],
					"stateMutability": "view",
					"type": "function"
				},
				{
					"inputs": [],
					"name": "checkHealthFactor",
					"outputs": [
						{
							"internalType": "int256",
							"name": "",
							"type": "int256"
						}
					],
					"stateMutability": "view",
					"type": "function"
				},
				{
					"inputs": [],
					"name": "depositCollateral",
					"outputs": [],
					"stateMutability": "payable",
					"type": "function"
				},
				{
					"inputs": [
						{
							"internalType": "address",
							"name": "user",
							"type": "address"
						}
					],
					"name": "getAvailableAmountLoan",
					"outputs": [
						{
							"internalType": "uint256",
							"name": "amount",
							"type": "uint256"
						}
					],
					"stateMutability": "view",
					"type": "function"
				},
				{
					"inputs": [
						{
							"internalType": "address",
							"name": "user",
							"type": "address"
						}
					],
					"name": "getCollateral",
					"outputs": [
						{
							"internalType": "uint256",
							"name": "amount",
							"type": "uint256"
						},
						{
							"internalType": "uint256",
							"name": "timestamp",
							"type": "uint256"
						}
					],
					"stateMutability": "view",
					"type": "function"
				},
				{
					"inputs": [],
					"name": "getEthPrice",
					"outputs": [
						{
							"internalType": "uint256",
							"name": "",
							"type": "uint256"
						}
					],
					"stateMutability": "view",
					"type": "function"
				},
				{
					"inputs": [
						{
							"internalType": "uint256",
							"name": "withdrawAmount",
							"type": "uint256"
						}
					],
					"name": "withdrawCollateral",
					"outputs": [],
					"stateMutability": "nonpayable",
					"type": "function"
				},
				{
					"inputs": [
						{
							"internalType": "uint256",
							"name": "amount",
							"type": "uint256"
						}
					],
					"name": "withdrawLoan",
					"outputs": [],
					"stateMutability": "nonpayable",
					"type": "function"
				}
			],
			"devdoc": {
				"kind": "dev",
				"methods": {},
				"version": 1
			},
			"evm": {
				"assembly": "    /* \"contracts/app.sol\":177:3782  contract DefiChanges {... */\n  mstore(0x40, 0x80)\n    /* \"contracts/app.sol\":601:762  constructor(){... */\n  callvalue\n  dup1\n  iszero\n  tag_1\n  jumpi\n  0x00\n  dup1\n  revert\ntag_1:\n  pop\n    /* \"contracts/app.sol\":633:643  msg.sender */\n  caller\n    /* \"contracts/app.sol\":625:630  owner */\n  0x00\n  dup1\n    /* \"contracts/app.sol\":625:643  owner = msg.sender */\n  0x0100\n  exp\n  dup2\n  sload\n  dup2\n  0xffffffffffffffffffffffffffffffffffffffff\n  mul\n  not\n  and\n  swap1\n  dup4\n  0xffffffffffffffffffffffffffffffffffffffff\n  and\n  mul\n  or\n  swap1\n  sstore\n  pop\n    /* \"contracts/app.sol\":701:743  0x694AA1769357215DE4FAC081bf1f309aDC325306 */\n  0x694aa1769357215de4fac081bf1f309adc325306\n    /* \"contracts/app.sol\":654:662  dataFeed */\n  0x01\n  0x00\n    /* \"contracts/app.sol\":654:754  dataFeed = AggregatorV3Interface(... */\n  0x0100\n  exp\n  dup2\n  sload\n  dup2\n  0xffffffffffffffffffffffffffffffffffffffff\n  mul\n  not\n  and\n  swap1\n  dup4\n  0xffffffffffffffffffffffffffffffffffffffff\n  and\n  mul\n  or\n  swap1\n  sstore\n  pop\n    /* \"contracts/app.sol\":177:3782  contract DefiChanges {... */\n  dataSize(sub_0)\n  dup1\n  dataOffset(sub_0)\n  0x00\n  codecopy\n  0x00\n  return\nstop\n\nsub_0: assembly {\n        /* \"contracts/app.sol\":177:3782  contract DefiChanges {... */\n      mstore(0x40, 0x80)\n      jumpi(tag_1, lt(calldatasize, 0x04))\n      shr(0xe0, calldataload(0x00))\n      dup1\n      0x6f758140\n      gt\n      tag_10\n      jumpi\n      dup1\n      0x6f758140\n      eq\n      tag_6\n      jumpi\n      dup1\n      0x9b56d6c9\n      eq\n      tag_7\n      jumpi\n      dup1\n      0xae9e5380\n      eq\n      tag_8\n      jumpi\n      dup1\n      0xfb7cbd6c\n      eq\n      tag_9\n      jumpi\n      jump(tag_1)\n    tag_10:\n      dup1\n      0x2a104d8d\n      eq\n      tag_2\n      jumpi\n      dup1\n      0x5e5c06e2\n      eq\n      tag_3\n      jumpi\n      dup1\n      0x6112fe2e\n      eq\n      tag_4\n      jumpi\n      dup1\n      0x67c9b017\n      eq\n      tag_5\n      jumpi\n    tag_1:\n      0x00\n      dup1\n      revert\n        /* \"contracts/app.sol\":2600:3033  function withdrawLoan(uint256 amount) external {... */\n    tag_2:\n      callvalue\n      dup1\n      iszero\n      tag_11\n      jumpi\n      0x00\n      dup1\n      revert\n    tag_11:\n      pop\n      tag_12\n      0x04\n      dup1\n      calldatasize\n      sub\n      dup2\n      add\n      swap1\n      tag_13\n      swap2\n      swap1\n      tag_14\n      jump\t// in\n    tag_13:\n      tag_15\n      jump\t// in\n    tag_12:\n      stop\n        /* \"contracts/app.sol\":770:813  mapping(address => Account) public accounts */\n    tag_3:\n      callvalue\n      dup1\n      iszero\n      tag_16\n      jumpi\n      0x00\n      dup1\n      revert\n    tag_16:\n      pop\n      tag_17\n      0x04\n      dup1\n      calldatasize\n      sub\n      dup2\n      add\n      swap1\n      tag_18\n      swap2\n      swap1\n      tag_19\n      jump\t// in\n    tag_18:\n      tag_20\n      jump\t// in\n    tag_17:\n      mload(0x40)\n      tag_21\n      swap6\n      swap5\n      swap4\n      swap3\n      swap2\n      swap1\n      tag_22\n      jump\t// in\n    tag_21:\n      mload(0x40)\n      dup1\n      swap2\n      sub\n      swap1\n      return\n        /* \"contracts/app.sol\":1503:2179  function withdrawCollateral(uint256 withdrawAmount) external {... */\n    tag_4:\n      callvalue\n      dup1\n      iszero\n      tag_23\n      jumpi\n      0x00\n      dup1\n      revert\n    tag_23:\n      pop\n      tag_24\n      0x04\n      dup1\n      calldatasize\n      sub\n      dup2\n      add\n      swap1\n      tag_25\n      swap2\n      swap1\n      tag_14\n      jump\t// in\n    tag_25:\n      tag_26\n      jump\t// in\n    tag_24:\n      stop\n        /* \"contracts/app.sol\":3041:3383  function getEthPrice() public view returns (uint) {... */\n    tag_5:\n      callvalue\n      dup1\n      iszero\n      tag_27\n      jumpi\n      0x00\n      dup1\n      revert\n    tag_27:\n      pop\n      tag_28\n      tag_29\n      jump\t// in\n    tag_28:\n      mload(0x40)\n      tag_30\n      swap2\n      swap1\n      tag_31\n      jump\t// in\n    tag_30:\n      mload(0x40)\n      dup1\n      swap2\n      sub\n      swap1\n      return\n        /* \"contracts/app.sol\":1063:1495  function depositCollateral() external payable {... */\n    tag_6:\n      tag_32\n      tag_33\n      jump\t// in\n    tag_32:\n      stop\n        /* \"contracts/app.sol\":2187:2394  function getCollateral(address user) external view returns (uint256 amount, uint256 timestamp) {... */\n    tag_7:\n      callvalue\n      dup1\n      iszero\n      tag_34\n      jumpi\n      0x00\n      dup1\n      revert\n    tag_34:\n      pop\n      tag_35\n      0x04\n      dup1\n      calldatasize\n      sub\n      dup2\n      add\n      swap1\n      tag_36\n      swap2\n      swap1\n      tag_19\n      jump\t// in\n    tag_36:\n      tag_37\n      jump\t// in\n    tag_35:\n      mload(0x40)\n      tag_38\n      swap3\n      swap2\n      swap1\n      tag_39\n      jump\t// in\n    tag_38:\n      mload(0x40)\n      dup1\n      swap2\n      sub\n      swap1\n      return\n        /* \"contracts/app.sol\":3391:3775  function checkHealthFactor() public view returns (int) {... */\n    tag_8:\n      callvalue\n      dup1\n      iszero\n      tag_40\n      jumpi\n      0x00\n      dup1\n      revert\n    tag_40:\n      pop\n      tag_41\n      tag_42\n      jump\t// in\n    tag_41:\n      mload(0x40)\n      tag_43\n      swap2\n      swap1\n      tag_44\n      jump\t// in\n    tag_43:\n      mload(0x40)\n      dup1\n      swap2\n      sub\n      swap1\n      return\n        /* \"contracts/app.sol\":2402:2592  function getAvailableAmountLoan(address user) external view returns (uint256 amount){... */\n    tag_9:\n      callvalue\n      dup1\n      iszero\n      tag_45\n      jumpi\n      0x00\n      dup1\n      revert\n    tag_45:\n      pop\n      tag_46\n      0x04\n      dup1\n      calldatasize\n      sub\n      dup2\n      add\n      swap1\n      tag_47\n      swap2\n      swap1\n      tag_19\n      jump\t// in\n    tag_47:\n      tag_48\n      jump\t// in\n    tag_46:\n      mload(0x40)\n      tag_49\n      swap2\n      swap1\n      tag_31\n      jump\t// in\n    tag_49:\n      mload(0x40)\n      dup1\n      swap2\n      sub\n      swap1\n      return\n        /* \"contracts/app.sol\":2600:3033  function withdrawLoan(uint256 amount) external {... */\n    tag_15:\n        /* \"contracts/app.sol\":2658:2681  Account storage account */\n      0x00\n        /* \"contracts/app.sol\":2684:2692  accounts */\n      0x02\n        /* \"contracts/app.sol\":2684:2704  accounts[msg.sender] */\n      0x00\n        /* \"contracts/app.sol\":2693:2703  msg.sender */\n      caller\n        /* \"contracts/app.sol\":2684:2704  accounts[msg.sender] */\n      0xffffffffffffffffffffffffffffffffffffffff\n      and\n      0xffffffffffffffffffffffffffffffffffffffff\n      and\n      dup2\n      mstore\n      0x20\n      add\n      swap1\n      dup2\n      mstore\n      0x20\n      add\n      0x00\n      keccak256\n        /* \"contracts/app.sol\":2658:2704  Account storage account = accounts[msg.sender] */\n      swap1\n      pop\n        /* \"contracts/app.sol\":2753:2754  0 */\n      0x00\n        /* \"contracts/app.sol\":2723:2730  account */\n      dup2\n        /* \"contracts/app.sol\":2723:2750  account.availableAmountLoan */\n      0x03\n      add\n      sload\n        /* \"contracts/app.sol\":2723:2754  account.availableAmountLoan > 0 */\n      gt\n        /* \"contracts/app.sol\":2715:2755  require(account.availableAmountLoan > 0) */\n      tag_51\n      jumpi\n      0x00\n      dup1\n      revert\n    tag_51:\n        /* \"contracts/app.sol\":2786:2792  amount */\n      dup2\n        /* \"contracts/app.sol\":2768:2775  account */\n      dup2\n        /* \"contracts/app.sol\":2768:2782  account.amount */\n      0x00\n      add\n      0x00\n        /* \"contracts/app.sol\":2768:2792  account.amount -= amount */\n      dup3\n      dup3\n      sload\n      tag_52\n      swap2\n      swap1\n      tag_53\n      jump\t// in\n    tag_52:\n      swap3\n      pop\n      pop\n      dup2\n      swap1\n      sstore\n      pop\n        /* \"contracts/app.sol\":2825:2831  amount */\n      dup2\n        /* \"contracts/app.sol\":2803:2810  account */\n      dup2\n        /* \"contracts/app.sol\":2803:2821  account.amountLoan */\n      0x01\n      add\n      0x00\n        /* \"contracts/app.sol\":2803:2831  account.amountLoan += amount */\n      dup3\n      dup3\n      sload\n      tag_54\n      swap2\n      swap1\n      tag_55\n      jump\t// in\n    tag_54:\n      swap3\n      pop\n      pop\n      dup2\n      swap1\n      sstore\n      pop\n        /* \"contracts/app.sol\":2873:2879  amount */\n      dup2\n        /* \"contracts/app.sol\":2842:2849  account */\n      dup2\n        /* \"contracts/app.sol\":2842:2869  account.availableAmountLoan */\n      0x03\n      add\n      0x00\n        /* \"contracts/app.sol\":2842:2879  account.availableAmountLoan -= amount */\n      dup3\n      dup3\n      sload\n      tag_56\n      swap2\n      swap1\n      tag_53\n      jump\t// in\n    tag_56:\n      swap3\n      pop\n      pop\n      dup2\n      swap1\n      sstore\n      pop\n        /* \"contracts/app.sol\":2913:2926  getEthPrice() */\n      tag_57\n        /* \"contracts/app.sol\":2913:2924  getEthPrice */\n      tag_29\n        /* \"contracts/app.sol\":2913:2926  getEthPrice() */\n      jump\t// in\n    tag_57:\n        /* \"contracts/app.sol\":2890:2897  account */\n      dup2\n        /* \"contracts/app.sol\":2890:2909  account.loanAtPrice */\n      0x02\n      add\n      0x00\n        /* \"contracts/app.sol\":2890:2926  account.loanAtPrice += getEthPrice() */\n      dup3\n      dup3\n      sload\n      tag_58\n      swap2\n      swap1\n      tag_55\n      jump\t// in\n    tag_58:\n      swap3\n      pop\n      pop\n      dup2\n      swap1\n      sstore\n      pop\n        /* \"contracts/app.sol\":2947:2957  msg.sender */\n      caller\n        /* \"contracts/app.sol\":2939:2967  payable(msg.sender).transfer */\n      0xffffffffffffffffffffffffffffffffffffffff\n      and\n        /* \"contracts/app.sol\":2939:2975  payable(msg.sender).transfer(amount) */\n      0x08fc\n        /* \"contracts/app.sol\":2968:2974  amount */\n      dup4\n        /* \"contracts/app.sol\":2939:2975  payable(msg.sender).transfer(amount) */\n      swap1\n      dup2\n      iszero\n      mul\n      swap1\n      mload(0x40)\n      0x00\n      mload(0x40)\n      dup1\n      dup4\n      sub\n      dup2\n      dup6\n      dup9\n      dup9\n      call\n      swap4\n      pop\n      pop\n      pop\n      pop\n      iszero\n      dup1\n      iszero\n      tag_60\n      jumpi\n      returndatasize\n      0x00\n      dup1\n      returndatacopy\n      revert(0x00, returndatasize)\n    tag_60:\n      pop\n        /* \"contracts/app.sol\":3006:3016  msg.sender */\n      caller\n        /* \"contracts/app.sol\":2993:3025  LoanWithdraw(msg.sender, amount) */\n      0xffffffffffffffffffffffffffffffffffffffff\n      and\n      0x9fc64c8ef100e2584ce71f7bb2f62474d1a63a9f3fc4d216bacea670c289614a\n        /* \"contracts/app.sol\":3018:3024  amount */\n      dup4\n        /* \"contracts/app.sol\":2993:3025  LoanWithdraw(msg.sender, amount) */\n      mload(0x40)\n      tag_61\n      swap2\n      swap1\n      tag_31\n      jump\t// in\n    tag_61:\n      mload(0x40)\n      dup1\n      swap2\n      sub\n      swap1\n      log2\n        /* \"contracts/app.sol\":2647:3033  {... */\n      pop\n        /* \"contracts/app.sol\":2600:3033  function withdrawLoan(uint256 amount) external {... */\n      pop\n      jump\t// out\n        /* \"contracts/app.sol\":770:813  mapping(address => Account) public accounts */\n    tag_20:\n      mstore(0x20, 0x02)\n      dup1\n      0x00\n      mstore\n      keccak256(0x00, 0x40)\n      0x00\n      swap2\n      pop\n      swap1\n      pop\n      dup1\n      0x00\n      add\n      sload\n      swap1\n      dup1\n      0x01\n      add\n      sload\n      swap1\n      dup1\n      0x02\n      add\n      sload\n      swap1\n      dup1\n      0x03\n      add\n      sload\n      swap1\n      dup1\n      0x04\n      add\n      sload\n      swap1\n      pop\n      dup6\n      jump\t// out\n        /* \"contracts/app.sol\":1503:2179  function withdrawCollateral(uint256 withdrawAmount) external {... */\n    tag_26:\n        /* \"contracts/app.sol\":1575:1598  Account storage account */\n      0x00\n        /* \"contracts/app.sol\":1601:1609  accounts */\n      0x02\n        /* \"contracts/app.sol\":1601:1621  accounts[msg.sender] */\n      0x00\n        /* \"contracts/app.sol\":1610:1620  msg.sender */\n      caller\n        /* \"contracts/app.sol\":1601:1621  accounts[msg.sender] */\n      0xffffffffffffffffffffffffffffffffffffffff\n      and\n      0xffffffffffffffffffffffffffffffffffffffff\n      and\n      dup2\n      mstore\n      0x20\n      add\n      swap1\n      dup2\n      mstore\n      0x20\n      add\n      0x00\n      keccak256\n        /* \"contracts/app.sol\":1575:1621  Account storage account = accounts[msg.sender] */\n      swap1\n      pop\n        /* \"contracts/app.sol\":1632:1646  uint256 amount */\n      0x00\n        /* \"contracts/app.sol\":1649:1656  account */\n      dup2\n        /* \"contracts/app.sol\":1649:1663  account.amount */\n      0x00\n      add\n      sload\n        /* \"contracts/app.sol\":1632:1663  uint256 amount = account.amount */\n      swap1\n      pop\n        /* \"contracts/app.sol\":1691:1692  0 */\n      0x00\n        /* \"contracts/app.sol\":1682:1688  amount */\n      dup2\n        /* \"contracts/app.sol\":1682:1692  amount > 0 */\n      gt\n        /* \"contracts/app.sol\":1674:1722  require(amount > 0, \"No collateral to withdraw\") */\n      tag_63\n      jumpi\n      mload(0x40)\n      0x08c379a000000000000000000000000000000000000000000000000000000000\n      dup2\n      mstore\n      0x04\n      add\n      tag_64\n      swap1\n      tag_65\n      jump\t// in\n    tag_64:\n      mload(0x40)\n      dup1\n      swap2\n      sub\n      swap1\n      revert\n    tag_63:\n        /* \"contracts/app.sol\":1758:1759  0 */\n      0x00\n        /* \"contracts/app.sol\":1741:1755  withdrawAmount */\n      dup4\n        /* \"contracts/app.sol\":1741:1759  withdrawAmount > 0 */\n      gt\n        /* \"contracts/app.sol\":1733:1807  require(withdrawAmount > 0, \"Withdrawal amount must be greater than zero\") */\n      tag_66\n      jumpi\n      mload(0x40)\n      0x08c379a000000000000000000000000000000000000000000000000000000000\n      dup2\n      mstore\n      0x04\n      add\n      tag_67\n      swap1\n      tag_68\n      jump\t// in\n    tag_67:\n      mload(0x40)\n      dup1\n      swap2\n      sub\n      swap1\n      revert\n    tag_66:\n        /* \"contracts/app.sol\":1844:1850  amount */\n      dup1\n        /* \"contracts/app.sol\":1826:1840  withdrawAmount */\n      dup4\n        /* \"contracts/app.sol\":1826:1850  withdrawAmount <= amount */\n      gt\n      iszero\n        /* \"contracts/app.sol\":1818:1902  require(withdrawAmount <= amount, \"Insufficient collateral to withdraw this amount\") */\n      tag_69\n      jumpi\n      mload(0x40)\n      0x08c379a000000000000000000000000000000000000000000000000000000000\n      dup2\n      mstore\n      0x04\n      add\n      tag_70\n      swap1\n      tag_71\n      jump\t// in\n    tag_70:\n      mload(0x40)\n      dup1\n      swap2\n      sub\n      swap1\n      revert\n    tag_69:\n        /* \"contracts/app.sol\":1933:1947  withdrawAmount */\n      dup3\n        /* \"contracts/app.sol\":1915:1922  account */\n      dup3\n        /* \"contracts/app.sol\":1915:1929  account.amount */\n      0x00\n      add\n      0x00\n        /* \"contracts/app.sol\":1915:1947  account.amount -= withdrawAmount */\n      dup3\n      dup3\n      sload\n      tag_72\n      swap2\n      swap1\n      tag_53\n      jump\t// in\n    tag_72:\n      swap3\n      pop\n      pop\n      dup2\n      swap1\n      sstore\n      pop\n        /* \"contracts/app.sol\":1982:1983  0 */\n      0x00\n        /* \"contracts/app.sol\":1964:1971  account */\n      dup3\n        /* \"contracts/app.sol\":1964:1978  account.amount */\n      0x00\n      add\n      sload\n        /* \"contracts/app.sol\":1964:1983  account.amount == 0 */\n      sub\n        /* \"contracts/app.sol\":1960:2033  if (account.amount == 0) {... */\n      tag_73\n      jumpi\n        /* \"contracts/app.sol\":2020:2021  0 */\n      0x00\n        /* \"contracts/app.sol\":2000:2007  account */\n      dup3\n        /* \"contracts/app.sol\":2000:2017  account.timestamp */\n      0x04\n      add\n        /* \"contracts/app.sol\":2000:2021  account.timestamp = 0 */\n      dup2\n      swap1\n      sstore\n      pop\n        /* \"contracts/app.sol\":1960:2033  if (account.amount == 0) {... */\n    tag_73:\n        /* \"contracts/app.sol\":2053:2063  msg.sender */\n      caller\n        /* \"contracts/app.sol\":2045:2073  payable(msg.sender).transfer */\n      0xffffffffffffffffffffffffffffffffffffffff\n      and\n        /* \"contracts/app.sol\":2045:2089  payable(msg.sender).transfer(withdrawAmount) */\n      0x08fc\n        /* \"contracts/app.sol\":2074:2088  withdrawAmount */\n      dup5\n        /* \"contracts/app.sol\":2045:2089  payable(msg.sender).transfer(withdrawAmount) */\n      swap1\n      dup2\n      iszero\n      mul\n      swap1\n      mload(0x40)\n      0x00\n      mload(0x40)\n      dup1\n      dup4\n      sub\n      dup2\n      dup6\n      dup9\n      dup9\n      call\n      swap4\n      pop\n      pop\n      pop\n      pop\n      iszero\n      dup1\n      iszero\n      tag_75\n      jumpi\n      returndatasize\n      0x00\n      dup1\n      returndatacopy\n      revert(0x00, returndatasize)\n    tag_75:\n      pop\n        /* \"contracts/app.sol\":2127:2137  msg.sender */\n      caller\n        /* \"contracts/app.sol\":2107:2171  CollateralWithdrawn(msg.sender, withdrawAmount, block.timestamp) */\n      0xffffffffffffffffffffffffffffffffffffffff\n      and\n      0xdaed309a628faec6cab72194019e2a1a34e890ca9bf9be99788992dd54692819\n        /* \"contracts/app.sol\":2139:2153  withdrawAmount */\n      dup5\n        /* \"contracts/app.sol\":2155:2170  block.timestamp */\n      timestamp\n        /* \"contracts/app.sol\":2107:2171  CollateralWithdrawn(msg.sender, withdrawAmount, block.timestamp) */\n      mload(0x40)\n      tag_76\n      swap3\n      swap2\n      swap1\n      tag_39\n      jump\t// in\n    tag_76:\n      mload(0x40)\n      dup1\n      swap2\n      sub\n      swap1\n      log2\n        /* \"contracts/app.sol\":1564:2179  {... */\n      pop\n      pop\n        /* \"contracts/app.sol\":1503:2179  function withdrawCollateral(uint256 withdrawAmount) external {... */\n      pop\n      jump\t// out\n        /* \"contracts/app.sol\":3041:3383  function getEthPrice() public view returns (uint) {... */\n    tag_29:\n        /* \"contracts/app.sol\":3085:3089  uint */\n      0x00\n        /* \"contracts/app.sol\":3152:3162  int answer */\n      dup1\n        /* \"contracts/app.sol\":3283:3291  dataFeed */\n      0x01\n      0x00\n      swap1\n      sload\n      swap1\n      0x0100\n      exp\n      swap1\n      div\n      0xffffffffffffffffffffffffffffffffffffffff\n      and\n        /* \"contracts/app.sol\":3283:3307  dataFeed.latestRoundData */\n      0xffffffffffffffffffffffffffffffffffffffff\n      and\n      0xfeaf968c\n        /* \"contracts/app.sol\":3283:3309  dataFeed.latestRoundData() */\n      mload(0x40)\n      dup2\n      0xffffffff\n      and\n      0xe0\n      shl\n      dup2\n      mstore\n      0x04\n      add\n      0xa0\n      mload(0x40)\n      dup1\n      dup4\n      sub\n      dup2\n      dup7\n      gas\n      staticcall\n      iszero\n      dup1\n      iszero\n      tag_79\n      jumpi\n      returndatasize\n      0x00\n      dup1\n      returndatacopy\n      revert(0x00, returndatasize)\n    tag_79:\n      pop\n      pop\n      pop\n      pop\n      mload(0x40)\n      returndatasize\n      not(0x1f)\n      0x1f\n      dup3\n      add\n      and\n      dup3\n      add\n      dup1\n      0x40\n      mstore\n      pop\n      dup2\n      add\n      swap1\n      tag_80\n      swap2\n      swap1\n      tag_81\n      jump\t// in\n    tag_80:\n        /* \"contracts/app.sol\":3102:3309  (... */\n      pop\n      pop\n      pop\n      swap2\n      pop\n      pop\n        /* \"contracts/app.sol\":3320:3330  int amount */\n      0x00\n        /* \"contracts/app.sol\":3342:3345  1e8 */\n      0x05f5e100\n        /* \"contracts/app.sol\":3333:3339  answer */\n      dup3\n        /* \"contracts/app.sol\":3333:3345  answer / 1e8 */\n      tag_82\n      swap2\n      swap1\n      tag_83\n      jump\t// in\n    tag_82:\n        /* \"contracts/app.sol\":3320:3345  int amount = answer / 1e8 */\n      swap1\n      pop\n        /* \"contracts/app.sol\":3368:3374  amount */\n      dup1\n        /* \"contracts/app.sol\":3356:3375  return uint(amount) */\n      swap3\n      pop\n      pop\n      pop\n        /* \"contracts/app.sol\":3041:3383  function getEthPrice() public view returns (uint) {... */\n      swap1\n      jump\t// out\n        /* \"contracts/app.sol\":1063:1495  function depositCollateral() external payable {... */\n    tag_33:\n        /* \"contracts/app.sol\":1140:1141  0 */\n      0x00\n        /* \"contracts/app.sol\":1128:1137  msg.value */\n      callvalue\n        /* \"contracts/app.sol\":1128:1141  msg.value > 0 */\n      gt\n        /* \"contracts/app.sol\":1120:1186  require(msg.value > 0, \"Deposit amount must be greater than zero\") */\n      tag_85\n      jumpi\n      mload(0x40)\n      0x08c379a000000000000000000000000000000000000000000000000000000000\n      dup2\n      mstore\n      0x04\n      add\n      tag_86\n      swap1\n      tag_87\n      jump\t// in\n    tag_86:\n      mload(0x40)\n      dup1\n      swap2\n      sub\n      swap1\n      revert\n    tag_85:\n        /* \"contracts/app.sol\":1199:1222  Account storage account */\n      0x00\n        /* \"contracts/app.sol\":1225:1233  accounts */\n      0x02\n        /* \"contracts/app.sol\":1225:1245  accounts[msg.sender] */\n      0x00\n        /* \"contracts/app.sol\":1234:1244  msg.sender */\n      caller\n        /* \"contracts/app.sol\":1225:1245  accounts[msg.sender] */\n      0xffffffffffffffffffffffffffffffffffffffff\n      and\n      0xffffffffffffffffffffffffffffffffffffffff\n      and\n      dup2\n      mstore\n      0x20\n      add\n      swap1\n      dup2\n      mstore\n      0x20\n      add\n      0x00\n      keccak256\n        /* \"contracts/app.sol\":1199:1245  Account storage account = accounts[msg.sender] */\n      swap1\n      pop\n        /* \"contracts/app.sol\":1274:1283  msg.value */\n      callvalue\n        /* \"contracts/app.sol\":1256:1263  account */\n      dup2\n        /* \"contracts/app.sol\":1256:1270  account.amount */\n      0x00\n      add\n      0x00\n        /* \"contracts/app.sol\":1256:1283  account.amount += msg.value */\n      dup3\n      dup3\n      sload\n      tag_88\n      swap2\n      swap1\n      tag_55\n      jump\t// in\n    tag_88:\n      swap3\n      pop\n      pop\n      dup2\n      swap1\n      sstore\n      pop\n        /* \"contracts/app.sol\":1360:1364  1e18 */\n      0x0de0b6b3a7640000\n        /* \"contracts/app.sol\":360:364  8e17 */\n      0x0b1a2bc2ec500000\n        /* \"contracts/app.sol\":1326:1335  msg.value */\n      callvalue\n        /* \"contracts/app.sol\":1326:1358  msg.value * liquidationThreshold */\n      tag_89\n      swap2\n      swap1\n      tag_90\n      jump\t// in\n    tag_89:\n        /* \"contracts/app.sol\":1325:1364  (msg.value * liquidationThreshold)/1e18 */\n      tag_91\n      swap2\n      swap1\n      tag_92\n      jump\t// in\n    tag_91:\n        /* \"contracts/app.sol\":1294:1301  account */\n      dup2\n        /* \"contracts/app.sol\":1294:1321  account.availableAmountLoan */\n      0x03\n      add\n      0x00\n        /* \"contracts/app.sol\":1294:1364  account.availableAmountLoan += (msg.value * liquidationThreshold)/1e18 */\n      dup3\n      dup3\n      sload\n      tag_93\n      swap2\n      swap1\n      tag_55\n      jump\t// in\n    tag_93:\n      swap3\n      pop\n      pop\n      dup2\n      swap1\n      sstore\n      pop\n        /* \"contracts/app.sol\":1395:1410  block.timestamp */\n      timestamp\n        /* \"contracts/app.sol\":1375:1382  account */\n      dup2\n        /* \"contracts/app.sol\":1375:1392  account.timestamp */\n      0x04\n      add\n        /* \"contracts/app.sol\":1375:1410  account.timestamp = block.timestamp */\n      dup2\n      swap1\n      sstore\n      pop\n        /* \"contracts/app.sol\":1448:1458  msg.sender */\n      caller\n        /* \"contracts/app.sol\":1428:1487  CollateralDeposited(msg.sender, msg.value, block.timestamp) */\n      0xffffffffffffffffffffffffffffffffffffffff\n      and\n      0xf4d587c98d234ca4d147061e6b5167e7f41ee17f11562a9f0b49570abece859e\n        /* \"contracts/app.sol\":1460:1469  msg.value */\n      callvalue\n        /* \"contracts/app.sol\":1471:1486  block.timestamp */\n      timestamp\n        /* \"contracts/app.sol\":1428:1487  CollateralDeposited(msg.sender, msg.value, block.timestamp) */\n      mload(0x40)\n      tag_94\n      swap3\n      swap2\n      swap1\n      tag_39\n      jump\t// in\n    tag_94:\n      mload(0x40)\n      dup1\n      swap2\n      sub\n      swap1\n      log2\n        /* \"contracts/app.sol\":1109:1495  {... */\n      pop\n        /* \"contracts/app.sol\":1063:1495  function depositCollateral() external payable {... */\n      jump\t// out\n        /* \"contracts/app.sol\":2187:2394  function getCollateral(address user) external view returns (uint256 amount, uint256 timestamp) {... */\n    tag_37:\n        /* \"contracts/app.sol\":2247:2261  uint256 amount */\n      0x00\n        /* \"contracts/app.sol\":2263:2280  uint256 timestamp */\n      dup1\n        /* \"contracts/app.sol\":2293:2316  Account storage account */\n      0x00\n        /* \"contracts/app.sol\":2319:2327  accounts */\n      0x02\n        /* \"contracts/app.sol\":2319:2333  accounts[user] */\n      0x00\n        /* \"contracts/app.sol\":2328:2332  user */\n      dup6\n        /* \"contracts/app.sol\":2319:2333  accounts[user] */\n      0xffffffffffffffffffffffffffffffffffffffff\n      and\n      0xffffffffffffffffffffffffffffffffffffffff\n      and\n      dup2\n      mstore\n      0x20\n      add\n      swap1\n      dup2\n      mstore\n      0x20\n      add\n      0x00\n      keccak256\n        /* \"contracts/app.sol\":2293:2333  Account storage account = accounts[user] */\n      swap1\n      pop\n        /* \"contracts/app.sol\":2352:2359  account */\n      dup1\n        /* \"contracts/app.sol\":2352:2366  account.amount */\n      0x00\n      add\n      sload\n        /* \"contracts/app.sol\":2368:2375  account */\n      dup2\n        /* \"contracts/app.sol\":2368:2385  account.timestamp */\n      0x04\n      add\n      sload\n        /* \"contracts/app.sol\":2344:2386  return (account.amount, account.timestamp) */\n      swap3\n      pop\n      swap3\n      pop\n      pop\n        /* \"contracts/app.sol\":2187:2394  function getCollateral(address user) external view returns (uint256 amount, uint256 timestamp) {... */\n      swap2\n      pop\n      swap2\n      jump\t// out\n        /* \"contracts/app.sol\":3391:3775  function checkHealthFactor() public view returns (int) {... */\n    tag_42:\n        /* \"contracts/app.sol\":3441:3444  int */\n      0x00\n        /* \"contracts/app.sol\":3457:3480  Account storage account */\n      dup1\n        /* \"contracts/app.sol\":3483:3491  accounts */\n      0x02\n        /* \"contracts/app.sol\":3483:3503  accounts[msg.sender] */\n      0x00\n        /* \"contracts/app.sol\":3492:3502  msg.sender */\n      caller\n        /* \"contracts/app.sol\":3483:3503  accounts[msg.sender] */\n      0xffffffffffffffffffffffffffffffffffffffff\n      and\n      0xffffffffffffffffffffffffffffffffffffffff\n      and\n      dup2\n      mstore\n      0x20\n      add\n      swap1\n      dup2\n      mstore\n      0x20\n      add\n      0x00\n      keccak256\n        /* \"contracts/app.sol\":3457:3503  Account storage account = accounts[msg.sender] */\n      swap1\n      pop\n        /* \"contracts/app.sol\":3514:3537  uint256 totalCollateral */\n      0x00\n        /* \"contracts/app.sol\":3557:3570  getEthPrice() */\n      tag_97\n        /* \"contracts/app.sol\":3557:3568  getEthPrice */\n      tag_29\n        /* \"contracts/app.sol\":3557:3570  getEthPrice() */\n      jump\t// in\n    tag_97:\n        /* \"contracts/app.sol\":3540:3547  account */\n      dup3\n        /* \"contracts/app.sol\":3540:3554  account.amount */\n      0x00\n      add\n      sload\n        /* \"contracts/app.sol\":3540:3570  account.amount * getEthPrice() */\n      tag_98\n      swap2\n      swap1\n      tag_90\n      jump\t// in\n    tag_98:\n        /* \"contracts/app.sol\":3514:3570  uint256 totalCollateral = account.amount * getEthPrice() */\n      swap1\n      pop\n        /* \"contracts/app.sol\":3581:3600  int256 healthFactor */\n      0x00\n        /* \"contracts/app.sol\":3648:3655  account */\n      dup3\n        /* \"contracts/app.sol\":3648:3666  account.amountLoan */\n      0x01\n      add\n      sload\n        /* \"contracts/app.sol\":360:364  8e17 */\n      0x0b1a2bc2ec500000\n        /* \"contracts/app.sol\":3608:3623  totalCollateral */\n      dup4\n        /* \"contracts/app.sol\":3608:3646  totalCollateral * liquidationThreshold */\n      tag_99\n      swap2\n      swap1\n      tag_90\n      jump\t// in\n    tag_99:\n        /* \"contracts/app.sol\":3607:3666  (totalCollateral * liquidationThreshold)/account.amountLoan */\n      tag_100\n      swap2\n      swap1\n      tag_92\n      jump\t// in\n    tag_100:\n        /* \"contracts/app.sol\":3581:3667  int256 healthFactor = int((totalCollateral * liquidationThreshold)/account.amountLoan) */\n      swap1\n      pop\n        /* \"contracts/app.sol\":3688:3709  int healthFactorFixed */\n      0x00\n        /* \"contracts/app.sol\":3727:3730  1e8 */\n      0x05f5e100\n        /* \"contracts/app.sol\":3712:3724  healthFactor */\n      dup3\n        /* \"contracts/app.sol\":3712:3730  healthFactor / 1e8 */\n      tag_101\n      swap2\n      swap1\n      tag_83\n      jump\t// in\n    tag_101:\n        /* \"contracts/app.sol\":3688:3730  int healthFactorFixed = healthFactor / 1e8 */\n      swap1\n      pop\n        /* \"contracts/app.sol\":3748:3765  healthFactorFixed */\n      dup1\n        /* \"contracts/app.sol\":3741:3765  return healthFactorFixed */\n      swap5\n      pop\n      pop\n      pop\n      pop\n      pop\n        /* \"contracts/app.sol\":3391:3775  function checkHealthFactor() public view returns (int) {... */\n      swap1\n      jump\t// out\n        /* \"contracts/app.sol\":2402:2592  function getAvailableAmountLoan(address user) external view returns (uint256 amount){... */\n    tag_48:\n        /* \"contracts/app.sol\":2471:2485  uint256 amount */\n      0x00\n        /* \"contracts/app.sol\":2497:2520  Account storage account */\n      dup1\n        /* \"contracts/app.sol\":2523:2531  accounts */\n      0x02\n        /* \"contracts/app.sol\":2523:2537  accounts[user] */\n      0x00\n        /* \"contracts/app.sol\":2532:2536  user */\n      dup5\n        /* \"contracts/app.sol\":2523:2537  accounts[user] */\n      0xffffffffffffffffffffffffffffffffffffffff\n      and\n      0xffffffffffffffffffffffffffffffffffffffff\n      and\n      dup2\n      mstore\n      0x20\n      add\n      swap1\n      dup2\n      mstore\n      0x20\n      add\n      0x00\n      keccak256\n        /* \"contracts/app.sol\":2497:2537  Account storage account = accounts[user] */\n      swap1\n      pop\n        /* \"contracts/app.sol\":2556:2563  account */\n      dup1\n        /* \"contracts/app.sol\":2556:2583  account.availableAmountLoan */\n      0x03\n      add\n      sload\n        /* \"contracts/app.sol\":2548:2584  return (account.availableAmountLoan) */\n      swap2\n      pop\n      pop\n        /* \"contracts/app.sol\":2402:2592  function getAvailableAmountLoan(address user) external view returns (uint256 amount){... */\n      swap2\n      swap1\n      pop\n      jump\t// out\n        /* \"#utility.yul\":88:205   */\n    tag_104:\n        /* \"#utility.yul\":197:198   */\n      0x00\n        /* \"#utility.yul\":194:195   */\n      dup1\n        /* \"#utility.yul\":187:199   */\n      revert\n        /* \"#utility.yul\":334:411   */\n    tag_106:\n        /* \"#utility.yul\":371:378   */\n      0x00\n        /* \"#utility.yul\":400:405   */\n      dup2\n        /* \"#utility.yul\":389:405   */\n      swap1\n      pop\n        /* \"#utility.yul\":334:411   */\n      swap2\n      swap1\n      pop\n      jump\t// out\n        /* \"#utility.yul\":417:539   */\n    tag_107:\n        /* \"#utility.yul\":490:514   */\n      tag_139\n        /* \"#utility.yul\":508:513   */\n      dup2\n        /* \"#utility.yul\":490:514   */\n      tag_106\n      jump\t// in\n    tag_139:\n        /* \"#utility.yul\":483:488   */\n      dup2\n        /* \"#utility.yul\":480:515   */\n      eq\n        /* \"#utility.yul\":470:533   */\n      tag_140\n      jumpi\n        /* \"#utility.yul\":529:530   */\n      0x00\n        /* \"#utility.yul\":526:527   */\n      dup1\n        /* \"#utility.yul\":519:531   */\n      revert\n        /* \"#utility.yul\":470:533   */\n    tag_140:\n        /* \"#utility.yul\":417:539   */\n      pop\n      jump\t// out\n        /* \"#utility.yul\":545:684   */\n    tag_108:\n        /* \"#utility.yul\":591:596   */\n      0x00\n        /* \"#utility.yul\":629:635   */\n      dup2\n        /* \"#utility.yul\":616:636   */\n      calldataload\n        /* \"#utility.yul\":607:636   */\n      swap1\n      pop\n        /* \"#utility.yul\":645:678   */\n      tag_142\n        /* \"#utility.yul\":672:677   */\n      dup2\n        /* \"#utility.yul\":645:678   */\n      tag_107\n      jump\t// in\n    tag_142:\n        /* \"#utility.yul\":545:684   */\n      swap3\n      swap2\n      pop\n      pop\n      jump\t// out\n        /* \"#utility.yul\":690:1019   */\n    tag_14:\n        /* \"#utility.yul\":749:755   */\n      0x00\n        /* \"#utility.yul\":798:800   */\n      0x20\n        /* \"#utility.yul\":786:795   */\n      dup3\n        /* \"#utility.yul\":777:784   */\n      dup5\n        /* \"#utility.yul\":773:796   */\n      sub\n        /* \"#utility.yul\":769:801   */\n      slt\n        /* \"#utility.yul\":766:885   */\n      iszero\n      tag_144\n      jumpi\n        /* \"#utility.yul\":804:883   */\n      tag_145\n      tag_104\n      jump\t// in\n    tag_145:\n        /* \"#utility.yul\":766:885   */\n    tag_144:\n        /* \"#utility.yul\":924:925   */\n      0x00\n        /* \"#utility.yul\":949:1002   */\n      tag_146\n        /* \"#utility.yul\":994:1001   */\n      dup5\n        /* \"#utility.yul\":985:991   */\n      dup3\n        /* \"#utility.yul\":974:983   */\n      dup6\n        /* \"#utility.yul\":970:992   */\n      add\n        /* \"#utility.yul\":949:1002   */\n      tag_108\n      jump\t// in\n    tag_146:\n        /* \"#utility.yul\":939:1002   */\n      swap2\n      pop\n        /* \"#utility.yul\":895:1012   */\n      pop\n        /* \"#utility.yul\":690:1019   */\n      swap3\n      swap2\n      pop\n      pop\n      jump\t// out\n        /* \"#utility.yul\":1025:1151   */\n    tag_109:\n        /* \"#utility.yul\":1062:1069   */\n      0x00\n        /* \"#utility.yul\":1102:1144   */\n      0xffffffffffffffffffffffffffffffffffffffff\n        /* \"#utility.yul\":1095:1100   */\n      dup3\n        /* \"#utility.yul\":1091:1145   */\n      and\n        /* \"#utility.yul\":1080:1145   */\n      swap1\n      pop\n        /* \"#utility.yul\":1025:1151   */\n      swap2\n      swap1\n      pop\n      jump\t// out\n        /* \"#utility.yul\":1157:1253   */\n    tag_110:\n        /* \"#utility.yul\":1194:1201   */\n      0x00\n        /* \"#utility.yul\":1223:1247   */\n      tag_149\n        /* \"#utility.yul\":1241:1246   */\n      dup3\n        /* \"#utility.yul\":1223:1247   */\n      tag_109\n      jump\t// in\n    tag_149:\n        /* \"#utility.yul\":1212:1247   */\n      swap1\n      pop\n        /* \"#utility.yul\":1157:1253   */\n      swap2\n      swap1\n      pop\n      jump\t// out\n        /* \"#utility.yul\":1259:1381   */\n    tag_111:\n        /* \"#utility.yul\":1332:1356   */\n      tag_151\n        /* \"#utility.yul\":1350:1355   */\n      dup2\n        /* \"#utility.yul\":1332:1356   */\n      tag_110\n      jump\t// in\n    tag_151:\n        /* \"#utility.yul\":1325:1330   */\n      dup2\n        /* \"#utility.yul\":1322:1357   */\n      eq\n        /* \"#utility.yul\":1312:1375   */\n      tag_152\n      jumpi\n        /* \"#utility.yul\":1371:1372   */\n      0x00\n        /* \"#utility.yul\":1368:1369   */\n      dup1\n        /* \"#utility.yul\":1361:1373   */\n      revert\n        /* \"#utility.yul\":1312:1375   */\n    tag_152:\n        /* \"#utility.yul\":1259:1381   */\n      pop\n      jump\t// out\n        /* \"#utility.yul\":1387:1526   */\n    tag_112:\n        /* \"#utility.yul\":1433:1438   */\n      0x00\n        /* \"#utility.yul\":1471:1477   */\n      dup2\n        /* \"#utility.yul\":1458:1478   */\n      calldataload\n        /* \"#utility.yul\":1449:1478   */\n      swap1\n      pop\n        /* \"#utility.yul\":1487:1520   */\n      tag_154\n        /* \"#utility.yul\":1514:1519   */\n      dup2\n        /* \"#utility.yul\":1487:1520   */\n      tag_111\n      jump\t// in\n    tag_154:\n        /* \"#utility.yul\":1387:1526   */\n      swap3\n      swap2\n      pop\n      pop\n      jump\t// out\n        /* \"#utility.yul\":1532:1861   */\n    tag_19:\n        /* \"#utility.yul\":1591:1597   */\n      0x00\n        /* \"#utility.yul\":1640:1642   */\n      0x20\n        /* \"#utility.yul\":1628:1637   */\n      dup3\n        /* \"#utility.yul\":1619:1626   */\n      dup5\n        /* \"#utility.yul\":1615:1638   */\n      sub\n        /* \"#utility.yul\":1611:1643   */\n      slt\n        /* \"#utility.yul\":1608:1727   */\n      iszero\n      tag_156\n      jumpi\n        /* \"#utility.yul\":1646:1725   */\n      tag_157\n      tag_104\n      jump\t// in\n    tag_157:\n        /* \"#utility.yul\":1608:1727   */\n    tag_156:\n        /* \"#utility.yul\":1766:1767   */\n      0x00\n        /* \"#utility.yul\":1791:1844   */\n      tag_158\n        /* \"#utility.yul\":1836:1843   */\n      dup5\n        /* \"#utility.yul\":1827:1833   */\n      dup3\n        /* \"#utility.yul\":1816:1825   */\n      dup6\n        /* \"#utility.yul\":1812:1834   */\n      add\n        /* \"#utility.yul\":1791:1844   */\n      tag_112\n      jump\t// in\n    tag_158:\n        /* \"#utility.yul\":1781:1844   */\n      swap2\n      pop\n        /* \"#utility.yul\":1737:1854   */\n      pop\n        /* \"#utility.yul\":1532:1861   */\n      swap3\n      swap2\n      pop\n      pop\n      jump\t// out\n        /* \"#utility.yul\":1867:1985   */\n    tag_113:\n        /* \"#utility.yul\":1954:1978   */\n      tag_160\n        /* \"#utility.yul\":1972:1977   */\n      dup2\n        /* \"#utility.yul\":1954:1978   */\n      tag_106\n      jump\t// in\n    tag_160:\n        /* \"#utility.yul\":1949:1952   */\n      dup3\n        /* \"#utility.yul\":1942:1979   */\n      mstore\n        /* \"#utility.yul\":1867:1985   */\n      pop\n      pop\n      jump\t// out\n        /* \"#utility.yul\":1991:2655   */\n    tag_22:\n        /* \"#utility.yul\":2196:2200   */\n      0x00\n        /* \"#utility.yul\":2234:2237   */\n      0xa0\n        /* \"#utility.yul\":2223:2232   */\n      dup3\n        /* \"#utility.yul\":2219:2238   */\n      add\n        /* \"#utility.yul\":2211:2238   */\n      swap1\n      pop\n        /* \"#utility.yul\":2248:2319   */\n      tag_162\n        /* \"#utility.yul\":2316:2317   */\n      0x00\n        /* \"#utility.yul\":2305:2314   */\n      dup4\n        /* \"#utility.yul\":2301:2318   */\n      add\n        /* \"#utility.yul\":2292:2298   */\n      dup9\n        /* \"#utility.yul\":2248:2319   */\n      tag_113\n      jump\t// in\n    tag_162:\n        /* \"#utility.yul\":2329:2401   */\n      tag_163\n        /* \"#utility.yul\":2397:2399   */\n      0x20\n        /* \"#utility.yul\":2386:2395   */\n      dup4\n        /* \"#utility.yul\":2382:2400   */\n      add\n        /* \"#utility.yul\":2373:2379   */\n      dup8\n        /* \"#utility.yul\":2329:2401   */\n      tag_113\n      jump\t// in\n    tag_163:\n        /* \"#utility.yul\":2411:2483   */\n      tag_164\n        /* \"#utility.yul\":2479:2481   */\n      0x40\n        /* \"#utility.yul\":2468:2477   */\n      dup4\n        /* \"#utility.yul\":2464:2482   */\n      add\n        /* \"#utility.yul\":2455:2461   */\n      dup7\n        /* \"#utility.yul\":2411:2483   */\n      tag_113\n      jump\t// in\n    tag_164:\n        /* \"#utility.yul\":2493:2565   */\n      tag_165\n        /* \"#utility.yul\":2561:2563   */\n      0x60\n        /* \"#utility.yul\":2550:2559   */\n      dup4\n        /* \"#utility.yul\":2546:2564   */\n      add\n        /* \"#utility.yul\":2537:2543   */\n      dup6\n        /* \"#utility.yul\":2493:2565   */\n      tag_113\n      jump\t// in\n    tag_165:\n        /* \"#utility.yul\":2575:2648   */\n      tag_166\n        /* \"#utility.yul\":2643:2646   */\n      0x80\n        /* \"#utility.yul\":2632:2641   */\n      dup4\n        /* \"#utility.yul\":2628:2647   */\n      add\n        /* \"#utility.yul\":2619:2625   */\n      dup5\n        /* \"#utility.yul\":2575:2648   */\n      tag_113\n      jump\t// in\n    tag_166:\n        /* \"#utility.yul\":1991:2655   */\n      swap7\n      swap6\n      pop\n      pop\n      pop\n      pop\n      pop\n      pop\n      jump\t// out\n        /* \"#utility.yul\":2661:2883   */\n    tag_31:\n        /* \"#utility.yul\":2754:2758   */\n      0x00\n        /* \"#utility.yul\":2792:2794   */\n      0x20\n        /* \"#utility.yul\":2781:2790   */\n      dup3\n        /* \"#utility.yul\":2777:2795   */\n      add\n        /* \"#utility.yul\":2769:2795   */\n      swap1\n      pop\n        /* \"#utility.yul\":2805:2876   */\n      tag_168\n        /* \"#utility.yul\":2873:2874   */\n      0x00\n        /* \"#utility.yul\":2862:2871   */\n      dup4\n        /* \"#utility.yul\":2858:2875   */\n      add\n        /* \"#utility.yul\":2849:2855   */\n      dup5\n        /* \"#utility.yul\":2805:2876   */\n      tag_113\n      jump\t// in\n    tag_168:\n        /* \"#utility.yul\":2661:2883   */\n      swap3\n      swap2\n      pop\n      pop\n      jump\t// out\n        /* \"#utility.yul\":2889:3221   */\n    tag_39:\n        /* \"#utility.yul\":3010:3014   */\n      0x00\n        /* \"#utility.yul\":3048:3050   */\n      0x40\n        /* \"#utility.yul\":3037:3046   */\n      dup3\n        /* \"#utility.yul\":3033:3051   */\n      add\n        /* \"#utility.yul\":3025:3051   */\n      swap1\n      pop\n        /* \"#utility.yul\":3061:3132   */\n      tag_170\n        /* \"#utility.yul\":3129:3130   */\n      0x00\n        /* \"#utility.yul\":3118:3127   */\n      dup4\n        /* \"#utility.yul\":3114:3131   */\n      add\n        /* \"#utility.yul\":3105:3111   */\n      dup6\n        /* \"#utility.yul\":3061:3132   */\n      tag_113\n      jump\t// in\n    tag_170:\n        /* \"#utility.yul\":3142:3214   */\n      tag_171\n        /* \"#utility.yul\":3210:3212   */\n      0x20\n        /* \"#utility.yul\":3199:3208   */\n      dup4\n        /* \"#utility.yul\":3195:3213   */\n      add\n        /* \"#utility.yul\":3186:3192   */\n      dup5\n        /* \"#utility.yul\":3142:3214   */\n      tag_113\n      jump\t// in\n    tag_171:\n        /* \"#utility.yul\":2889:3221   */\n      swap4\n      swap3\n      pop\n      pop\n      pop\n      jump\t// out\n        /* \"#utility.yul\":3227:3303   */\n    tag_114:\n        /* \"#utility.yul\":3263:3270   */\n      0x00\n        /* \"#utility.yul\":3292:3297   */\n      dup2\n        /* \"#utility.yul\":3281:3297   */\n      swap1\n      pop\n        /* \"#utility.yul\":3227:3303   */\n      swap2\n      swap1\n      pop\n      jump\t// out\n        /* \"#utility.yul\":3309:3424   */\n    tag_115:\n        /* \"#utility.yul\":3394:3417   */\n      tag_174\n        /* \"#utility.yul\":3411:3416   */\n      dup2\n        /* \"#utility.yul\":3394:3417   */\n      tag_114\n      jump\t// in\n    tag_174:\n        /* \"#utility.yul\":3389:3392   */\n      dup3\n        /* \"#utility.yul\":3382:3418   */\n      mstore\n        /* \"#utility.yul\":3309:3424   */\n      pop\n      pop\n      jump\t// out\n        /* \"#utility.yul\":3430:3648   */\n    tag_44:\n        /* \"#utility.yul\":3521:3525   */\n      0x00\n        /* \"#utility.yul\":3559:3561   */\n      0x20\n        /* \"#utility.yul\":3548:3557   */\n      dup3\n        /* \"#utility.yul\":3544:3562   */\n      add\n        /* \"#utility.yul\":3536:3562   */\n      swap1\n      pop\n        /* \"#utility.yul\":3572:3641   */\n      tag_176\n        /* \"#utility.yul\":3638:3639   */\n      0x00\n        /* \"#utility.yul\":3627:3636   */\n      dup4\n        /* \"#utility.yul\":3623:3640   */\n      add\n        /* \"#utility.yul\":3614:3620   */\n      dup5\n        /* \"#utility.yul\":3572:3641   */\n      tag_115\n      jump\t// in\n    tag_176:\n        /* \"#utility.yul\":3430:3648   */\n      swap3\n      swap2\n      pop\n      pop\n      jump\t// out\n        /* \"#utility.yul\":3654:3834   */\n    tag_116:\n        /* \"#utility.yul\":3702:3779   */\n      0x4e487b7100000000000000000000000000000000000000000000000000000000\n        /* \"#utility.yul\":3699:3700   */\n      0x00\n        /* \"#utility.yul\":3692:3780   */\n      mstore\n        /* \"#utility.yul\":3799:3803   */\n      0x11\n        /* \"#utility.yul\":3796:3797   */\n      0x04\n        /* \"#utility.yul\":3789:3804   */\n      mstore\n        /* \"#utility.yul\":3823:3827   */\n      0x24\n        /* \"#utility.yul\":3820:3821   */\n      0x00\n        /* \"#utility.yul\":3813:3828   */\n      revert\n        /* \"#utility.yul\":3840:4034   */\n    tag_53:\n        /* \"#utility.yul\":3880:3884   */\n      0x00\n        /* \"#utility.yul\":3900:3920   */\n      tag_179\n        /* \"#utility.yul\":3918:3919   */\n      dup3\n        /* \"#utility.yul\":3900:3920   */\n      tag_106\n      jump\t// in\n    tag_179:\n        /* \"#utility.yul\":3895:3920   */\n      swap2\n      pop\n        /* \"#utility.yul\":3934:3954   */\n      tag_180\n        /* \"#utility.yul\":3952:3953   */\n      dup4\n        /* \"#utility.yul\":3934:3954   */\n      tag_106\n      jump\t// in\n    tag_180:\n        /* \"#utility.yul\":3929:3954   */\n      swap3\n      pop\n        /* \"#utility.yul\":3978:3979   */\n      dup3\n        /* \"#utility.yul\":3975:3976   */\n      dup3\n        /* \"#utility.yul\":3971:3980   */\n      sub\n        /* \"#utility.yul\":3963:3980   */\n      swap1\n      pop\n        /* \"#utility.yul\":4002:4003   */\n      dup2\n        /* \"#utility.yul\":3996:4000   */\n      dup2\n        /* \"#utility.yul\":3993:4004   */\n      gt\n        /* \"#utility.yul\":3990:4027   */\n      iszero\n      tag_181\n      jumpi\n        /* \"#utility.yul\":4007:4025   */\n      tag_182\n      tag_116\n      jump\t// in\n    tag_182:\n        /* \"#utility.yul\":3990:4027   */\n    tag_181:\n        /* \"#utility.yul\":3840:4034   */\n      swap3\n      swap2\n      pop\n      pop\n      jump\t// out\n        /* \"#utility.yul\":4040:4231   */\n    tag_55:\n        /* \"#utility.yul\":4080:4083   */\n      0x00\n        /* \"#utility.yul\":4099:4119   */\n      tag_184\n        /* \"#utility.yul\":4117:4118   */\n      dup3\n        /* \"#utility.yul\":4099:4119   */\n      tag_106\n      jump\t// in\n    tag_184:\n        /* \"#utility.yul\":4094:4119   */\n      swap2\n      pop\n        /* \"#utility.yul\":4133:4153   */\n      tag_185\n        /* \"#utility.yul\":4151:4152   */\n      dup4\n        /* \"#utility.yul\":4133:4153   */\n      tag_106\n      jump\t// in\n    tag_185:\n        /* \"#utility.yul\":4128:4153   */\n      swap3\n      pop\n        /* \"#utility.yul\":4176:4177   */\n      dup3\n        /* \"#utility.yul\":4173:4174   */\n      dup3\n        /* \"#utility.yul\":4169:4178   */\n      add\n        /* \"#utility.yul\":4162:4178   */\n      swap1\n      pop\n        /* \"#utility.yul\":4197:4200   */\n      dup1\n        /* \"#utility.yul\":4194:4195   */\n      dup3\n        /* \"#utility.yul\":4191:4201   */\n      gt\n        /* \"#utility.yul\":4188:4224   */\n      iszero\n      tag_186\n      jumpi\n        /* \"#utility.yul\":4204:4222   */\n      tag_187\n      tag_116\n      jump\t// in\n    tag_187:\n        /* \"#utility.yul\":4188:4224   */\n    tag_186:\n        /* \"#utility.yul\":4040:4231   */\n      swap3\n      swap2\n      pop\n      pop\n      jump\t// out\n        /* \"#utility.yul\":4237:4406   */\n    tag_117:\n        /* \"#utility.yul\":4321:4332   */\n      0x00\n        /* \"#utility.yul\":4355:4361   */\n      dup3\n        /* \"#utility.yul\":4350:4353   */\n      dup3\n        /* \"#utility.yul\":4343:4362   */\n      mstore\n        /* \"#utility.yul\":4395:4399   */\n      0x20\n        /* \"#utility.yul\":4390:4393   */\n      dup3\n        /* \"#utility.yul\":4386:4400   */\n      add\n        /* \"#utility.yul\":4371:4400   */\n      swap1\n      pop\n        /* \"#utility.yul\":4237:4406   */\n      swap3\n      swap2\n      pop\n      pop\n      jump\t// out\n        /* \"#utility.yul\":4412:4587   */\n    tag_118:\n        /* \"#utility.yul\":4552:4579   */\n      0x4e6f20636f6c6c61746572616c20746f20776974686472617700000000000000\n        /* \"#utility.yul\":4548:4549   */\n      0x00\n        /* \"#utility.yul\":4540:4546   */\n      dup3\n        /* \"#utility.yul\":4536:4550   */\n      add\n        /* \"#utility.yul\":4529:4580   */\n      mstore\n        /* \"#utility.yul\":4412:4587   */\n      pop\n      jump\t// out\n        /* \"#utility.yul\":4593:4959   */\n    tag_119:\n        /* \"#utility.yul\":4735:4738   */\n      0x00\n        /* \"#utility.yul\":4756:4823   */\n      tag_191\n        /* \"#utility.yul\":4820:4822   */\n      0x19\n        /* \"#utility.yul\":4815:4818   */\n      dup4\n        /* \"#utility.yul\":4756:4823   */\n      tag_117\n      jump\t// in\n    tag_191:\n        /* \"#utility.yul\":4749:4823   */\n      swap2\n      pop\n        /* \"#utility.yul\":4832:4925   */\n      tag_192\n        /* \"#utility.yul\":4921:4924   */\n      dup3\n        /* \"#utility.yul\":4832:4925   */\n      tag_118\n      jump\t// in\n    tag_192:\n        /* \"#utility.yul\":4950:4952   */\n      0x20\n        /* \"#utility.yul\":4945:4948   */\n      dup3\n        /* \"#utility.yul\":4941:4953   */\n      add\n        /* \"#utility.yul\":4934:4953   */\n      swap1\n      pop\n        /* \"#utility.yul\":4593:4959   */\n      swap2\n      swap1\n      pop\n      jump\t// out\n        /* \"#utility.yul\":4965:5384   */\n    tag_65:\n        /* \"#utility.yul\":5131:5135   */\n      0x00\n        /* \"#utility.yul\":5169:5171   */\n      0x20\n        /* \"#utility.yul\":5158:5167   */\n      dup3\n        /* \"#utility.yul\":5154:5172   */\n      add\n        /* \"#utility.yul\":5146:5172   */\n      swap1\n      pop\n        /* \"#utility.yul\":5218:5227   */\n      dup2\n        /* \"#utility.yul\":5212:5216   */\n      dup2\n        /* \"#utility.yul\":5208:5228   */\n      sub\n        /* \"#utility.yul\":5204:5205   */\n      0x00\n        /* \"#utility.yul\":5193:5202   */\n      dup4\n        /* \"#utility.yul\":5189:5206   */\n      add\n        /* \"#utility.yul\":5182:5229   */\n      mstore\n        /* \"#utility.yul\":5246:5377   */\n      tag_194\n        /* \"#utility.yul\":5372:5376   */\n      dup2\n        /* \"#utility.yul\":5246:5377   */\n      tag_119\n      jump\t// in\n    tag_194:\n        /* \"#utility.yul\":5238:5377   */\n      swap1\n      pop\n        /* \"#utility.yul\":4965:5384   */\n      swap2\n      swap1\n      pop\n      jump\t// out\n        /* \"#utility.yul\":5390:5620   */\n    tag_120:\n        /* \"#utility.yul\":5530:5564   */\n      0x5769746864726177616c20616d6f756e74206d75737420626520677265617465\n        /* \"#utility.yul\":5526:5527   */\n      0x00\n        /* \"#utility.yul\":5518:5524   */\n      dup3\n        /* \"#utility.yul\":5514:5528   */\n      add\n        /* \"#utility.yul\":5507:5565   */\n      mstore\n        /* \"#utility.yul\":5599:5612   */\n      0x72207468616e207a65726f000000000000000000000000000000000000000000\n        /* \"#utility.yul\":5594:5596   */\n      0x20\n        /* \"#utility.yul\":5586:5592   */\n      dup3\n        /* \"#utility.yul\":5582:5597   */\n      add\n        /* \"#utility.yul\":5575:5613   */\n      mstore\n        /* \"#utility.yul\":5390:5620   */\n      pop\n      jump\t// out\n        /* \"#utility.yul\":5626:5992   */\n    tag_121:\n        /* \"#utility.yul\":5768:5771   */\n      0x00\n        /* \"#utility.yul\":5789:5856   */\n      tag_197\n        /* \"#utility.yul\":5853:5855   */\n      0x2b\n        /* \"#utility.yul\":5848:5851   */\n      dup4\n        /* \"#utility.yul\":5789:5856   */\n      tag_117\n      jump\t// in\n    tag_197:\n        /* \"#utility.yul\":5782:5856   */\n      swap2\n      pop\n        /* \"#utility.yul\":5865:5958   */\n      tag_198\n        /* \"#utility.yul\":5954:5957   */\n      dup3\n        /* \"#utility.yul\":5865:5958   */\n      tag_120\n      jump\t// in\n    tag_198:\n        /* \"#utility.yul\":5983:5985   */\n      0x40\n        /* \"#utility.yul\":5978:5981   */\n      dup3\n        /* \"#utility.yul\":5974:5986   */\n      add\n        /* \"#utility.yul\":5967:5986   */\n      swap1\n      pop\n        /* \"#utility.yul\":5626:5992   */\n      swap2\n      swap1\n      pop\n      jump\t// out\n        /* \"#utility.yul\":5998:6417   */\n    tag_68:\n        /* \"#utility.yul\":6164:6168   */\n      0x00\n        /* \"#utility.yul\":6202:6204   */\n      0x20\n        /* \"#utility.yul\":6191:6200   */\n      dup3\n        /* \"#utility.yul\":6187:6205   */\n      add\n        /* \"#utility.yul\":6179:6205   */\n      swap1\n      pop\n        /* \"#utility.yul\":6251:6260   */\n      dup2\n        /* \"#utility.yul\":6245:6249   */\n      dup2\n        /* \"#utility.yul\":6241:6261   */\n      sub\n        /* \"#utility.yul\":6237:6238   */\n      0x00\n        /* \"#utility.yul\":6226:6235   */\n      dup4\n        /* \"#utility.yul\":6222:6239   */\n      add\n        /* \"#utility.yul\":6215:6262   */\n      mstore\n        /* \"#utility.yul\":6279:6410   */\n      tag_200\n        /* \"#utility.yul\":6405:6409   */\n      dup2\n        /* \"#utility.yul\":6279:6410   */\n      tag_121\n      jump\t// in\n    tag_200:\n        /* \"#utility.yul\":6271:6410   */\n      swap1\n      pop\n        /* \"#utility.yul\":5998:6417   */\n      swap2\n      swap1\n      pop\n      jump\t// out\n        /* \"#utility.yul\":6423:6657   */\n    tag_122:\n        /* \"#utility.yul\":6563:6597   */\n      0x496e73756666696369656e7420636f6c6c61746572616c20746f207769746864\n        /* \"#utility.yul\":6559:6560   */\n      0x00\n        /* \"#utility.yul\":6551:6557   */\n      dup3\n        /* \"#utility.yul\":6547:6561   */\n      add\n        /* \"#utility.yul\":6540:6598   */\n      mstore\n        /* \"#utility.yul\":6632:6649   */\n      0x726177207468697320616d6f756e740000000000000000000000000000000000\n        /* \"#utility.yul\":6627:6629   */\n      0x20\n        /* \"#utility.yul\":6619:6625   */\n      dup3\n        /* \"#utility.yul\":6615:6630   */\n      add\n        /* \"#utility.yul\":6608:6650   */\n      mstore\n        /* \"#utility.yul\":6423:6657   */\n      pop\n      jump\t// out\n        /* \"#utility.yul\":6663:7029   */\n    tag_123:\n        /* \"#utility.yul\":6805:6808   */\n      0x00\n        /* \"#utility.yul\":6826:6893   */\n      tag_203\n        /* \"#utility.yul\":6890:6892   */\n      0x2f\n        /* \"#utility.yul\":6885:6888   */\n      dup4\n        /* \"#utility.yul\":6826:6893   */\n      tag_117\n      jump\t// in\n    tag_203:\n        /* \"#utility.yul\":6819:6893   */\n      swap2\n      pop\n        /* \"#utility.yul\":6902:6995   */\n      tag_204\n        /* \"#utility.yul\":6991:6994   */\n      dup3\n        /* \"#utility.yul\":6902:6995   */\n      tag_122\n      jump\t// in\n    tag_204:\n        /* \"#utility.yul\":7020:7022   */\n      0x40\n        /* \"#utility.yul\":7015:7018   */\n      dup3\n        /* \"#utility.yul\":7011:7023   */\n      add\n        /* \"#utility.yul\":7004:7023   */\n      swap1\n      pop\n        /* \"#utility.yul\":6663:7029   */\n      swap2\n      swap1\n      pop\n      jump\t// out\n        /* \"#utility.yul\":7035:7454   */\n    tag_71:\n        /* \"#utility.yul\":7201:7205   */\n      0x00\n        /* \"#utility.yul\":7239:7241   */\n      0x20\n        /* \"#utility.yul\":7228:7237   */\n      dup3\n        /* \"#utility.yul\":7224:7242   */\n      add\n        /* \"#utility.yul\":7216:7242   */\n      swap1\n      pop\n        /* \"#utility.yul\":7288:7297   */\n      dup2\n        /* \"#utility.yul\":7282:7286   */\n      dup2\n        /* \"#utility.yul\":7278:7298   */\n      sub\n        /* \"#utility.yul\":7274:7275   */\n      0x00\n        /* \"#utility.yul\":7263:7272   */\n      dup4\n        /* \"#utility.yul\":7259:7276   */\n      add\n        /* \"#utility.yul\":7252:7299   */\n      mstore\n        /* \"#utility.yul\":7316:7447   */\n      tag_206\n        /* \"#utility.yul\":7442:7446   */\n      dup2\n        /* \"#utility.yul\":7316:7447   */\n      tag_123\n      jump\t// in\n    tag_206:\n        /* \"#utility.yul\":7308:7447   */\n      swap1\n      pop\n        /* \"#utility.yul\":7035:7454   */\n      swap2\n      swap1\n      pop\n      jump\t// out\n        /* \"#utility.yul\":7460:7565   */\n    tag_124:\n        /* \"#utility.yul\":7496:7503   */\n      0x00\n        /* \"#utility.yul\":7536:7558   */\n      0xffffffffffffffffffff\n        /* \"#utility.yul\":7529:7534   */\n      dup3\n        /* \"#utility.yul\":7525:7559   */\n      and\n        /* \"#utility.yul\":7514:7559   */\n      swap1\n      pop\n        /* \"#utility.yul\":7460:7565   */\n      swap2\n      swap1\n      pop\n      jump\t// out\n        /* \"#utility.yul\":7571:7691   */\n    tag_125:\n        /* \"#utility.yul\":7643:7666   */\n      tag_209\n        /* \"#utility.yul\":7660:7665   */\n      dup2\n        /* \"#utility.yul\":7643:7666   */\n      tag_124\n      jump\t// in\n    tag_209:\n        /* \"#utility.yul\":7636:7641   */\n      dup2\n        /* \"#utility.yul\":7633:7667   */\n      eq\n        /* \"#utility.yul\":7623:7685   */\n      tag_210\n      jumpi\n        /* \"#utility.yul\":7681:7682   */\n      0x00\n        /* \"#utility.yul\":7678:7679   */\n      dup1\n        /* \"#utility.yul\":7671:7683   */\n      revert\n        /* \"#utility.yul\":7623:7685   */\n    tag_210:\n        /* \"#utility.yul\":7571:7691   */\n      pop\n      jump\t// out\n        /* \"#utility.yul\":7697:7838   */\n    tag_126:\n        /* \"#utility.yul\":7753:7758   */\n      0x00\n        /* \"#utility.yul\":7784:7790   */\n      dup2\n        /* \"#utility.yul\":7778:7791   */\n      mload\n        /* \"#utility.yul\":7769:7791   */\n      swap1\n      pop\n        /* \"#utility.yul\":7800:7832   */\n      tag_212\n        /* \"#utility.yul\":7826:7831   */\n      dup2\n        /* \"#utility.yul\":7800:7832   */\n      tag_125\n      jump\t// in\n    tag_212:\n        /* \"#utility.yul\":7697:7838   */\n      swap3\n      swap2\n      pop\n      pop\n      jump\t// out\n        /* \"#utility.yul\":7844:7964   */\n    tag_127:\n        /* \"#utility.yul\":7916:7939   */\n      tag_214\n        /* \"#utility.yul\":7933:7938   */\n      dup2\n        /* \"#utility.yul\":7916:7939   */\n      tag_114\n      jump\t// in\n    tag_214:\n        /* \"#utility.yul\":7909:7914   */\n      dup2\n        /* \"#utility.yul\":7906:7940   */\n      eq\n        /* \"#utility.yul\":7896:7958   */\n      tag_215\n      jumpi\n        /* \"#utility.yul\":7954:7955   */\n      0x00\n        /* \"#utility.yul\":7951:7952   */\n      dup1\n        /* \"#utility.yul\":7944:7956   */\n      revert\n        /* \"#utility.yul\":7896:7958   */\n    tag_215:\n        /* \"#utility.yul\":7844:7964   */\n      pop\n      jump\t// out\n        /* \"#utility.yul\":7970:8111   */\n    tag_128:\n        /* \"#utility.yul\":8026:8031   */\n      0x00\n        /* \"#utility.yul\":8057:8063   */\n      dup2\n        /* \"#utility.yul\":8051:8064   */\n      mload\n        /* \"#utility.yul\":8042:8064   */\n      swap1\n      pop\n        /* \"#utility.yul\":8073:8105   */\n      tag_217\n        /* \"#utility.yul\":8099:8104   */\n      dup2\n        /* \"#utility.yul\":8073:8105   */\n      tag_127\n      jump\t// in\n    tag_217:\n        /* \"#utility.yul\":7970:8111   */\n      swap3\n      swap2\n      pop\n      pop\n      jump\t// out\n        /* \"#utility.yul\":8117:8260   */\n    tag_129:\n        /* \"#utility.yul\":8174:8179   */\n      0x00\n        /* \"#utility.yul\":8205:8211   */\n      dup2\n        /* \"#utility.yul\":8199:8212   */\n      mload\n        /* \"#utility.yul\":8190:8212   */\n      swap1\n      pop\n        /* \"#utility.yul\":8221:8254   */\n      tag_219\n        /* \"#utility.yul\":8248:8253   */\n      dup2\n        /* \"#utility.yul\":8221:8254   */\n      tag_107\n      jump\t// in\n    tag_219:\n        /* \"#utility.yul\":8117:8260   */\n      swap3\n      swap2\n      pop\n      pop\n      jump\t// out\n        /* \"#utility.yul\":8266:9237   */\n    tag_81:\n        /* \"#utility.yul\":8369:8375   */\n      0x00\n        /* \"#utility.yul\":8377:8383   */\n      dup1\n        /* \"#utility.yul\":8385:8391   */\n      0x00\n        /* \"#utility.yul\":8393:8399   */\n      dup1\n        /* \"#utility.yul\":8401:8407   */\n      0x00\n        /* \"#utility.yul\":8450:8453   */\n      0xa0\n        /* \"#utility.yul\":8438:8447   */\n      dup7\n        /* \"#utility.yul\":8429:8436   */\n      dup9\n        /* \"#utility.yul\":8425:8448   */\n      sub\n        /* \"#utility.yul\":8421:8454   */\n      slt\n        /* \"#utility.yul\":8418:8538   */\n      iszero\n      tag_221\n      jumpi\n        /* \"#utility.yul\":8457:8536   */\n      tag_222\n      tag_104\n      jump\t// in\n    tag_222:\n        /* \"#utility.yul\":8418:8538   */\n    tag_221:\n        /* \"#utility.yul\":8577:8578   */\n      0x00\n        /* \"#utility.yul\":8602:8665   */\n      tag_223\n        /* \"#utility.yul\":8657:8664   */\n      dup9\n        /* \"#utility.yul\":8648:8654   */\n      dup3\n        /* \"#utility.yul\":8637:8646   */\n      dup10\n        /* \"#utility.yul\":8633:8655   */\n      add\n        /* \"#utility.yul\":8602:8665   */\n      tag_126\n      jump\t// in\n    tag_223:\n        /* \"#utility.yul\":8592:8665   */\n      swap6\n      pop\n        /* \"#utility.yul\":8548:8675   */\n      pop\n        /* \"#utility.yul\":8714:8716   */\n      0x20\n        /* \"#utility.yul\":8740:8803   */\n      tag_224\n        /* \"#utility.yul\":8795:8802   */\n      dup9\n        /* \"#utility.yul\":8786:8792   */\n      dup3\n        /* \"#utility.yul\":8775:8784   */\n      dup10\n        /* \"#utility.yul\":8771:8793   */\n      add\n        /* \"#utility.yul\":8740:8803   */\n      tag_128\n      jump\t// in\n    tag_224:\n        /* \"#utility.yul\":8730:8803   */\n      swap5\n      pop\n        /* \"#utility.yul\":8685:8813   */\n      pop\n        /* \"#utility.yul\":8852:8854   */\n      0x40\n        /* \"#utility.yul\":8878:8942   */\n      tag_225\n        /* \"#utility.yul\":8934:8941   */\n      dup9\n        /* \"#utility.yul\":8925:8931   */\n      dup3\n        /* \"#utility.yul\":8914:8923   */\n      dup10\n        /* \"#utility.yul\":8910:8932   */\n      add\n        /* \"#utility.yul\":8878:8942   */\n      tag_129\n      jump\t// in\n    tag_225:\n        /* \"#utility.yul\":8868:8942   */\n      swap4\n      pop\n        /* \"#utility.yul\":8823:8952   */\n      pop\n        /* \"#utility.yul\":8991:8993   */\n      0x60\n        /* \"#utility.yul\":9017:9081   */\n      tag_226\n        /* \"#utility.yul\":9073:9080   */\n      dup9\n        /* \"#utility.yul\":9064:9070   */\n      dup3\n        /* \"#utility.yul\":9053:9062   */\n      dup10\n        /* \"#utility.yul\":9049:9071   */\n      add\n        /* \"#utility.yul\":9017:9081   */\n      tag_129\n      jump\t// in\n    tag_226:\n        /* \"#utility.yul\":9007:9081   */\n      swap3\n      pop\n        /* \"#utility.yul\":8962:9091   */\n      pop\n        /* \"#utility.yul\":9130:9133   */\n      0x80\n        /* \"#utility.yul\":9157:9220   */\n      tag_227\n        /* \"#utility.yul\":9212:9219   */\n      dup9\n        /* \"#utility.yul\":9203:9209   */\n      dup3\n        /* \"#utility.yul\":9192:9201   */\n      dup10\n        /* \"#utility.yul\":9188:9210   */\n      add\n        /* \"#utility.yul\":9157:9220   */\n      tag_126\n      jump\t// in\n    tag_227:\n        /* \"#utility.yul\":9147:9220   */\n      swap2\n      pop\n        /* \"#utility.yul\":9101:9230   */\n      pop\n        /* \"#utility.yul\":8266:9237   */\n      swap3\n      swap6\n      pop\n      swap3\n      swap6\n      swap1\n      swap4\n      pop\n      jump\t// out\n        /* \"#utility.yul\":9243:9423   */\n    tag_130:\n        /* \"#utility.yul\":9291:9368   */\n      0x4e487b7100000000000000000000000000000000000000000000000000000000\n        /* \"#utility.yul\":9288:9289   */\n      0x00\n        /* \"#utility.yul\":9281:9369   */\n      mstore\n        /* \"#utility.yul\":9388:9392   */\n      0x12\n        /* \"#utility.yul\":9385:9386   */\n      0x04\n        /* \"#utility.yul\":9378:9393   */\n      mstore\n        /* \"#utility.yul\":9412:9416   */\n      0x24\n        /* \"#utility.yul\":9409:9410   */\n      0x00\n        /* \"#utility.yul\":9402:9417   */\n      revert\n        /* \"#utility.yul\":9429:9814   */\n    tag_83:\n        /* \"#utility.yul\":9468:9469   */\n      0x00\n        /* \"#utility.yul\":9485:9504   */\n      tag_230\n        /* \"#utility.yul\":9502:9503   */\n      dup3\n        /* \"#utility.yul\":9485:9504   */\n      tag_114\n      jump\t// in\n    tag_230:\n        /* \"#utility.yul\":9480:9504   */\n      swap2\n      pop\n        /* \"#utility.yul\":9518:9537   */\n      tag_231\n        /* \"#utility.yul\":9535:9536   */\n      dup4\n        /* \"#utility.yul\":9518:9537   */\n      tag_114\n      jump\t// in\n    tag_231:\n        /* \"#utility.yul\":9513:9537   */\n      swap3\n      pop\n        /* \"#utility.yul\":9556:9557   */\n      dup3\n        /* \"#utility.yul\":9546:9581   */\n      tag_232\n      jumpi\n        /* \"#utility.yul\":9561:9579   */\n      tag_233\n      tag_130\n      jump\t// in\n    tag_233:\n        /* \"#utility.yul\":9546:9581   */\n    tag_232:\n        /* \"#utility.yul\":9747:9748   */\n      0x01\n        /* \"#utility.yul\":9744:9745   */\n      0x00\n        /* \"#utility.yul\":9740:9749   */\n      sub\n        /* \"#utility.yul\":9737:9738   */\n      dup4\n        /* \"#utility.yul\":9734:9750   */\n      eq\n        /* \"#utility.yul\":9653:9719   */\n      0x8000000000000000000000000000000000000000000000000000000000000000\n        /* \"#utility.yul\":9650:9651   */\n      dup4\n        /* \"#utility.yul\":9647:9720   */\n      eq\n        /* \"#utility.yul\":9630:9760   */\n      and\n        /* \"#utility.yul\":9627:9783   */\n      iszero\n      tag_234\n      jumpi\n        /* \"#utility.yul\":9763:9781   */\n      tag_235\n      tag_116\n      jump\t// in\n    tag_235:\n        /* \"#utility.yul\":9627:9783   */\n    tag_234:\n        /* \"#utility.yul\":9806:9807   */\n      dup3\n        /* \"#utility.yul\":9803:9804   */\n      dup3\n        /* \"#utility.yul\":9798:9808   */\n      sdiv\n        /* \"#utility.yul\":9793:9808   */\n      swap1\n      pop\n        /* \"#utility.yul\":9429:9814   */\n      swap3\n      swap2\n      pop\n      pop\n      jump\t// out\n        /* \"#utility.yul\":9820:10047   */\n    tag_131:\n        /* \"#utility.yul\":9960:9994   */\n      0x4465706f73697420616d6f756e74206d75737420626520677265617465722074\n        /* \"#utility.yul\":9956:9957   */\n      0x00\n        /* \"#utility.yul\":9948:9954   */\n      dup3\n        /* \"#utility.yul\":9944:9958   */\n      add\n        /* \"#utility.yul\":9937:9995   */\n      mstore\n        /* \"#utility.yul\":10029:10039   */\n      0x68616e207a65726f000000000000000000000000000000000000000000000000\n        /* \"#utility.yul\":10024:10026   */\n      0x20\n        /* \"#utility.yul\":10016:10022   */\n      dup3\n        /* \"#utility.yul\":10012:10027   */\n      add\n        /* \"#utility.yul\":10005:10040   */\n      mstore\n        /* \"#utility.yul\":9820:10047   */\n      pop\n      jump\t// out\n        /* \"#utility.yul\":10053:10419   */\n    tag_132:\n        /* \"#utility.yul\":10195:10198   */\n      0x00\n        /* \"#utility.yul\":10216:10283   */\n      tag_238\n        /* \"#utility.yul\":10280:10282   */\n      0x28\n        /* \"#utility.yul\":10275:10278   */\n      dup4\n        /* \"#utility.yul\":10216:10283   */\n      tag_117\n      jump\t// in\n    tag_238:\n        /* \"#utility.yul\":10209:10283   */\n      swap2\n      pop\n        /* \"#utility.yul\":10292:10385   */\n      tag_239\n        /* \"#utility.yul\":10381:10384   */\n      dup3\n        /* \"#utility.yul\":10292:10385   */\n      tag_131\n      jump\t// in\n    tag_239:\n        /* \"#utility.yul\":10410:10412   */\n      0x40\n        /* \"#utility.yul\":10405:10408   */\n      dup3\n        /* \"#utility.yul\":10401:10413   */\n      add\n        /* \"#utility.yul\":10394:10413   */\n      swap1\n      pop\n        /* \"#utility.yul\":10053:10419   */\n      swap2\n      swap1\n      pop\n      jump\t// out\n        /* \"#utility.yul\":10425:10844   */\n    tag_87:\n        /* \"#utility.yul\":10591:10595   */\n      0x00\n        /* \"#utility.yul\":10629:10631   */\n      0x20\n        /* \"#utility.yul\":10618:10627   */\n      dup3\n        /* \"#utility.yul\":10614:10632   */\n      add\n        /* \"#utility.yul\":10606:10632   */\n      swap1\n      pop\n        /* \"#utility.yul\":10678:10687   */\n      dup2\n        /* \"#utility.yul\":10672:10676   */\n      dup2\n        /* \"#utility.yul\":10668:10688   */\n      sub\n        /* \"#utility.yul\":10664:10665   */\n      0x00\n        /* \"#utility.yul\":10653:10662   */\n      dup4\n        /* \"#utility.yul\":10649:10666   */\n      add\n        /* \"#utility.yul\":10642:10689   */\n      mstore\n        /* \"#utility.yul\":10706:10837   */\n      tag_241\n        /* \"#utility.yul\":10832:10836   */\n      dup2\n        /* \"#utility.yul\":10706:10837   */\n      tag_132\n      jump\t// in\n    tag_241:\n        /* \"#utility.yul\":10698:10837   */\n      swap1\n      pop\n        /* \"#utility.yul\":10425:10844   */\n      swap2\n      swap1\n      pop\n      jump\t// out\n        /* \"#utility.yul\":10850:11260   */\n    tag_90:\n        /* \"#utility.yul\":10890:10897   */\n      0x00\n        /* \"#utility.yul\":10913:10933   */\n      tag_243\n        /* \"#utility.yul\":10931:10932   */\n      dup3\n        /* \"#utility.yul\":10913:10933   */\n      tag_106\n      jump\t// in\n    tag_243:\n        /* \"#utility.yul\":10908:10933   */\n      swap2\n      pop\n        /* \"#utility.yul\":10947:10967   */\n      tag_244\n        /* \"#utility.yul\":10965:10966   */\n      dup4\n        /* \"#utility.yul\":10947:10967   */\n      tag_106\n      jump\t// in\n    tag_244:\n        /* \"#utility.yul\":10942:10967   */\n      swap3\n      pop\n        /* \"#utility.yul\":11002:11003   */\n      dup3\n        /* \"#utility.yul\":10999:11000   */\n      dup3\n        /* \"#utility.yul\":10995:11004   */\n      mul\n        /* \"#utility.yul\":11024:11054   */\n      tag_245\n        /* \"#utility.yul\":11042:11053   */\n      dup2\n        /* \"#utility.yul\":11024:11054   */\n      tag_106\n      jump\t// in\n    tag_245:\n        /* \"#utility.yul\":11013:11054   */\n      swap2\n      pop\n        /* \"#utility.yul\":11203:11204   */\n      dup3\n        /* \"#utility.yul\":11194:11201   */\n      dup3\n        /* \"#utility.yul\":11190:11205   */\n      div\n        /* \"#utility.yul\":11187:11188   */\n      dup5\n        /* \"#utility.yul\":11184:11206   */\n      eq\n        /* \"#utility.yul\":11164:11165   */\n      dup4\n        /* \"#utility.yul\":11157:11166   */\n      iszero\n        /* \"#utility.yul\":11137:11220   */\n      or\n        /* \"#utility.yul\":11114:11253   */\n      tag_246\n      jumpi\n        /* \"#utility.yul\":11233:11251   */\n      tag_247\n      tag_116\n      jump\t// in\n    tag_247:\n        /* \"#utility.yul\":11114:11253   */\n    tag_246:\n        /* \"#utility.yul\":10898:11260   */\n      pop\n        /* \"#utility.yul\":10850:11260   */\n      swap3\n      swap2\n      pop\n      pop\n      jump\t// out\n        /* \"#utility.yul\":11266:11451   */\n    tag_92:\n        /* \"#utility.yul\":11306:11307   */\n      0x00\n        /* \"#utility.yul\":11323:11343   */\n      tag_249\n        /* \"#utility.yul\":11341:11342   */\n      dup3\n        /* \"#utility.yul\":11323:11343   */\n      tag_106\n      jump\t// in\n    tag_249:\n        /* \"#utility.yul\":11318:11343   */\n      swap2\n      pop\n        /* \"#utility.yul\":11357:11377   */\n      tag_250\n        /* \"#utility.yul\":11375:11376   */\n      dup4\n        /* \"#utility.yul\":11357:11377   */\n      tag_106\n      jump\t// in\n    tag_250:\n        /* \"#utility.yul\":11352:11377   */\n      swap3\n      pop\n        /* \"#utility.yul\":11396:11397   */\n      dup3\n        /* \"#utility.yul\":11386:11421   */\n      tag_251\n      jumpi\n        /* \"#utility.yul\":11401:11419   */\n      tag_252\n      tag_130\n      jump\t// in\n    tag_252:\n        /* \"#utility.yul\":11386:11421   */\n    tag_251:\n        /* \"#utility.yul\":11443:11444   */\n      dup3\n        /* \"#utility.yul\":11440:11441   */\n      dup3\n        /* \"#utility.yul\":11436:11445   */\n      div\n        /* \"#utility.yul\":11431:11445   */\n      swap1\n      pop\n        /* \"#utility.yul\":11266:11451   */\n      swap3\n      swap2\n      pop\n      pop\n      jump\t// out\n\n    auxdata: 0xa2646970667358221220779fb8cefc60a71a4b26881e4ba29e051ac00fbe37b2596eef04ffd8b83e3b1664736f6c634300081a0033\n}\n",
				"bytecode": {
					"linkReferences": {},
					"object": "6080604052348015600e575f80fd5b50335f806101000a81548173ffffffffffffffffffffffffffffffffffffffff021916908373ffffffffffffffffffffffffffffffffffffffff16021790555073694aa1769357215de4fac081bf1f309adc32530660015f6101000a81548173ffffffffffffffffffffffffffffffffffffffff021916908373ffffffffffffffffffffffffffffffffffffffff160217905550610f03806100af5f395ff3fe60806040526004361061007a575f3560e01c80636f7581401161004d5780636f758140146101385780639b56d6c914610142578063ae9e53801461017f578063fb7cbd6c146101a95761007a565b80632a104d8d1461007e5780635e5c06e2146100a65780636112fe2e146100e657806367c9b0171461010e575b5f80fd5b348015610089575f80fd5b506100a4600480360381019061009f919061089d565b6101e5565b005b3480156100b1575f80fd5b506100cc60048036038101906100c79190610922565b610338565b6040516100dd95949392919061095c565b60405180910390f35b3480156100f1575f80fd5b5061010c6004803603810190610107919061089d565b61036a565b005b348015610119575f80fd5b5061012261053e565b60405161012f91906109ad565b60405180910390f35b6101406105ef565b005b34801561014d575f80fd5b5061016860048036038101906101639190610922565b610726565b6040516101769291906109c6565b60405180910390f35b34801561018a575f80fd5b5061019361077b565b6040516101a09190610a05565b60405180910390f35b3480156101b4575f80fd5b506101cf60048036038101906101ca9190610922565b610818565b6040516101dc91906109ad565b60405180910390f35b5f60025f3373ffffffffffffffffffffffffffffffffffffffff1673ffffffffffffffffffffffffffffffffffffffff1681526020019081526020015f2090505f816003015411610234575f80fd5b81815f015f8282546102469190610a4b565b9250508190555081816001015f8282546102609190610a7e565b9250508190555081816003015f82825461027a9190610a4b565b9250508190555061028961053e565b816002015f82825461029b9190610a7e565b925050819055503373ffffffffffffffffffffffffffffffffffffffff166108fc8390811502906040515f60405180830381858888f193505050501580156102e5573d5f803e3d5ffd5b503373ffffffffffffffffffffffffffffffffffffffff167f9fc64c8ef100e2584ce71f7bb2f62474d1a63a9f3fc4d216bacea670c289614a8360405161032c91906109ad565b60405180910390a25050565b6002602052805f5260405f205f91509050805f0154908060010154908060020154908060030154908060040154905085565b5f60025f3373ffffffffffffffffffffffffffffffffffffffff1673ffffffffffffffffffffffffffffffffffffffff1681526020019081526020015f2090505f815f015490505f81116103f3576040517f08c379a00000000000000000000000000000000000000000000000000000000081526004016103ea90610b0b565b60405180910390fd5b5f8311610435576040517f08c379a000000000000000000000000000000000000000000000000000000000815260040161042c90610b99565b60405180910390fd5b80831115610478576040517f08c379a000000000000000000000000000000000000000000000000000000000815260040161046f90610c27565b60405180910390fd5b82825f015f82825461048a9190610a4b565b925050819055505f825f0154036104a5575f82600401819055505b3373ffffffffffffffffffffffffffffffffffffffff166108fc8490811502906040515f60405180830381858888f193505050501580156104e8573d5f803e3d5ffd5b503373ffffffffffffffffffffffffffffffffffffffff167fdaed309a628faec6cab72194019e2a1a34e890ca9bf9be99788992dd5469281984426040516105319291906109c6565b60405180910390a2505050565b5f8060015f9054906101000a900473ffffffffffffffffffffffffffffffffffffffff1673ffffffffffffffffffffffffffffffffffffffff1663feaf968c6040518163ffffffff1660e01b815260040160a060405180830381865afa1580156105aa573d5f803e3d5ffd5b505050506040513d601f19601f820116820180604052508101906105ce9190610cc2565b5050509150505f6305f5e100826105e59190610d66565b9050809250505090565b5f3411610631576040517f08c379a000000000000000000000000000000000000000000000000000000000815260040161062890610e3e565b60405180910390fd5b5f60025f3373ffffffffffffffffffffffffffffffffffffffff1673ffffffffffffffffffffffffffffffffffffffff1681526020019081526020015f20905034815f015f8282546106839190610a7e565b92505081905550670de0b6b3a7640000670b1a2bc2ec500000346106a79190610e5c565b6106b19190610e9d565b816003015f8282546106c39190610a7e565b925050819055504281600401819055503373ffffffffffffffffffffffffffffffffffffffff167ff4d587c98d234ca4d147061e6b5167e7f41ee17f11562a9f0b49570abece859e344260405161071b9291906109c6565b60405180910390a250565b5f805f60025f8573ffffffffffffffffffffffffffffffffffffffff1673ffffffffffffffffffffffffffffffffffffffff1681526020019081526020015f209050805f015481600401549250925050915091565b5f8060025f3373ffffffffffffffffffffffffffffffffffffffff1673ffffffffffffffffffffffffffffffffffffffff1681526020019081526020015f2090505f6107c561053e565b825f01546107d39190610e5c565b90505f8260010154670b1a2bc2ec500000836107ef9190610e5c565b6107f99190610e9d565b90505f6305f5e1008261080c9190610d66565b90508094505050505090565b5f8060025f8473ffffffffffffffffffffffffffffffffffffffff1673ffffffffffffffffffffffffffffffffffffffff1681526020019081526020015f2090508060030154915050919050565b5f80fd5b5f819050919050565b61087c8161086a565b8114610886575f80fd5b50565b5f8135905061089781610873565b92915050565b5f602082840312156108b2576108b1610866565b5b5f6108bf84828501610889565b91505092915050565b5f73ffffffffffffffffffffffffffffffffffffffff82169050919050565b5f6108f1826108c8565b9050919050565b610901816108e7565b811461090b575f80fd5b50565b5f8135905061091c816108f8565b92915050565b5f6020828403121561093757610936610866565b5b5f6109448482850161090e565b91505092915050565b6109568161086a565b82525050565b5f60a08201905061096f5f83018861094d565b61097c602083018761094d565b610989604083018661094d565b610996606083018561094d565b6109a3608083018461094d565b9695505050505050565b5f6020820190506109c05f83018461094d565b92915050565b5f6040820190506109d95f83018561094d565b6109e6602083018461094d565b9392505050565b5f819050919050565b6109ff816109ed565b82525050565b5f602082019050610a185f8301846109f6565b92915050565b7f4e487b71000000000000000000000000000000000000000000000000000000005f52601160045260245ffd5b5f610a558261086a565b9150610a608361086a565b9250828203905081811115610a7857610a77610a1e565b5b92915050565b5f610a888261086a565b9150610a938361086a565b9250828201905080821115610aab57610aaa610a1e565b5b92915050565b5f82825260208201905092915050565b7f4e6f20636f6c6c61746572616c20746f207769746864726177000000000000005f82015250565b5f610af5601983610ab1565b9150610b0082610ac1565b602082019050919050565b5f6020820190508181035f830152610b2281610ae9565b9050919050565b7f5769746864726177616c20616d6f756e74206d757374206265206772656174655f8201527f72207468616e207a65726f000000000000000000000000000000000000000000602082015250565b5f610b83602b83610ab1565b9150610b8e82610b29565b604082019050919050565b5f6020820190508181035f830152610bb081610b77565b9050919050565b7f496e73756666696369656e7420636f6c6c61746572616c20746f2077697468645f8201527f726177207468697320616d6f756e740000000000000000000000000000000000602082015250565b5f610c11602f83610ab1565b9150610c1c82610bb7565b604082019050919050565b5f6020820190508181035f830152610c3e81610c05565b9050919050565b5f69ffffffffffffffffffff82169050919050565b610c6381610c45565b8114610c6d575f80fd5b50565b5f81519050610c7e81610c5a565b92915050565b610c8d816109ed565b8114610c97575f80fd5b50565b5f81519050610ca881610c84565b92915050565b5f81519050610cbc81610873565b92915050565b5f805f805f60a08688031215610cdb57610cda610866565b5b5f610ce888828901610c70565b9550506020610cf988828901610c9a565b9450506040610d0a88828901610cae565b9350506060610d1b88828901610cae565b9250506080610d2c88828901610c70565b9150509295509295909350565b7f4e487b71000000000000000000000000000000000000000000000000000000005f52601260045260245ffd5b5f610d70826109ed565b9150610d7b836109ed565b925082610d8b57610d8a610d39565b5b60015f0383147f800000000000000000000000000000000000000000000000000000000000000083141615610dc357610dc2610a1e565b5b828205905092915050565b7f4465706f73697420616d6f756e74206d757374206265206772656174657220745f8201527f68616e207a65726f000000000000000000000000000000000000000000000000602082015250565b5f610e28602883610ab1565b9150610e3382610dce565b604082019050919050565b5f6020820190508181035f830152610e5581610e1c565b9050919050565b5f610e668261086a565b9150610e718361086a565b9250828202610e7f8161086a565b91508282048414831517610e9657610e95610a1e565b5b5092915050565b5f610ea78261086a565b9150610eb28361086a565b925082610ec257610ec1610d39565b5b82820490509291505056fea2646970667358221220779fb8cefc60a71a4b26881e4ba29e051ac00fbe37b2596eef04ffd8b83e3b1664736f6c634300081a0033",
					"opcodes": "PUSH1 0x80 PUSH1 0x40 MSTORE CALLVALUE DUP1 ISZERO PUSH1 0xE JUMPI PUSH0 DUP1 REVERT JUMPDEST POP CALLER PUSH0 DUP1 PUSH2 0x100 EXP DUP2 SLOAD DUP2 PUSH20 0xFFFFFFFFFFFFFFFFFFFFFFFFFFFFFFFFFFFFFFFF MUL NOT AND SWAP1 DUP4 PUSH20 0xFFFFFFFFFFFFFFFFFFFFFFFFFFFFFFFFFFFFFFFF AND MUL OR SWAP1 SSTORE POP PUSH20 0x694AA1769357215DE4FAC081BF1F309ADC325306 PUSH1 0x1 PUSH0 PUSH2 0x100 EXP DUP2 SLOAD DUP2 PUSH20 0xFFFFFFFFFFFFFFFFFFFFFFFFFFFFFFFFFFFFFFFF MUL NOT AND SWAP1 DUP4 PUSH20 0xFFFFFFFFFFFFFFFFFFFFFFFFFFFFFFFFFFFFFFFF AND MUL OR SWAP1 SSTORE POP PUSH2 0xF03 DUP1 PUSH2 0xAF PUSH0 CODECOPY PUSH0 RETURN INVALID PUSH1 0x80 PUSH1 0x40 MSTORE PUSH1 0x4 CALLDATASIZE LT PUSH2 0x7A JUMPI PUSH0 CALLDATALOAD PUSH1 0xE0 SHR DUP1 PUSH4 0x6F758140 GT PUSH2 0x4D JUMPI DUP1 PUSH4 0x6F758140 EQ PUSH2 0x138 JUMPI DUP1 PUSH4 0x9B56D6C9 EQ PUSH2 0x142 JUMPI DUP1 PUSH4 0xAE9E5380 EQ PUSH2 0x17F JUMPI DUP1 PUSH4 0xFB7CBD6C EQ PUSH2 0x1A9 JUMPI PUSH2 0x7A JUMP JUMPDEST DUP1 PUSH4 0x2A104D8D EQ PUSH2 0x7E JUMPI DUP1 PUSH4 0x5E5C06E2 EQ PUSH2 0xA6 JUMPI DUP1 PUSH4 0x6112FE2E EQ PUSH2 0xE6 JUMPI DUP1 PUSH4 0x67C9B017 EQ PUSH2 0x10E JUMPI JUMPDEST PUSH0 DUP1 REVERT JUMPDEST CALLVALUE DUP1 ISZERO PUSH2 0x89 JUMPI PUSH0 DUP1 REVERT JUMPDEST POP PUSH2 0xA4 PUSH1 0x4 DUP1 CALLDATASIZE SUB DUP2 ADD SWAP1 PUSH2 0x9F SWAP2 SWAP1 PUSH2 0x89D JUMP JUMPDEST PUSH2 0x1E5 JUMP JUMPDEST STOP JUMPDEST CALLVALUE DUP1 ISZERO PUSH2 0xB1 JUMPI PUSH0 DUP1 REVERT JUMPDEST POP PUSH2 0xCC PUSH1 0x4 DUP1 CALLDATASIZE SUB DUP2 ADD SWAP1 PUSH2 0xC7 SWAP2 SWAP1 PUSH2 0x922 JUMP JUMPDEST PUSH2 0x338 JUMP JUMPDEST PUSH1 0x40 MLOAD PUSH2 0xDD SWAP6 SWAP5 SWAP4 SWAP3 SWAP2 SWAP1 PUSH2 0x95C JUMP JUMPDEST PUSH1 0x40 MLOAD DUP1 SWAP2 SUB SWAP1 RETURN JUMPDEST CALLVALUE DUP1 ISZERO PUSH2 0xF1 JUMPI PUSH0 DUP1 REVERT JUMPDEST POP PUSH2 0x10C PUSH1 0x4 DUP1 CALLDATASIZE SUB DUP2 ADD SWAP1 PUSH2 0x107 SWAP2 SWAP1 PUSH2 0x89D JUMP JUMPDEST PUSH2 0x36A JUMP JUMPDEST STOP JUMPDEST CALLVALUE DUP1 ISZERO PUSH2 0x119 JUMPI PUSH0 DUP1 REVERT JUMPDEST POP PUSH2 0x122 PUSH2 0x53E JUMP JUMPDEST PUSH1 0x40 MLOAD PUSH2 0x12F SWAP2 SWAP1 PUSH2 0x9AD JUMP JUMPDEST PUSH1 0x40 MLOAD DUP1 SWAP2 SUB SWAP1 RETURN JUMPDEST PUSH2 0x140 PUSH2 0x5EF JUMP JUMPDEST STOP JUMPDEST CALLVALUE DUP1 ISZERO PUSH2 0x14D JUMPI PUSH0 DUP1 REVERT JUMPDEST POP PUSH2 0x168 PUSH1 0x4 DUP1 CALLDATASIZE SUB DUP2 ADD SWAP1 PUSH2 0x163 SWAP2 SWAP1 PUSH2 0x922 JUMP JUMPDEST PUSH2 0x726 JUMP JUMPDEST PUSH1 0x40 MLOAD PUSH2 0x176 SWAP3 SWAP2 SWAP1 PUSH2 0x9C6 JUMP JUMPDEST PUSH1 0x40 MLOAD DUP1 SWAP2 SUB SWAP1 RETURN JUMPDEST CALLVALUE DUP1 ISZERO PUSH2 0x18A JUMPI PUSH0 DUP1 REVERT JUMPDEST POP PUSH2 0x193 PUSH2 0x77B JUMP JUMPDEST PUSH1 0x40 MLOAD PUSH2 0x1A0 SWAP2 SWAP1 PUSH2 0xA05 JUMP JUMPDEST PUSH1 0x40 MLOAD DUP1 SWAP2 SUB SWAP1 RETURN JUMPDEST CALLVALUE DUP1 ISZERO PUSH2 0x1B4 JUMPI PUSH0 DUP1 REVERT JUMPDEST POP PUSH2 0x1CF PUSH1 0x4 DUP1 CALLDATASIZE SUB DUP2 ADD SWAP1 PUSH2 0x1CA SWAP2 SWAP1 PUSH2 0x922 JUMP JUMPDEST PUSH2 0x818 JUMP JUMPDEST PUSH1 0x40 MLOAD PUSH2 0x1DC SWAP2 SWAP1 PUSH2 0x9AD JUMP JUMPDEST PUSH1 0x40 MLOAD DUP1 SWAP2 SUB SWAP1 RETURN JUMPDEST PUSH0 PUSH1 0x2 PUSH0 CALLER PUSH20 0xFFFFFFFFFFFFFFFFFFFFFFFFFFFFFFFFFFFFFFFF AND PUSH20 0xFFFFFFFFFFFFFFFFFFFFFFFFFFFFFFFFFFFFFFFF AND DUP2 MSTORE PUSH1 0x20 ADD SWAP1 DUP2 MSTORE PUSH1 0x20 ADD PUSH0 KECCAK256 SWAP1 POP PUSH0 DUP2 PUSH1 0x3 ADD SLOAD GT PUSH2 0x234 JUMPI PUSH0 DUP1 REVERT JUMPDEST DUP2 DUP2 PUSH0 ADD PUSH0 DUP3 DUP3 SLOAD PUSH2 0x246 SWAP2 SWAP1 PUSH2 0xA4B JUMP JUMPDEST SWAP3 POP POP DUP2 SWAP1 SSTORE POP DUP2 DUP2 PUSH1 0x1 ADD PUSH0 DUP3 DUP3 SLOAD PUSH2 0x260 SWAP2 SWAP1 PUSH2 0xA7E JUMP JUMPDEST SWAP3 POP POP DUP2 SWAP1 SSTORE POP DUP2 DUP2 PUSH1 0x3 ADD PUSH0 DUP3 DUP3 SLOAD PUSH2 0x27A SWAP2 SWAP1 PUSH2 0xA4B JUMP JUMPDEST SWAP3 POP POP DUP2 SWAP1 SSTORE POP PUSH2 0x289 PUSH2 0x53E JUMP JUMPDEST DUP2 PUSH1 0x2 ADD PUSH0 DUP3 DUP3 SLOAD PUSH2 0x29B SWAP2 SWAP1 PUSH2 0xA7E JUMP JUMPDEST SWAP3 POP POP DUP2 SWAP1 SSTORE POP CALLER PUSH20 0xFFFFFFFFFFFFFFFFFFFFFFFFFFFFFFFFFFFFFFFF AND PUSH2 0x8FC DUP4 SWAP1 DUP2 ISZERO MUL SWAP1 PUSH1 0x40 MLOAD PUSH0 PUSH1 0x40 MLOAD DUP1 DUP4 SUB DUP2 DUP6 DUP9 DUP9 CALL SWAP4 POP POP POP POP ISZERO DUP1 ISZERO PUSH2 0x2E5 JUMPI RETURNDATASIZE PUSH0 DUP1 RETURNDATACOPY RETURNDATASIZE PUSH0 REVERT JUMPDEST POP CALLER PUSH20 0xFFFFFFFFFFFFFFFFFFFFFFFFFFFFFFFFFFFFFFFF AND PUSH32 0x9FC64C8EF100E2584CE71F7BB2F62474D1A63A9F3FC4D216BACEA670C289614A DUP4 PUSH1 0x40 MLOAD PUSH2 0x32C SWAP2 SWAP1 PUSH2 0x9AD JUMP JUMPDEST PUSH1 0x40 MLOAD DUP1 SWAP2 SUB SWAP1 LOG2 POP POP JUMP JUMPDEST PUSH1 0x2 PUSH1 0x20 MSTORE DUP1 PUSH0 MSTORE PUSH1 0x40 PUSH0 KECCAK256 PUSH0 SWAP2 POP SWAP1 POP DUP1 PUSH0 ADD SLOAD SWAP1 DUP1 PUSH1 0x1 ADD SLOAD SWAP1 DUP1 PUSH1 0x2 ADD SLOAD SWAP1 DUP1 PUSH1 0x3 ADD SLOAD SWAP1 DUP1 PUSH1 0x4 ADD SLOAD SWAP1 POP DUP6 JUMP JUMPDEST PUSH0 PUSH1 0x2 PUSH0 CALLER PUSH20 0xFFFFFFFFFFFFFFFFFFFFFFFFFFFFFFFFFFFFFFFF AND PUSH20 0xFFFFFFFFFFFFFFFFFFFFFFFFFFFFFFFFFFFFFFFF AND DUP2 MSTORE PUSH1 0x20 ADD SWAP1 DUP2 MSTORE PUSH1 0x20 ADD PUSH0 KECCAK256 SWAP1 POP PUSH0 DUP2 PUSH0 ADD SLOAD SWAP1 POP PUSH0 DUP2 GT PUSH2 0x3F3 JUMPI PUSH1 0x40 MLOAD PUSH32 0x8C379A000000000000000000000000000000000000000000000000000000000 DUP2 MSTORE PUSH1 0x4 ADD PUSH2 0x3EA SWAP1 PUSH2 0xB0B JUMP JUMPDEST PUSH1 0x40 MLOAD DUP1 SWAP2 SUB SWAP1 REVERT JUMPDEST PUSH0 DUP4 GT PUSH2 0x435 JUMPI PUSH1 0x40 MLOAD PUSH32 0x8C379A000000000000000000000000000000000000000000000000000000000 DUP2 MSTORE PUSH1 0x4 ADD PUSH2 0x42C SWAP1 PUSH2 0xB99 JUMP JUMPDEST PUSH1 0x40 MLOAD DUP1 SWAP2 SUB SWAP1 REVERT JUMPDEST DUP1 DUP4 GT ISZERO PUSH2 0x478 JUMPI PUSH1 0x40 MLOAD PUSH32 0x8C379A000000000000000000000000000000000000000000000000000000000 DUP2 MSTORE PUSH1 0x4 ADD PUSH2 0x46F SWAP1 PUSH2 0xC27 JUMP JUMPDEST PUSH1 0x40 MLOAD DUP1 SWAP2 SUB SWAP1 REVERT JUMPDEST DUP3 DUP3 PUSH0 ADD PUSH0 DUP3 DUP3 SLOAD PUSH2 0x48A SWAP2 SWAP1 PUSH2 0xA4B JUMP JUMPDEST SWAP3 POP POP DUP2 SWAP1 SSTORE POP PUSH0 DUP3 PUSH0 ADD SLOAD SUB PUSH2 0x4A5 JUMPI PUSH0 DUP3 PUSH1 0x4 ADD DUP2 SWAP1 SSTORE POP JUMPDEST CALLER PUSH20 0xFFFFFFFFFFFFFFFFFFFFFFFFFFFFFFFFFFFFFFFF AND PUSH2 0x8FC DUP5 SWAP1 DUP2 ISZERO MUL SWAP1 PUSH1 0x40 MLOAD PUSH0 PUSH1 0x40 MLOAD DUP1 DUP4 SUB DUP2 DUP6 DUP9 DUP9 CALL SWAP4 POP POP POP POP ISZERO DUP1 ISZERO PUSH2 0x4E8 JUMPI RETURNDATASIZE PUSH0 DUP1 RETURNDATACOPY RETURNDATASIZE PUSH0 REVERT JUMPDEST POP CALLER PUSH20 0xFFFFFFFFFFFFFFFFFFFFFFFFFFFFFFFFFFFFFFFF AND PUSH32 0xDAED309A628FAEC6CAB72194019E2A1A34E890CA9BF9BE99788992DD54692819 DUP5 TIMESTAMP PUSH1 0x40 MLOAD PUSH2 0x531 SWAP3 SWAP2 SWAP1 PUSH2 0x9C6 JUMP JUMPDEST PUSH1 0x40 MLOAD DUP1 SWAP2 SUB SWAP1 LOG2 POP POP POP JUMP JUMPDEST PUSH0 DUP1 PUSH1 0x1 PUSH0 SWAP1 SLOAD SWAP1 PUSH2 0x100 EXP SWAP1 DIV PUSH20 0xFFFFFFFFFFFFFFFFFFFFFFFFFFFFFFFFFFFFFFFF AND PUSH20 0xFFFFFFFFFFFFFFFFFFFFFFFFFFFFFFFFFFFFFFFF AND PUSH4 0xFEAF968C PUSH1 0x40 MLOAD DUP2 PUSH4 0xFFFFFFFF AND PUSH1 0xE0 SHL DUP2 MSTORE PUSH1 0x4 ADD PUSH1 0xA0 PUSH1 0x40 MLOAD DUP1 DUP4 SUB DUP2 DUP7 GAS STATICCALL ISZERO DUP1 ISZERO PUSH2 0x5AA JUMPI RETURNDATASIZE PUSH0 DUP1 RETURNDATACOPY RETURNDATASIZE PUSH0 REVERT JUMPDEST POP POP POP POP PUSH1 0x40 MLOAD RETURNDATASIZE PUSH1 0x1F NOT PUSH1 0x1F DUP3 ADD AND DUP3 ADD DUP1 PUSH1 0x40 MSTORE POP DUP2 ADD SWAP1 PUSH2 0x5CE SWAP2 SWAP1 PUSH2 0xCC2 JUMP JUMPDEST POP POP POP SWAP2 POP POP PUSH0 PUSH4 0x5F5E100 DUP3 PUSH2 0x5E5 SWAP2 SWAP1 PUSH2 0xD66 JUMP JUMPDEST SWAP1 POP DUP1 SWAP3 POP POP POP SWAP1 JUMP JUMPDEST PUSH0 CALLVALUE GT PUSH2 0x631 JUMPI PUSH1 0x40 MLOAD PUSH32 0x8C379A000000000000000000000000000000000000000000000000000000000 DUP2 MSTORE PUSH1 0x4 ADD PUSH2 0x628 SWAP1 PUSH2 0xE3E JUMP JUMPDEST PUSH1 0x40 MLOAD DUP1 SWAP2 SUB SWAP1 REVERT JUMPDEST PUSH0 PUSH1 0x2 PUSH0 CALLER PUSH20 0xFFFFFFFFFFFFFFFFFFFFFFFFFFFFFFFFFFFFFFFF AND PUSH20 0xFFFFFFFFFFFFFFFFFFFFFFFFFFFFFFFFFFFFFFFF AND DUP2 MSTORE PUSH1 0x20 ADD SWAP1 DUP2 MSTORE PUSH1 0x20 ADD PUSH0 KECCAK256 SWAP1 POP CALLVALUE DUP2 PUSH0 ADD PUSH0 DUP3 DUP3 SLOAD PUSH2 0x683 SWAP2 SWAP1 PUSH2 0xA7E JUMP JUMPDEST SWAP3 POP POP DUP2 SWAP1 SSTORE POP PUSH8 0xDE0B6B3A7640000 PUSH8 0xB1A2BC2EC500000 CALLVALUE PUSH2 0x6A7 SWAP2 SWAP1 PUSH2 0xE5C JUMP JUMPDEST PUSH2 0x6B1 SWAP2 SWAP1 PUSH2 0xE9D JUMP JUMPDEST DUP2 PUSH1 0x3 ADD PUSH0 DUP3 DUP3 SLOAD PUSH2 0x6C3 SWAP2 SWAP1 PUSH2 0xA7E JUMP JUMPDEST SWAP3 POP POP DUP2 SWAP1 SSTORE POP TIMESTAMP DUP2 PUSH1 0x4 ADD DUP2 SWAP1 SSTORE POP CALLER PUSH20 0xFFFFFFFFFFFFFFFFFFFFFFFFFFFFFFFFFFFFFFFF AND PUSH32 0xF4D587C98D234CA4D147061E6B5167E7F41EE17F11562A9F0B49570ABECE859E CALLVALUE TIMESTAMP PUSH1 0x40 MLOAD PUSH2 0x71B SWAP3 SWAP2 SWAP1 PUSH2 0x9C6 JUMP JUMPDEST PUSH1 0x40 MLOAD DUP1 SWAP2 SUB SWAP1 LOG2 POP JUMP JUMPDEST PUSH0 DUP1 PUSH0 PUSH1 0x2 PUSH0 DUP6 PUSH20 0xFFFFFFFFFFFFFFFFFFFFFFFFFFFFFFFFFFFFFFFF AND PUSH20 0xFFFFFFFFFFFFFFFFFFFFFFFFFFFFFFFFFFFFFFFF AND DUP2 MSTORE PUSH1 0x20 ADD SWAP1 DUP2 MSTORE PUSH1 0x20 ADD PUSH0 KECCAK256 SWAP1 POP DUP1 PUSH0 ADD SLOAD DUP2 PUSH1 0x4 ADD SLOAD SWAP3 POP SWAP3 POP POP SWAP2 POP SWAP2 JUMP JUMPDEST PUSH0 DUP1 PUSH1 0x2 PUSH0 CALLER PUSH20 0xFFFFFFFFFFFFFFFFFFFFFFFFFFFFFFFFFFFFFFFF AND PUSH20 0xFFFFFFFFFFFFFFFFFFFFFFFFFFFFFFFFFFFFFFFF AND DUP2 MSTORE PUSH1 0x20 ADD SWAP1 DUP2 MSTORE PUSH1 0x20 ADD PUSH0 KECCAK256 SWAP1 POP PUSH0 PUSH2 0x7C5 PUSH2 0x53E JUMP JUMPDEST DUP3 PUSH0 ADD SLOAD PUSH2 0x7D3 SWAP2 SWAP1 PUSH2 0xE5C JUMP JUMPDEST SWAP1 POP PUSH0 DUP3 PUSH1 0x1 ADD SLOAD PUSH8 0xB1A2BC2EC500000 DUP4 PUSH2 0x7EF SWAP2 SWAP1 PUSH2 0xE5C JUMP JUMPDEST PUSH2 0x7F9 SWAP2 SWAP1 PUSH2 0xE9D JUMP JUMPDEST SWAP1 POP PUSH0 PUSH4 0x5F5E100 DUP3 PUSH2 0x80C SWAP2 SWAP1 PUSH2 0xD66 JUMP JUMPDEST SWAP1 POP DUP1 SWAP5 POP POP POP POP POP SWAP1 JUMP JUMPDEST PUSH0 DUP1 PUSH1 0x2 PUSH0 DUP5 PUSH20 0xFFFFFFFFFFFFFFFFFFFFFFFFFFFFFFFFFFFFFFFF AND PUSH20 0xFFFFFFFFFFFFFFFFFFFFFFFFFFFFFFFFFFFFFFFF AND DUP2 MSTORE PUSH1 0x20 ADD SWAP1 DUP2 MSTORE PUSH1 0x20 ADD PUSH0 KECCAK256 SWAP1 POP DUP1 PUSH1 0x3 ADD SLOAD SWAP2 POP POP SWAP2 SWAP1 POP JUMP JUMPDEST PUSH0 DUP1 REVERT JUMPDEST PUSH0 DUP2 SWAP1 POP SWAP2 SWAP1 POP JUMP JUMPDEST PUSH2 0x87C DUP2 PUSH2 0x86A JUMP JUMPDEST DUP2 EQ PUSH2 0x886 JUMPI PUSH0 DUP1 REVERT JUMPDEST POP JUMP JUMPDEST PUSH0 DUP2 CALLDATALOAD SWAP1 POP PUSH2 0x897 DUP2 PUSH2 0x873 JUMP JUMPDEST SWAP3 SWAP2 POP POP JUMP JUMPDEST PUSH0 PUSH1 0x20 DUP3 DUP5 SUB SLT ISZERO PUSH2 0x8B2 JUMPI PUSH2 0x8B1 PUSH2 0x866 JUMP JUMPDEST JUMPDEST PUSH0 PUSH2 0x8BF DUP5 DUP3 DUP6 ADD PUSH2 0x889 JUMP JUMPDEST SWAP2 POP POP SWAP3 SWAP2 POP POP JUMP JUMPDEST PUSH0 PUSH20 0xFFFFFFFFFFFFFFFFFFFFFFFFFFFFFFFFFFFFFFFF DUP3 AND SWAP1 POP SWAP2 SWAP1 POP JUMP JUMPDEST PUSH0 PUSH2 0x8F1 DUP3 PUSH2 0x8C8 JUMP JUMPDEST SWAP1 POP SWAP2 SWAP1 POP JUMP JUMPDEST PUSH2 0x901 DUP2 PUSH2 0x8E7 JUMP JUMPDEST DUP2 EQ PUSH2 0x90B JUMPI PUSH0 DUP1 REVERT JUMPDEST POP JUMP JUMPDEST PUSH0 DUP2 CALLDATALOAD SWAP1 POP PUSH2 0x91C DUP2 PUSH2 0x8F8 JUMP JUMPDEST SWAP3 SWAP2 POP POP JUMP JUMPDEST PUSH0 PUSH1 0x20 DUP3 DUP5 SUB SLT ISZERO PUSH2 0x937 JUMPI PUSH2 0x936 PUSH2 0x866 JUMP JUMPDEST JUMPDEST PUSH0 PUSH2 0x944 DUP5 DUP3 DUP6 ADD PUSH2 0x90E JUMP JUMPDEST SWAP2 POP POP SWAP3 SWAP2 POP POP JUMP JUMPDEST PUSH2 0x956 DUP2 PUSH2 0x86A JUMP JUMPDEST DUP3 MSTORE POP POP JUMP JUMPDEST PUSH0 PUSH1 0xA0 DUP3 ADD SWAP1 POP PUSH2 0x96F PUSH0 DUP4 ADD DUP9 PUSH2 0x94D JUMP JUMPDEST PUSH2 0x97C PUSH1 0x20 DUP4 ADD DUP8 PUSH2 0x94D JUMP JUMPDEST PUSH2 0x989 PUSH1 0x40 DUP4 ADD DUP7 PUSH2 0x94D JUMP JUMPDEST PUSH2 0x996 PUSH1 0x60 DUP4 ADD DUP6 PUSH2 0x94D JUMP JUMPDEST PUSH2 0x9A3 PUSH1 0x80 DUP4 ADD DUP5 PUSH2 0x94D JUMP JUMPDEST SWAP7 SWAP6 POP POP POP POP POP POP JUMP JUMPDEST PUSH0 PUSH1 0x20 DUP3 ADD SWAP1 POP PUSH2 0x9C0 PUSH0 DUP4 ADD DUP5 PUSH2 0x94D JUMP JUMPDEST SWAP3 SWAP2 POP POP JUMP JUMPDEST PUSH0 PUSH1 0x40 DUP3 ADD SWAP1 POP PUSH2 0x9D9 PUSH0 DUP4 ADD DUP6 PUSH2 0x94D JUMP JUMPDEST PUSH2 0x9E6 PUSH1 0x20 DUP4 ADD DUP5 PUSH2 0x94D JUMP JUMPDEST SWAP4 SWAP3 POP POP POP JUMP JUMPDEST PUSH0 DUP2 SWAP1 POP SWAP2 SWAP1 POP JUMP JUMPDEST PUSH2 0x9FF DUP2 PUSH2 0x9ED JUMP JUMPDEST DUP3 MSTORE POP POP JUMP JUMPDEST PUSH0 PUSH1 0x20 DUP3 ADD SWAP1 POP PUSH2 0xA18 PUSH0 DUP4 ADD DUP5 PUSH2 0x9F6 JUMP JUMPDEST SWAP3 SWAP2 POP POP JUMP JUMPDEST PUSH32 0x4E487B7100000000000000000000000000000000000000000000000000000000 PUSH0 MSTORE PUSH1 0x11 PUSH1 0x4 MSTORE PUSH1 0x24 PUSH0 REVERT JUMPDEST PUSH0 PUSH2 0xA55 DUP3 PUSH2 0x86A JUMP JUMPDEST SWAP2 POP PUSH2 0xA60 DUP4 PUSH2 0x86A JUMP JUMPDEST SWAP3 POP DUP3 DUP3 SUB SWAP1 POP DUP2 DUP2 GT ISZERO PUSH2 0xA78 JUMPI PUSH2 0xA77 PUSH2 0xA1E JUMP JUMPDEST JUMPDEST SWAP3 SWAP2 POP POP JUMP JUMPDEST PUSH0 PUSH2 0xA88 DUP3 PUSH2 0x86A JUMP JUMPDEST SWAP2 POP PUSH2 0xA93 DUP4 PUSH2 0x86A JUMP JUMPDEST SWAP3 POP DUP3 DUP3 ADD SWAP1 POP DUP1 DUP3 GT ISZERO PUSH2 0xAAB JUMPI PUSH2 0xAAA PUSH2 0xA1E JUMP JUMPDEST JUMPDEST SWAP3 SWAP2 POP POP JUMP JUMPDEST PUSH0 DUP3 DUP3 MSTORE PUSH1 0x20 DUP3 ADD SWAP1 POP SWAP3 SWAP2 POP POP JUMP JUMPDEST PUSH32 0x4E6F20636F6C6C61746572616C20746F20776974686472617700000000000000 PUSH0 DUP3 ADD MSTORE POP JUMP JUMPDEST PUSH0 PUSH2 0xAF5 PUSH1 0x19 DUP4 PUSH2 0xAB1 JUMP JUMPDEST SWAP2 POP PUSH2 0xB00 DUP3 PUSH2 0xAC1 JUMP JUMPDEST PUSH1 0x20 DUP3 ADD SWAP1 POP SWAP2 SWAP1 POP JUMP JUMPDEST PUSH0 PUSH1 0x20 DUP3 ADD SWAP1 POP DUP2 DUP2 SUB PUSH0 DUP4 ADD MSTORE PUSH2 0xB22 DUP2 PUSH2 0xAE9 JUMP JUMPDEST SWAP1 POP SWAP2 SWAP1 POP JUMP JUMPDEST PUSH32 0x5769746864726177616C20616D6F756E74206D75737420626520677265617465 PUSH0 DUP3 ADD MSTORE PUSH32 0x72207468616E207A65726F000000000000000000000000000000000000000000 PUSH1 0x20 DUP3 ADD MSTORE POP JUMP JUMPDEST PUSH0 PUSH2 0xB83 PUSH1 0x2B DUP4 PUSH2 0xAB1 JUMP JUMPDEST SWAP2 POP PUSH2 0xB8E DUP3 PUSH2 0xB29 JUMP JUMPDEST PUSH1 0x40 DUP3 ADD SWAP1 POP SWAP2 SWAP1 POP JUMP JUMPDEST PUSH0 PUSH1 0x20 DUP3 ADD SWAP1 POP DUP2 DUP2 SUB PUSH0 DUP4 ADD MSTORE PUSH2 0xBB0 DUP2 PUSH2 0xB77 JUMP JUMPDEST SWAP1 POP SWAP2 SWAP1 POP JUMP JUMPDEST PUSH32 0x496E73756666696369656E7420636F6C6C61746572616C20746F207769746864 PUSH0 DUP3 ADD MSTORE PUSH32 0x726177207468697320616D6F756E740000000000000000000000000000000000 PUSH1 0x20 DUP3 ADD MSTORE POP JUMP JUMPDEST PUSH0 PUSH2 0xC11 PUSH1 0x2F DUP4 PUSH2 0xAB1 JUMP JUMPDEST SWAP2 POP PUSH2 0xC1C DUP3 PUSH2 0xBB7 JUMP JUMPDEST PUSH1 0x40 DUP3 ADD SWAP1 POP SWAP2 SWAP1 POP JUMP JUMPDEST PUSH0 PUSH1 0x20 DUP3 ADD SWAP1 POP DUP2 DUP2 SUB PUSH0 DUP4 ADD MSTORE PUSH2 0xC3E DUP2 PUSH2 0xC05 JUMP JUMPDEST SWAP1 POP SWAP2 SWAP1 POP JUMP JUMPDEST PUSH0 PUSH10 0xFFFFFFFFFFFFFFFFFFFF DUP3 AND SWAP1 POP SWAP2 SWAP1 POP JUMP JUMPDEST PUSH2 0xC63 DUP2 PUSH2 0xC45 JUMP JUMPDEST DUP2 EQ PUSH2 0xC6D JUMPI PUSH0 DUP1 REVERT JUMPDEST POP JUMP JUMPDEST PUSH0 DUP2 MLOAD SWAP1 POP PUSH2 0xC7E DUP2 PUSH2 0xC5A JUMP JUMPDEST SWAP3 SWAP2 POP POP JUMP JUMPDEST PUSH2 0xC8D DUP2 PUSH2 0x9ED JUMP JUMPDEST DUP2 EQ PUSH2 0xC97 JUMPI PUSH0 DUP1 REVERT JUMPDEST POP JUMP JUMPDEST PUSH0 DUP2 MLOAD SWAP1 POP PUSH2 0xCA8 DUP2 PUSH2 0xC84 JUMP JUMPDEST SWAP3 SWAP2 POP POP JUMP JUMPDEST PUSH0 DUP2 MLOAD SWAP1 POP PUSH2 0xCBC DUP2 PUSH2 0x873 JUMP JUMPDEST SWAP3 SWAP2 POP POP JUMP JUMPDEST PUSH0 DUP1 PUSH0 DUP1 PUSH0 PUSH1 0xA0 DUP7 DUP9 SUB SLT ISZERO PUSH2 0xCDB JUMPI PUSH2 0xCDA PUSH2 0x866 JUMP JUMPDEST JUMPDEST PUSH0 PUSH2 0xCE8 DUP9 DUP3 DUP10 ADD PUSH2 0xC70 JUMP JUMPDEST SWAP6 POP POP PUSH1 0x20 PUSH2 0xCF9 DUP9 DUP3 DUP10 ADD PUSH2 0xC9A JUMP JUMPDEST SWAP5 POP POP PUSH1 0x40 PUSH2 0xD0A DUP9 DUP3 DUP10 ADD PUSH2 0xCAE JUMP JUMPDEST SWAP4 POP POP PUSH1 0x60 PUSH2 0xD1B DUP9 DUP3 DUP10 ADD PUSH2 0xCAE JUMP JUMPDEST SWAP3 POP POP PUSH1 0x80 PUSH2 0xD2C DUP9 DUP3 DUP10 ADD PUSH2 0xC70 JUMP JUMPDEST SWAP2 POP POP SWAP3 SWAP6 POP SWAP3 SWAP6 SWAP1 SWAP4 POP JUMP JUMPDEST PUSH32 0x4E487B7100000000000000000000000000000000000000000000000000000000 PUSH0 MSTORE PUSH1 0x12 PUSH1 0x4 MSTORE PUSH1 0x24 PUSH0 REVERT JUMPDEST PUSH0 PUSH2 0xD70 DUP3 PUSH2 0x9ED JUMP JUMPDEST SWAP2 POP PUSH2 0xD7B DUP4 PUSH2 0x9ED JUMP JUMPDEST SWAP3 POP DUP3 PUSH2 0xD8B JUMPI PUSH2 0xD8A PUSH2 0xD39 JUMP JUMPDEST JUMPDEST PUSH1 0x1 PUSH0 SUB DUP4 EQ PUSH32 0x8000000000000000000000000000000000000000000000000000000000000000 DUP4 EQ AND ISZERO PUSH2 0xDC3 JUMPI PUSH2 0xDC2 PUSH2 0xA1E JUMP JUMPDEST JUMPDEST DUP3 DUP3 SDIV SWAP1 POP SWAP3 SWAP2 POP POP JUMP JUMPDEST PUSH32 0x4465706F73697420616D6F756E74206D75737420626520677265617465722074 PUSH0 DUP3 ADD MSTORE PUSH32 0x68616E207A65726F000000000000000000000000000000000000000000000000 PUSH1 0x20 DUP3 ADD MSTORE POP JUMP JUMPDEST PUSH0 PUSH2 0xE28 PUSH1 0x28 DUP4 PUSH2 0xAB1 JUMP JUMPDEST SWAP2 POP PUSH2 0xE33 DUP3 PUSH2 0xDCE JUMP JUMPDEST PUSH1 0x40 DUP3 ADD SWAP1 POP SWAP2 SWAP1 POP JUMP JUMPDEST PUSH0 PUSH1 0x20 DUP3 ADD SWAP1 POP DUP2 DUP2 SUB PUSH0 DUP4 ADD MSTORE PUSH2 0xE55 DUP2 PUSH2 0xE1C JUMP JUMPDEST SWAP1 POP SWAP2 SWAP1 POP JUMP JUMPDEST PUSH0 PUSH2 0xE66 DUP3 PUSH2 0x86A JUMP JUMPDEST SWAP2 POP PUSH2 0xE71 DUP4 PUSH2 0x86A JUMP JUMPDEST SWAP3 POP DUP3 DUP3 MUL PUSH2 0xE7F DUP2 PUSH2 0x86A JUMP JUMPDEST SWAP2 POP DUP3 DUP3 DIV DUP5 EQ DUP4 ISZERO OR PUSH2 0xE96 JUMPI PUSH2 0xE95 PUSH2 0xA1E JUMP JUMPDEST JUMPDEST POP SWAP3 SWAP2 POP POP JUMP JUMPDEST PUSH0 PUSH2 0xEA7 DUP3 PUSH2 0x86A JUMP JUMPDEST SWAP2 POP PUSH2 0xEB2 DUP4 PUSH2 0x86A JUMP JUMPDEST SWAP3 POP DUP3 PUSH2 0xEC2 JUMPI PUSH2 0xEC1 PUSH2 0xD39 JUMP JUMPDEST JUMPDEST DUP3 DUP3 DIV SWAP1 POP SWAP3 SWAP2 POP POP JUMP INVALID LOG2 PUSH5 0x6970667358 0x22 SLT KECCAK256 PUSH24 0x9FB8CEFC60A71A4B26881E4BA29E051AC00FBE37B2596EEF DIV SELFDESTRUCT 0xD8 0xB8 RETURNDATACOPY EXTCODESIZE AND PUSH5 0x736F6C6343 STOP ADDMOD BYTE STOP CALLER "
				},
				"gasEstimates": {
					"creation": {
						"codeDepositCost": "768600",
						"executionCost": "49334",
						"totalCost": "817934"
					},
					"external": {
						"accounts(address)": "infinite",
						"checkHealthFactor()": "infinite",
						"depositCollateral()": "infinite",
						"getAvailableAmountLoan(address)": "2914",
						"getCollateral(address)": "infinite",
						"getEthPrice()": "infinite",
						"withdrawCollateral(uint256)": "infinite",
						"withdrawLoan(uint256)": "infinite"
					}
				},
				"methodIdentifiers": {
					"accounts(address)": "5e5c06e2",
					"checkHealthFactor()": "ae9e5380",
					"depositCollateral()": "6f758140",
					"getAvailableAmountLoan(address)": "fb7cbd6c",
					"getCollateral(address)": "9b56d6c9",
					"getEthPrice()": "67c9b017",
					"withdrawCollateral(uint256)": "6112fe2e",
					"withdrawLoan(uint256)": "2a104d8d"
				}
			},
			"storageLayout": {
				"storage": [
					{
						"astId": 51,
						"contract": "contracts/app.sol:DefiChanges",
						"label": "owner",
						"offset": 0,
						"slot": "0",
						"type": "t_address"
					},
					{
						"astId": 57,
						"contract": "contracts/app.sol:DefiChanges",
						"label": "dataFeed",
						"offset": 0,
						"slot": "1",
						"type": "t_contract(AggregatorV3Interface)45"
					},
					{
						"astId": 88,
						"contract": "contracts/app.sol:DefiChanges",
						"label": "accounts",
						"offset": 0,
						"slot": "2",
						"type": "t_mapping(t_address,t_struct(Account)68_storage)"
					}
				],
				"types": {
					"t_address": {
						"encoding": "inplace",
						"label": "address",
						"numberOfBytes": "20"
					},
					"t_contract(AggregatorV3Interface)45": {
						"encoding": "inplace",
						"label": "contract AggregatorV3Interface",
						"numberOfBytes": "20"
					},
					"t_mapping(t_address,t_struct(Account)68_storage)": {
						"encoding": "mapping",
						"key": "t_address",
						"label": "mapping(address => struct DefiChanges.Account)",
						"numberOfBytes": "32",
						"value": "t_struct(Account)68_storage"
					},
					"t_struct(Account)68_storage": {
						"encoding": "inplace",
						"label": "struct DefiChanges.Account",
						"members": [
							{
								"astId": 59,
								"contract": "contracts/app.sol:DefiChanges",
								"label": "amount",
								"offset": 0,
								"slot": "0",
								"type": "t_uint256"
							},
							{
								"astId": 61,
								"contract": "contracts/app.sol:DefiChanges",
								"label": "amountLoan",
								"offset": 0,
								"slot": "1",
								"type": "t_uint256"
							},
							{
								"astId": 63,
								"contract": "contracts/app.sol:DefiChanges",
								"label": "loanAtPrice",
								"offset": 0,
								"slot": "2",
								"type": "t_uint256"
							},
							{
								"astId": 65,
								"contract": "contracts/app.sol:DefiChanges",
								"label": "availableAmountLoan",
								"offset": 0,
								"slot": "3",
								"type": "t_uint256"
							},
							{
								"astId": 67,
								"contract": "contracts/app.sol:DefiChanges",
								"label": "timestamp",
								"offset": 0,
								"slot": "4",
								"type": "t_uint256"
							}
						],
						"numberOfBytes": "160"
					},
					"t_uint256": {
						"encoding": "inplace",
						"label": "uint256",
						"numberOfBytes": "32"
					}
				}
			},
			"userdoc": {
				"kind": "user",
				"methods": {},
				"version": 1
			}
		}
	}
}