{
	"contracts/app.sol": {
		"DefiChanges": {
			"abi": [
				{
					"inputs": [],
					"stateMutability": "nonpayable",
					"type": "constructor"
				},
				{
					"anonymous": false,
					"inputs": [
						{
							"indexed": true,
							"internalType": "address",
							"name": "user",
							"type": "address"
						},
						{
							"indexed": false,
							"internalType": "uint256",
							"name": "amount",
							"type": "uint256"
						},
						{
							"indexed": false,
							"internalType": "uint256",
							"name": "timestamp",
							"type": "uint256"
						}
					],
					"name": "CollateralDeposited",
					"type": "event"
				},
				{
					"anonymous": false,
					"inputs": [
						{
							"indexed": true,
							"internalType": "address",
							"name": "user",
							"type": "address"
						},
						{
							"indexed": false,
							"internalType": "uint256",
							"name": "amount",
							"type": "uint256"
						},
						{
							"indexed": false,
							"internalType": "uint256",
							"name": "timestamp",
							"type": "uint256"
						}
					],
					"name": "CollateralWithdrawn",
					"type": "event"
				},
				{
					"anonymous": false,
					"inputs": [
						{
							"indexed": true,
							"internalType": "address",
							"name": "user",
							"type": "address"
						},
						{
							"indexed": false,
							"internalType": "uint256",
							"name": "amount",
							"type": "uint256"
						}
					],
					"name": "LoanWithdraw",
					"type": "event"
				},
				{
					"inputs": [
						{
							"internalType": "address",
							"name": "",
							"type": "address"
						}
					],
					"name": "accounts",
					"outputs": [
						{
							"internalType": "uint256",
							"name": "amount",
							"type": "uint256"
						},
						{
							"internalType": "uint256",
							"name": "amountLoan",
							"type": "uint256"
						},
						{
							"internalType": "uint256",
							"name": "availableAmountLoan",
							"type": "uint256"
						},
						{
							"internalType": "uint256",
							"name": "timestamp",
							"type": "uint256"
						}
					],
					"stateMutability": "view",
					"type": "function"
				},
				{
					"inputs": [],
					"name": "depositCollateral",
					"outputs": [],
					"stateMutability": "payable",
					"type": "function"
				},
				{
					"inputs": [
						{
							"internalType": "address",
							"name": "user",
							"type": "address"
						}
					],
					"name": "getAvailableAmountLoan",
					"outputs": [
						{
							"internalType": "uint256",
							"name": "amount",
							"type": "uint256"
						}
					],
					"stateMutability": "view",
					"type": "function"
				},
				{
					"inputs": [
						{
							"internalType": "address",
							"name": "user",
							"type": "address"
						}
					],
					"name": "getCollateral",
					"outputs": [
						{
							"internalType": "uint256",
							"name": "amount",
							"type": "uint256"
						},
						{
							"internalType": "uint256",
							"name": "timestamp",
							"type": "uint256"
						}
					],
					"stateMutability": "view",
					"type": "function"
				},
				{
					"inputs": [
						{
							"internalType": "uint256",
							"name": "withdrawAmount",
							"type": "uint256"
						}
					],
					"name": "withdrawCollateral",
					"outputs": [],
					"stateMutability": "nonpayable",
					"type": "function"
				},
				{
					"inputs": [
						{
							"internalType": "uint256",
							"name": "amount",
							"type": "uint256"
						}
					],
					"name": "withdrawLoan",
					"outputs": [],
					"stateMutability": "nonpayable",
					"type": "function"
				}
			],
			"devdoc": {
				"kind": "dev",
				"methods": {},
				"version": 1
			},
			"evm": {
				"assembly": "    /* \"contracts/app.sol\":61:2618  contract DefiChanges {... */\n  mstore(0x40, 0x80)\n    /* \"contracts/app.sol\":346:396  constructor(){... */\n  callvalue\n  dup1\n  iszero\n  tag_1\n  jumpi\n  0x00\n  dup1\n  revert\ntag_1:\n  pop\n    /* \"contracts/app.sol\":378:388  msg.sender */\n  caller\n    /* \"contracts/app.sol\":370:375  owner */\n  0x00\n  dup1\n    /* \"contracts/app.sol\":370:388  owner = msg.sender */\n  0x0100\n  exp\n  dup2\n  sload\n  dup2\n  0xffffffffffffffffffffffffffffffffffffffff\n  mul\n  not\n  and\n  swap1\n  dup4\n  0xffffffffffffffffffffffffffffffffffffffff\n  and\n  mul\n  or\n  swap1\n  sstore\n  pop\n    /* \"contracts/app.sol\":61:2618  contract DefiChanges {... */\n  dataSize(sub_0)\n  dup1\n  dataOffset(sub_0)\n  0x00\n  codecopy\n  0x00\n  return\nstop\n\nsub_0: assembly {\n        /* \"contracts/app.sol\":61:2618  contract DefiChanges {... */\n      mstore(0x40, 0x80)\n      jumpi(tag_1, lt(calldatasize, 0x04))\n      shr(0xe0, calldataload(0x00))\n      dup1\n      0x2a104d8d\n      eq\n      tag_2\n      jumpi\n      dup1\n      0x5e5c06e2\n      eq\n      tag_3\n      jumpi\n      dup1\n      0x6112fe2e\n      eq\n      tag_4\n      jumpi\n      dup1\n      0x6f758140\n      eq\n      tag_5\n      jumpi\n      dup1\n      0x9b56d6c9\n      eq\n      tag_6\n      jumpi\n      dup1\n      0xfb7cbd6c\n      eq\n      tag_7\n      jumpi\n    tag_1:\n      0x00\n      dup1\n      revert\n        /* \"contracts/app.sol\":2225:2611  function withdrawLoan(uint256 amount) external {... */\n    tag_2:\n      callvalue\n      dup1\n      iszero\n      tag_8\n      jumpi\n      0x00\n      dup1\n      revert\n    tag_8:\n      pop\n      tag_9\n      0x04\n      dup1\n      calldatasize\n      sub\n      dup2\n      add\n      swap1\n      tag_10\n      swap2\n      swap1\n      tag_11\n      jump\t// in\n    tag_10:\n      tag_12\n      jump\t// in\n    tag_9:\n      stop\n        /* \"contracts/app.sol\":404:447  mapping(address => Account) public accounts */\n    tag_3:\n      callvalue\n      dup1\n      iszero\n      tag_13\n      jumpi\n      0x00\n      dup1\n      revert\n    tag_13:\n      pop\n      tag_14\n      0x04\n      dup1\n      calldatasize\n      sub\n      dup2\n      add\n      swap1\n      tag_15\n      swap2\n      swap1\n      tag_16\n      jump\t// in\n    tag_15:\n      tag_17\n      jump\t// in\n    tag_14:\n      mload(0x40)\n      tag_18\n      swap5\n      swap4\n      swap3\n      swap2\n      swap1\n      tag_19\n      jump\t// in\n    tag_18:\n      mload(0x40)\n      dup1\n      swap2\n      sub\n      swap1\n      return\n        /* \"contracts/app.sol\":1128:1804  function withdrawCollateral(uint256 withdrawAmount) external {... */\n    tag_4:\n      callvalue\n      dup1\n      iszero\n      tag_20\n      jumpi\n      0x00\n      dup1\n      revert\n    tag_20:\n      pop\n      tag_21\n      0x04\n      dup1\n      calldatasize\n      sub\n      dup2\n      add\n      swap1\n      tag_22\n      swap2\n      swap1\n      tag_11\n      jump\t// in\n    tag_22:\n      tag_23\n      jump\t// in\n    tag_21:\n      stop\n        /* \"contracts/app.sol\":697:1120  function depositCollateral() external payable {... */\n    tag_5:\n      tag_24\n      tag_25\n      jump\t// in\n    tag_24:\n      stop\n        /* \"contracts/app.sol\":1812:2019  function getCollateral(address user) external view returns (uint256 amount, uint256 timestamp) {... */\n    tag_6:\n      callvalue\n      dup1\n      iszero\n      tag_26\n      jumpi\n      0x00\n      dup1\n      revert\n    tag_26:\n      pop\n      tag_27\n      0x04\n      dup1\n      calldatasize\n      sub\n      dup2\n      add\n      swap1\n      tag_28\n      swap2\n      swap1\n      tag_16\n      jump\t// in\n    tag_28:\n      tag_29\n      jump\t// in\n    tag_27:\n      mload(0x40)\n      tag_30\n      swap3\n      swap2\n      swap1\n      tag_31\n      jump\t// in\n    tag_30:\n      mload(0x40)\n      dup1\n      swap2\n      sub\n      swap1\n      return\n        /* \"contracts/app.sol\":2027:2217  function getAvailableAmountLoan(address user) external view returns (uint256 amount){... */\n    tag_7:\n      callvalue\n      dup1\n      iszero\n      tag_32\n      jumpi\n      0x00\n      dup1\n      revert\n    tag_32:\n      pop\n      tag_33\n      0x04\n      dup1\n      calldatasize\n      sub\n      dup2\n      add\n      swap1\n      tag_34\n      swap2\n      swap1\n      tag_16\n      jump\t// in\n    tag_34:\n      tag_35\n      jump\t// in\n    tag_33:\n      mload(0x40)\n      tag_36\n      swap2\n      swap1\n      tag_37\n      jump\t// in\n    tag_36:\n      mload(0x40)\n      dup1\n      swap2\n      sub\n      swap1\n      return\n        /* \"contracts/app.sol\":2225:2611  function withdrawLoan(uint256 amount) external {... */\n    tag_12:\n        /* \"contracts/app.sol\":2283:2306  Account storage account */\n      0x00\n        /* \"contracts/app.sol\":2309:2317  accounts */\n      0x01\n        /* \"contracts/app.sol\":2309:2329  accounts[msg.sender] */\n      0x00\n        /* \"contracts/app.sol\":2318:2328  msg.sender */\n      caller\n        /* \"contracts/app.sol\":2309:2329  accounts[msg.sender] */\n      0xffffffffffffffffffffffffffffffffffffffff\n      and\n      0xffffffffffffffffffffffffffffffffffffffff\n      and\n      dup2\n      mstore\n      0x20\n      add\n      swap1\n      dup2\n      mstore\n      0x20\n      add\n      0x00\n      keccak256\n        /* \"contracts/app.sol\":2283:2329  Account storage account = accounts[msg.sender] */\n      swap1\n      pop\n        /* \"contracts/app.sol\":2378:2379  0 */\n      0x00\n        /* \"contracts/app.sol\":2348:2355  account */\n      dup2\n        /* \"contracts/app.sol\":2348:2375  account.availableAmountLoan */\n      0x02\n      add\n      sload\n        /* \"contracts/app.sol\":2348:2379  account.availableAmountLoan > 0 */\n      gt\n        /* \"contracts/app.sol\":2340:2380  require(account.availableAmountLoan > 0) */\n      tag_39\n      jumpi\n      0x00\n      dup1\n      revert\n    tag_39:\n        /* \"contracts/app.sol\":2411:2417  amount */\n      dup2\n        /* \"contracts/app.sol\":2393:2400  account */\n      dup2\n        /* \"contracts/app.sol\":2393:2407  account.amount */\n      0x00\n      add\n      0x00\n        /* \"contracts/app.sol\":2393:2417  account.amount -= amount */\n      dup3\n      dup3\n      sload\n      tag_40\n      swap2\n      swap1\n      tag_41\n      jump\t// in\n    tag_40:\n      swap3\n      pop\n      pop\n      dup2\n      swap1\n      sstore\n      pop\n        /* \"contracts/app.sol\":2450:2456  amount */\n      dup2\n        /* \"contracts/app.sol\":2428:2435  account */\n      dup2\n        /* \"contracts/app.sol\":2428:2446  account.amountLoan */\n      0x01\n      add\n      0x00\n        /* \"contracts/app.sol\":2428:2456  account.amountLoan += amount */\n      dup3\n      dup3\n      sload\n      tag_42\n      swap2\n      swap1\n      tag_43\n      jump\t// in\n    tag_42:\n      swap3\n      pop\n      pop\n      dup2\n      swap1\n      sstore\n      pop\n        /* \"contracts/app.sol\":2498:2504  amount */\n      dup2\n        /* \"contracts/app.sol\":2467:2474  account */\n      dup2\n        /* \"contracts/app.sol\":2467:2494  account.availableAmountLoan */\n      0x02\n      add\n      0x00\n        /* \"contracts/app.sol\":2467:2504  account.availableAmountLoan -= amount */\n      dup3\n      dup3\n      sload\n      tag_44\n      swap2\n      swap1\n      tag_41\n      jump\t// in\n    tag_44:\n      swap3\n      pop\n      pop\n      dup2\n      swap1\n      sstore\n      pop\n        /* \"contracts/app.sol\":2525:2535  msg.sender */\n      caller\n        /* \"contracts/app.sol\":2517:2545  payable(msg.sender).transfer */\n      0xffffffffffffffffffffffffffffffffffffffff\n      and\n        /* \"contracts/app.sol\":2517:2553  payable(msg.sender).transfer(amount) */\n      0x08fc\n        /* \"contracts/app.sol\":2546:2552  amount */\n      dup4\n        /* \"contracts/app.sol\":2517:2553  payable(msg.sender).transfer(amount) */\n      swap1\n      dup2\n      iszero\n      mul\n      swap1\n      mload(0x40)\n      0x00\n      mload(0x40)\n      dup1\n      dup4\n      sub\n      dup2\n      dup6\n      dup9\n      dup9\n      call\n      swap4\n      pop\n      pop\n      pop\n      pop\n      iszero\n      dup1\n      iszero\n      tag_46\n      jumpi\n      returndatasize\n      0x00\n      dup1\n      returndatacopy\n      revert(0x00, returndatasize)\n    tag_46:\n      pop\n        /* \"contracts/app.sol\":2584:2594  msg.sender */\n      caller\n        /* \"contracts/app.sol\":2571:2603  LoanWithdraw(msg.sender, amount) */\n      0xffffffffffffffffffffffffffffffffffffffff\n      and\n      0x9fc64c8ef100e2584ce71f7bb2f62474d1a63a9f3fc4d216bacea670c289614a\n        /* \"contracts/app.sol\":2596:2602  amount */\n      dup4\n        /* \"contracts/app.sol\":2571:2603  LoanWithdraw(msg.sender, amount) */\n      mload(0x40)\n      tag_47\n      swap2\n      swap1\n      tag_37\n      jump\t// in\n    tag_47:\n      mload(0x40)\n      dup1\n      swap2\n      sub\n      swap1\n      log2\n        /* \"contracts/app.sol\":2272:2611  {... */\n      pop\n        /* \"contracts/app.sol\":2225:2611  function withdrawLoan(uint256 amount) external {... */\n      pop\n      jump\t// out\n        /* \"contracts/app.sol\":404:447  mapping(address => Account) public accounts */\n    tag_17:\n      mstore(0x20, 0x01)\n      dup1\n      0x00\n      mstore\n      keccak256(0x00, 0x40)\n      0x00\n      swap2\n      pop\n      swap1\n      pop\n      dup1\n      0x00\n      add\n      sload\n      swap1\n      dup1\n      0x01\n      add\n      sload\n      swap1\n      dup1\n      0x02\n      add\n      sload\n      swap1\n      dup1\n      0x03\n      add\n      sload\n      swap1\n      pop\n      dup5\n      jump\t// out\n        /* \"contracts/app.sol\":1128:1804  function withdrawCollateral(uint256 withdrawAmount) external {... */\n    tag_23:\n        /* \"contracts/app.sol\":1200:1223  Account storage account */\n      0x00\n        /* \"contracts/app.sol\":1226:1234  accounts */\n      0x01\n        /* \"contracts/app.sol\":1226:1246  accounts[msg.sender] */\n      0x00\n        /* \"contracts/app.sol\":1235:1245  msg.sender */\n      caller\n        /* \"contracts/app.sol\":1226:1246  accounts[msg.sender] */\n      0xffffffffffffffffffffffffffffffffffffffff\n      and\n      0xffffffffffffffffffffffffffffffffffffffff\n      and\n      dup2\n      mstore\n      0x20\n      add\n      swap1\n      dup2\n      mstore\n      0x20\n      add\n      0x00\n      keccak256\n        /* \"contracts/app.sol\":1200:1246  Account storage account = accounts[msg.sender] */\n      swap1\n      pop\n        /* \"contracts/app.sol\":1257:1271  uint256 amount */\n      0x00\n        /* \"contracts/app.sol\":1274:1281  account */\n      dup2\n        /* \"contracts/app.sol\":1274:1288  account.amount */\n      0x00\n      add\n      sload\n        /* \"contracts/app.sol\":1257:1288  uint256 amount = account.amount */\n      swap1\n      pop\n        /* \"contracts/app.sol\":1316:1317  0 */\n      0x00\n        /* \"contracts/app.sol\":1307:1313  amount */\n      dup2\n        /* \"contracts/app.sol\":1307:1317  amount > 0 */\n      gt\n        /* \"contracts/app.sol\":1299:1347  require(amount > 0, \"No collateral to withdraw\") */\n      tag_49\n      jumpi\n      mload(0x40)\n      0x08c379a000000000000000000000000000000000000000000000000000000000\n      dup2\n      mstore\n      0x04\n      add\n      tag_50\n      swap1\n      tag_51\n      jump\t// in\n    tag_50:\n      mload(0x40)\n      dup1\n      swap2\n      sub\n      swap1\n      revert\n    tag_49:\n        /* \"contracts/app.sol\":1383:1384  0 */\n      0x00\n        /* \"contracts/app.sol\":1366:1380  withdrawAmount */\n      dup4\n        /* \"contracts/app.sol\":1366:1384  withdrawAmount > 0 */\n      gt\n        /* \"contracts/app.sol\":1358:1432  require(withdrawAmount > 0, \"Withdrawal amount must be greater than zero\") */\n      tag_52\n      jumpi\n      mload(0x40)\n      0x08c379a000000000000000000000000000000000000000000000000000000000\n      dup2\n      mstore\n      0x04\n      add\n      tag_53\n      swap1\n      tag_54\n      jump\t// in\n    tag_53:\n      mload(0x40)\n      dup1\n      swap2\n      sub\n      swap1\n      revert\n    tag_52:\n        /* \"contracts/app.sol\":1469:1475  amount */\n      dup1\n        /* \"contracts/app.sol\":1451:1465  withdrawAmount */\n      dup4\n        /* \"contracts/app.sol\":1451:1475  withdrawAmount <= amount */\n      gt\n      iszero\n        /* \"contracts/app.sol\":1443:1527  require(withdrawAmount <= amount, \"Insufficient collateral to withdraw this amount\") */\n      tag_55\n      jumpi\n      mload(0x40)\n      0x08c379a000000000000000000000000000000000000000000000000000000000\n      dup2\n      mstore\n      0x04\n      add\n      tag_56\n      swap1\n      tag_57\n      jump\t// in\n    tag_56:\n      mload(0x40)\n      dup1\n      swap2\n      sub\n      swap1\n      revert\n    tag_55:\n        /* \"contracts/app.sol\":1558:1572  withdrawAmount */\n      dup3\n        /* \"contracts/app.sol\":1540:1547  account */\n      dup3\n        /* \"contracts/app.sol\":1540:1554  account.amount */\n      0x00\n      add\n      0x00\n        /* \"contracts/app.sol\":1540:1572  account.amount -= withdrawAmount */\n      dup3\n      dup3\n      sload\n      tag_58\n      swap2\n      swap1\n      tag_41\n      jump\t// in\n    tag_58:\n      swap3\n      pop\n      pop\n      dup2\n      swap1\n      sstore\n      pop\n        /* \"contracts/app.sol\":1607:1608  0 */\n      0x00\n        /* \"contracts/app.sol\":1589:1596  account */\n      dup3\n        /* \"contracts/app.sol\":1589:1603  account.amount */\n      0x00\n      add\n      sload\n        /* \"contracts/app.sol\":1589:1608  account.amount == 0 */\n      sub\n        /* \"contracts/app.sol\":1585:1658  if (account.amount == 0) {... */\n      tag_59\n      jumpi\n        /* \"contracts/app.sol\":1645:1646  0 */\n      0x00\n        /* \"contracts/app.sol\":1625:1632  account */\n      dup3\n        /* \"contracts/app.sol\":1625:1642  account.timestamp */\n      0x03\n      add\n        /* \"contracts/app.sol\":1625:1646  account.timestamp = 0 */\n      dup2\n      swap1\n      sstore\n      pop\n        /* \"contracts/app.sol\":1585:1658  if (account.amount == 0) {... */\n    tag_59:\n        /* \"contracts/app.sol\":1678:1688  msg.sender */\n      caller\n        /* \"contracts/app.sol\":1670:1698  payable(msg.sender).transfer */\n      0xffffffffffffffffffffffffffffffffffffffff\n      and\n        /* \"contracts/app.sol\":1670:1714  payable(msg.sender).transfer(withdrawAmount) */\n      0x08fc\n        /* \"contracts/app.sol\":1699:1713  withdrawAmount */\n      dup5\n        /* \"contracts/app.sol\":1670:1714  payable(msg.sender).transfer(withdrawAmount) */\n      swap1\n      dup2\n      iszero\n      mul\n      swap1\n      mload(0x40)\n      0x00\n      mload(0x40)\n      dup1\n      dup4\n      sub\n      dup2\n      dup6\n      dup9\n      dup9\n      call\n      swap4\n      pop\n      pop\n      pop\n      pop\n      iszero\n      dup1\n      iszero\n      tag_61\n      jumpi\n      returndatasize\n      0x00\n      dup1\n      returndatacopy\n      revert(0x00, returndatasize)\n    tag_61:\n      pop\n        /* \"contracts/app.sol\":1752:1762  msg.sender */\n      caller\n        /* \"contracts/app.sol\":1732:1796  CollateralWithdrawn(msg.sender, withdrawAmount, block.timestamp) */\n      0xffffffffffffffffffffffffffffffffffffffff\n      and\n      0xdaed309a628faec6cab72194019e2a1a34e890ca9bf9be99788992dd54692819\n        /* \"contracts/app.sol\":1764:1778  withdrawAmount */\n      dup5\n        /* \"contracts/app.sol\":1780:1795  block.timestamp */\n      timestamp\n        /* \"contracts/app.sol\":1732:1796  CollateralWithdrawn(msg.sender, withdrawAmount, block.timestamp) */\n      mload(0x40)\n      tag_62\n      swap3\n      swap2\n      swap1\n      tag_31\n      jump\t// in\n    tag_62:\n      mload(0x40)\n      dup1\n      swap2\n      sub\n      swap1\n      log2\n        /* \"contracts/app.sol\":1189:1804  {... */\n      pop\n      pop\n        /* \"contracts/app.sol\":1128:1804  function withdrawCollateral(uint256 withdrawAmount) external {... */\n      pop\n      jump\t// out\n        /* \"contracts/app.sol\":697:1120  function depositCollateral() external payable {... */\n    tag_25:\n        /* \"contracts/app.sol\":774:775  0 */\n      0x00\n        /* \"contracts/app.sol\":762:771  msg.value */\n      callvalue\n        /* \"contracts/app.sol\":762:775  msg.value > 0 */\n      gt\n        /* \"contracts/app.sol\":754:820  require(msg.value > 0, \"Deposit amount must be greater than zero\") */\n      tag_64\n      jumpi\n      mload(0x40)\n      0x08c379a000000000000000000000000000000000000000000000000000000000\n      dup2\n      mstore\n      0x04\n      add\n      tag_65\n      swap1\n      tag_66\n      jump\t// in\n    tag_65:\n      mload(0x40)\n      dup1\n      swap2\n      sub\n      swap1\n      revert\n    tag_64:\n        /* \"contracts/app.sol\":833:856  Account storage account */\n      0x00\n        /* \"contracts/app.sol\":859:867  accounts */\n      0x01\n        /* \"contracts/app.sol\":859:879  accounts[msg.sender] */\n      0x00\n        /* \"contracts/app.sol\":868:878  msg.sender */\n      caller\n        /* \"contracts/app.sol\":859:879  accounts[msg.sender] */\n      0xffffffffffffffffffffffffffffffffffffffff\n      and\n      0xffffffffffffffffffffffffffffffffffffffff\n      and\n      dup2\n      mstore\n      0x20\n      add\n      swap1\n      dup2\n      mstore\n      0x20\n      add\n      0x00\n      keccak256\n        /* \"contracts/app.sol\":833:879  Account storage account = accounts[msg.sender] */\n      swap1\n      pop\n        /* \"contracts/app.sol\":908:917  msg.value */\n      callvalue\n        /* \"contracts/app.sol\":890:897  account */\n      dup2\n        /* \"contracts/app.sol\":890:904  account.amount */\n      0x00\n      add\n      0x00\n        /* \"contracts/app.sol\":890:917  account.amount += msg.value */\n      dup3\n      dup3\n      sload\n      tag_67\n      swap2\n      swap1\n      tag_43\n      jump\t// in\n    tag_67:\n      swap3\n      pop\n      pop\n      dup2\n      swap1\n      sstore\n      pop\n        /* \"contracts/app.sol\":985:989  1e18 */\n      0x0de0b6b3a7640000\n        /* \"contracts/app.sol\":156:160  5e17 */\n      0x06f05b59d3b20000\n        /* \"contracts/app.sol\":960:969  msg.value */\n      callvalue\n        /* \"contracts/app.sol\":960:983  msg.value * loanPercent */\n      tag_68\n      swap2\n      swap1\n      tag_69\n      jump\t// in\n    tag_68:\n        /* \"contracts/app.sol\":959:989  (msg.value * loanPercent)/1e18 */\n      tag_70\n      swap2\n      swap1\n      tag_71\n      jump\t// in\n    tag_70:\n        /* \"contracts/app.sol\":928:935  account */\n      dup2\n        /* \"contracts/app.sol\":928:955  account.availableAmountLoan */\n      0x02\n      add\n      0x00\n        /* \"contracts/app.sol\":928:989  account.availableAmountLoan += (msg.value * loanPercent)/1e18 */\n      dup3\n      dup3\n      sload\n      tag_72\n      swap2\n      swap1\n      tag_43\n      jump\t// in\n    tag_72:\n      swap3\n      pop\n      pop\n      dup2\n      swap1\n      sstore\n      pop\n        /* \"contracts/app.sol\":1020:1035  block.timestamp */\n      timestamp\n        /* \"contracts/app.sol\":1000:1007  account */\n      dup2\n        /* \"contracts/app.sol\":1000:1017  account.timestamp */\n      0x03\n      add\n        /* \"contracts/app.sol\":1000:1035  account.timestamp = block.timestamp */\n      dup2\n      swap1\n      sstore\n      pop\n        /* \"contracts/app.sol\":1073:1083  msg.sender */\n      caller\n        /* \"contracts/app.sol\":1053:1112  CollateralDeposited(msg.sender, msg.value, block.timestamp) */\n      0xffffffffffffffffffffffffffffffffffffffff\n      and\n      0xf4d587c98d234ca4d147061e6b5167e7f41ee17f11562a9f0b49570abece859e\n        /* \"contracts/app.sol\":1085:1094  msg.value */\n      callvalue\n        /* \"contracts/app.sol\":1096:1111  block.timestamp */\n      timestamp\n        /* \"contracts/app.sol\":1053:1112  CollateralDeposited(msg.sender, msg.value, block.timestamp) */\n      mload(0x40)\n      tag_73\n      swap3\n      swap2\n      swap1\n      tag_31\n      jump\t// in\n    tag_73:\n      mload(0x40)\n      dup1\n      swap2\n      sub\n      swap1\n      log2\n        /* \"contracts/app.sol\":743:1120  {... */\n      pop\n        /* \"contracts/app.sol\":697:1120  function depositCollateral() external payable {... */\n      jump\t// out\n        /* \"contracts/app.sol\":1812:2019  function getCollateral(address user) external view returns (uint256 amount, uint256 timestamp) {... */\n    tag_29:\n        /* \"contracts/app.sol\":1872:1886  uint256 amount */\n      0x00\n        /* \"contracts/app.sol\":1888:1905  uint256 timestamp */\n      dup1\n        /* \"contracts/app.sol\":1918:1941  Account storage account */\n      0x00\n        /* \"contracts/app.sol\":1944:1952  accounts */\n      0x01\n        /* \"contracts/app.sol\":1944:1958  accounts[user] */\n      0x00\n        /* \"contracts/app.sol\":1953:1957  user */\n      dup6\n        /* \"contracts/app.sol\":1944:1958  accounts[user] */\n      0xffffffffffffffffffffffffffffffffffffffff\n      and\n      0xffffffffffffffffffffffffffffffffffffffff\n      and\n      dup2\n      mstore\n      0x20\n      add\n      swap1\n      dup2\n      mstore\n      0x20\n      add\n      0x00\n      keccak256\n        /* \"contracts/app.sol\":1918:1958  Account storage account = accounts[user] */\n      swap1\n      pop\n        /* \"contracts/app.sol\":1977:1984  account */\n      dup1\n        /* \"contracts/app.sol\":1977:1991  account.amount */\n      0x00\n      add\n      sload\n        /* \"contracts/app.sol\":1993:2000  account */\n      dup2\n        /* \"contracts/app.sol\":1993:2010  account.timestamp */\n      0x03\n      add\n      sload\n        /* \"contracts/app.sol\":1969:2011  return (account.amount, account.timestamp) */\n      swap3\n      pop\n      swap3\n      pop\n      pop\n        /* \"contracts/app.sol\":1812:2019  function getCollateral(address user) external view returns (uint256 amount, uint256 timestamp) {... */\n      swap2\n      pop\n      swap2\n      jump\t// out\n        /* \"contracts/app.sol\":2027:2217  function getAvailableAmountLoan(address user) external view returns (uint256 amount){... */\n    tag_35:\n        /* \"contracts/app.sol\":2096:2110  uint256 amount */\n      0x00\n        /* \"contracts/app.sol\":2122:2145  Account storage account */\n      dup1\n        /* \"contracts/app.sol\":2148:2156  accounts */\n      0x01\n        /* \"contracts/app.sol\":2148:2162  accounts[user] */\n      0x00\n        /* \"contracts/app.sol\":2157:2161  user */\n      dup5\n        /* \"contracts/app.sol\":2148:2162  accounts[user] */\n      0xffffffffffffffffffffffffffffffffffffffff\n      and\n      0xffffffffffffffffffffffffffffffffffffffff\n      and\n      dup2\n      mstore\n      0x20\n      add\n      swap1\n      dup2\n      mstore\n      0x20\n      add\n      0x00\n      keccak256\n        /* \"contracts/app.sol\":2122:2162  Account storage account = accounts[user] */\n      swap1\n      pop\n        /* \"contracts/app.sol\":2181:2188  account */\n      dup1\n        /* \"contracts/app.sol\":2181:2208  account.availableAmountLoan */\n      0x02\n      add\n      sload\n        /* \"contracts/app.sol\":2173:2209  return (account.availableAmountLoan) */\n      swap2\n      pop\n      pop\n        /* \"contracts/app.sol\":2027:2217  function getAvailableAmountLoan(address user) external view returns (uint256 amount){... */\n      swap2\n      swap1\n      pop\n      jump\t// out\n        /* \"#utility.yul\":88:205   */\n    tag_77:\n        /* \"#utility.yul\":197:198   */\n      0x00\n        /* \"#utility.yul\":194:195   */\n      dup1\n        /* \"#utility.yul\":187:199   */\n      revert\n        /* \"#utility.yul\":334:411   */\n    tag_79:\n        /* \"#utility.yul\":371:378   */\n      0x00\n        /* \"#utility.yul\":400:405   */\n      dup2\n        /* \"#utility.yul\":389:405   */\n      swap1\n      pop\n        /* \"#utility.yul\":334:411   */\n      swap2\n      swap1\n      pop\n      jump\t// out\n        /* \"#utility.yul\":417:539   */\n    tag_80:\n        /* \"#utility.yul\":490:514   */\n      tag_104\n        /* \"#utility.yul\":508:513   */\n      dup2\n        /* \"#utility.yul\":490:514   */\n      tag_79\n      jump\t// in\n    tag_104:\n        /* \"#utility.yul\":483:488   */\n      dup2\n        /* \"#utility.yul\":480:515   */\n      eq\n        /* \"#utility.yul\":470:533   */\n      tag_105\n      jumpi\n        /* \"#utility.yul\":529:530   */\n      0x00\n        /* \"#utility.yul\":526:527   */\n      dup1\n        /* \"#utility.yul\":519:531   */\n      revert\n        /* \"#utility.yul\":470:533   */\n    tag_105:\n        /* \"#utility.yul\":417:539   */\n      pop\n      jump\t// out\n        /* \"#utility.yul\":545:684   */\n    tag_81:\n        /* \"#utility.yul\":591:596   */\n      0x00\n        /* \"#utility.yul\":629:635   */\n      dup2\n        /* \"#utility.yul\":616:636   */\n      calldataload\n        /* \"#utility.yul\":607:636   */\n      swap1\n      pop\n        /* \"#utility.yul\":645:678   */\n      tag_107\n        /* \"#utility.yul\":672:677   */\n      dup2\n        /* \"#utility.yul\":645:678   */\n      tag_80\n      jump\t// in\n    tag_107:\n        /* \"#utility.yul\":545:684   */\n      swap3\n      swap2\n      pop\n      pop\n      jump\t// out\n        /* \"#utility.yul\":690:1019   */\n    tag_11:\n        /* \"#utility.yul\":749:755   */\n      0x00\n        /* \"#utility.yul\":798:800   */\n      0x20\n        /* \"#utility.yul\":786:795   */\n      dup3\n        /* \"#utility.yul\":777:784   */\n      dup5\n        /* \"#utility.yul\":773:796   */\n      sub\n        /* \"#utility.yul\":769:801   */\n      slt\n        /* \"#utility.yul\":766:885   */\n      iszero\n      tag_109\n      jumpi\n        /* \"#utility.yul\":804:883   */\n      tag_110\n      tag_77\n      jump\t// in\n    tag_110:\n        /* \"#utility.yul\":766:885   */\n    tag_109:\n        /* \"#utility.yul\":924:925   */\n      0x00\n        /* \"#utility.yul\":949:1002   */\n      tag_111\n        /* \"#utility.yul\":994:1001   */\n      dup5\n        /* \"#utility.yul\":985:991   */\n      dup3\n        /* \"#utility.yul\":974:983   */\n      dup6\n        /* \"#utility.yul\":970:992   */\n      add\n        /* \"#utility.yul\":949:1002   */\n      tag_81\n      jump\t// in\n    tag_111:\n        /* \"#utility.yul\":939:1002   */\n      swap2\n      pop\n        /* \"#utility.yul\":895:1012   */\n      pop\n        /* \"#utility.yul\":690:1019   */\n      swap3\n      swap2\n      pop\n      pop\n      jump\t// out\n        /* \"#utility.yul\":1025:1151   */\n    tag_82:\n        /* \"#utility.yul\":1062:1069   */\n      0x00\n        /* \"#utility.yul\":1102:1144   */\n      0xffffffffffffffffffffffffffffffffffffffff\n        /* \"#utility.yul\":1095:1100   */\n      dup3\n        /* \"#utility.yul\":1091:1145   */\n      and\n        /* \"#utility.yul\":1080:1145   */\n      swap1\n      pop\n        /* \"#utility.yul\":1025:1151   */\n      swap2\n      swap1\n      pop\n      jump\t// out\n        /* \"#utility.yul\":1157:1253   */\n    tag_83:\n        /* \"#utility.yul\":1194:1201   */\n      0x00\n        /* \"#utility.yul\":1223:1247   */\n      tag_114\n        /* \"#utility.yul\":1241:1246   */\n      dup3\n        /* \"#utility.yul\":1223:1247   */\n      tag_82\n      jump\t// in\n    tag_114:\n        /* \"#utility.yul\":1212:1247   */\n      swap1\n      pop\n        /* \"#utility.yul\":1157:1253   */\n      swap2\n      swap1\n      pop\n      jump\t// out\n        /* \"#utility.yul\":1259:1381   */\n    tag_84:\n        /* \"#utility.yul\":1332:1356   */\n      tag_116\n        /* \"#utility.yul\":1350:1355   */\n      dup2\n        /* \"#utility.yul\":1332:1356   */\n      tag_83\n      jump\t// in\n    tag_116:\n        /* \"#utility.yul\":1325:1330   */\n      dup2\n        /* \"#utility.yul\":1322:1357   */\n      eq\n        /* \"#utility.yul\":1312:1375   */\n      tag_117\n      jumpi\n        /* \"#utility.yul\":1371:1372   */\n      0x00\n        /* \"#utility.yul\":1368:1369   */\n      dup1\n        /* \"#utility.yul\":1361:1373   */\n      revert\n        /* \"#utility.yul\":1312:1375   */\n    tag_117:\n        /* \"#utility.yul\":1259:1381   */\n      pop\n      jump\t// out\n        /* \"#utility.yul\":1387:1526   */\n    tag_85:\n        /* \"#utility.yul\":1433:1438   */\n      0x00\n        /* \"#utility.yul\":1471:1477   */\n      dup2\n        /* \"#utility.yul\":1458:1478   */\n      calldataload\n        /* \"#utility.yul\":1449:1478   */\n      swap1\n      pop\n        /* \"#utility.yul\":1487:1520   */\n      tag_119\n        /* \"#utility.yul\":1514:1519   */\n      dup2\n        /* \"#utility.yul\":1487:1520   */\n      tag_84\n      jump\t// in\n    tag_119:\n        /* \"#utility.yul\":1387:1526   */\n      swap3\n      swap2\n      pop\n      pop\n      jump\t// out\n        /* \"#utility.yul\":1532:1861   */\n    tag_16:\n        /* \"#utility.yul\":1591:1597   */\n      0x00\n        /* \"#utility.yul\":1640:1642   */\n      0x20\n        /* \"#utility.yul\":1628:1637   */\n      dup3\n        /* \"#utility.yul\":1619:1626   */\n      dup5\n        /* \"#utility.yul\":1615:1638   */\n      sub\n        /* \"#utility.yul\":1611:1643   */\n      slt\n        /* \"#utility.yul\":1608:1727   */\n      iszero\n      tag_121\n      jumpi\n        /* \"#utility.yul\":1646:1725   */\n      tag_122\n      tag_77\n      jump\t// in\n    tag_122:\n        /* \"#utility.yul\":1608:1727   */\n    tag_121:\n        /* \"#utility.yul\":1766:1767   */\n      0x00\n        /* \"#utility.yul\":1791:1844   */\n      tag_123\n        /* \"#utility.yul\":1836:1843   */\n      dup5\n        /* \"#utility.yul\":1827:1833   */\n      dup3\n        /* \"#utility.yul\":1816:1825   */\n      dup6\n        /* \"#utility.yul\":1812:1834   */\n      add\n        /* \"#utility.yul\":1791:1844   */\n      tag_85\n      jump\t// in\n    tag_123:\n        /* \"#utility.yul\":1781:1844   */\n      swap2\n      pop\n        /* \"#utility.yul\":1737:1854   */\n      pop\n        /* \"#utility.yul\":1532:1861   */\n      swap3\n      swap2\n      pop\n      pop\n      jump\t// out\n        /* \"#utility.yul\":1867:1985   */\n    tag_86:\n        /* \"#utility.yul\":1954:1978   */\n      tag_125\n        /* \"#utility.yul\":1972:1977   */\n      dup2\n        /* \"#utility.yul\":1954:1978   */\n      tag_79\n      jump\t// in\n    tag_125:\n        /* \"#utility.yul\":1949:1952   */\n      dup3\n        /* \"#utility.yul\":1942:1979   */\n      mstore\n        /* \"#utility.yul\":1867:1985   */\n      pop\n      pop\n      jump\t// out\n        /* \"#utility.yul\":1991:2544   */\n    tag_19:\n        /* \"#utility.yul\":2168:2172   */\n      0x00\n        /* \"#utility.yul\":2206:2209   */\n      0x80\n        /* \"#utility.yul\":2195:2204   */\n      dup3\n        /* \"#utility.yul\":2191:2210   */\n      add\n        /* \"#utility.yul\":2183:2210   */\n      swap1\n      pop\n        /* \"#utility.yul\":2220:2291   */\n      tag_127\n        /* \"#utility.yul\":2288:2289   */\n      0x00\n        /* \"#utility.yul\":2277:2286   */\n      dup4\n        /* \"#utility.yul\":2273:2290   */\n      add\n        /* \"#utility.yul\":2264:2270   */\n      dup8\n        /* \"#utility.yul\":2220:2291   */\n      tag_86\n      jump\t// in\n    tag_127:\n        /* \"#utility.yul\":2301:2373   */\n      tag_128\n        /* \"#utility.yul\":2369:2371   */\n      0x20\n        /* \"#utility.yul\":2358:2367   */\n      dup4\n        /* \"#utility.yul\":2354:2372   */\n      add\n        /* \"#utility.yul\":2345:2351   */\n      dup7\n        /* \"#utility.yul\":2301:2373   */\n      tag_86\n      jump\t// in\n    tag_128:\n        /* \"#utility.yul\":2383:2455   */\n      tag_129\n        /* \"#utility.yul\":2451:2453   */\n      0x40\n        /* \"#utility.yul\":2440:2449   */\n      dup4\n        /* \"#utility.yul\":2436:2454   */\n      add\n        /* \"#utility.yul\":2427:2433   */\n      dup6\n        /* \"#utility.yul\":2383:2455   */\n      tag_86\n      jump\t// in\n    tag_129:\n        /* \"#utility.yul\":2465:2537   */\n      tag_130\n        /* \"#utility.yul\":2533:2535   */\n      0x60\n        /* \"#utility.yul\":2522:2531   */\n      dup4\n        /* \"#utility.yul\":2518:2536   */\n      add\n        /* \"#utility.yul\":2509:2515   */\n      dup5\n        /* \"#utility.yul\":2465:2537   */\n      tag_86\n      jump\t// in\n    tag_130:\n        /* \"#utility.yul\":1991:2544   */\n      swap6\n      swap5\n      pop\n      pop\n      pop\n      pop\n      pop\n      jump\t// out\n        /* \"#utility.yul\":2550:2882   */\n    tag_31:\n        /* \"#utility.yul\":2671:2675   */\n      0x00\n        /* \"#utility.yul\":2709:2711   */\n      0x40\n        /* \"#utility.yul\":2698:2707   */\n      dup3\n        /* \"#utility.yul\":2694:2712   */\n      add\n        /* \"#utility.yul\":2686:2712   */\n      swap1\n      pop\n        /* \"#utility.yul\":2722:2793   */\n      tag_132\n        /* \"#utility.yul\":2790:2791   */\n      0x00\n        /* \"#utility.yul\":2779:2788   */\n      dup4\n        /* \"#utility.yul\":2775:2792   */\n      add\n        /* \"#utility.yul\":2766:2772   */\n      dup6\n        /* \"#utility.yul\":2722:2793   */\n      tag_86\n      jump\t// in\n    tag_132:\n        /* \"#utility.yul\":2803:2875   */\n      tag_133\n        /* \"#utility.yul\":2871:2873   */\n      0x20\n        /* \"#utility.yul\":2860:2869   */\n      dup4\n        /* \"#utility.yul\":2856:2874   */\n      add\n        /* \"#utility.yul\":2847:2853   */\n      dup5\n        /* \"#utility.yul\":2803:2875   */\n      tag_86\n      jump\t// in\n    tag_133:\n        /* \"#utility.yul\":2550:2882   */\n      swap4\n      swap3\n      pop\n      pop\n      pop\n      jump\t// out\n        /* \"#utility.yul\":2888:3110   */\n    tag_37:\n        /* \"#utility.yul\":2981:2985   */\n      0x00\n        /* \"#utility.yul\":3019:3021   */\n      0x20\n        /* \"#utility.yul\":3008:3017   */\n      dup3\n        /* \"#utility.yul\":3004:3022   */\n      add\n        /* \"#utility.yul\":2996:3022   */\n      swap1\n      pop\n        /* \"#utility.yul\":3032:3103   */\n      tag_135\n        /* \"#utility.yul\":3100:3101   */\n      0x00\n        /* \"#utility.yul\":3089:3098   */\n      dup4\n        /* \"#utility.yul\":3085:3102   */\n      add\n        /* \"#utility.yul\":3076:3082   */\n      dup5\n        /* \"#utility.yul\":3032:3103   */\n      tag_86\n      jump\t// in\n    tag_135:\n        /* \"#utility.yul\":2888:3110   */\n      swap3\n      swap2\n      pop\n      pop\n      jump\t// out\n        /* \"#utility.yul\":3116:3296   */\n    tag_87:\n        /* \"#utility.yul\":3164:3241   */\n      0x4e487b7100000000000000000000000000000000000000000000000000000000\n        /* \"#utility.yul\":3161:3162   */\n      0x00\n        /* \"#utility.yul\":3154:3242   */\n      mstore\n        /* \"#utility.yul\":3261:3265   */\n      0x11\n        /* \"#utility.yul\":3258:3259   */\n      0x04\n        /* \"#utility.yul\":3251:3266   */\n      mstore\n        /* \"#utility.yul\":3285:3289   */\n      0x24\n        /* \"#utility.yul\":3282:3283   */\n      0x00\n        /* \"#utility.yul\":3275:3290   */\n      revert\n        /* \"#utility.yul\":3302:3496   */\n    tag_41:\n        /* \"#utility.yul\":3342:3346   */\n      0x00\n        /* \"#utility.yul\":3362:3382   */\n      tag_138\n        /* \"#utility.yul\":3380:3381   */\n      dup3\n        /* \"#utility.yul\":3362:3382   */\n      tag_79\n      jump\t// in\n    tag_138:\n        /* \"#utility.yul\":3357:3382   */\n      swap2\n      pop\n        /* \"#utility.yul\":3396:3416   */\n      tag_139\n        /* \"#utility.yul\":3414:3415   */\n      dup4\n        /* \"#utility.yul\":3396:3416   */\n      tag_79\n      jump\t// in\n    tag_139:\n        /* \"#utility.yul\":3391:3416   */\n      swap3\n      pop\n        /* \"#utility.yul\":3440:3441   */\n      dup3\n        /* \"#utility.yul\":3437:3438   */\n      dup3\n        /* \"#utility.yul\":3433:3442   */\n      sub\n        /* \"#utility.yul\":3425:3442   */\n      swap1\n      pop\n        /* \"#utility.yul\":3464:3465   */\n      dup2\n        /* \"#utility.yul\":3458:3462   */\n      dup2\n        /* \"#utility.yul\":3455:3466   */\n      gt\n        /* \"#utility.yul\":3452:3489   */\n      iszero\n      tag_140\n      jumpi\n        /* \"#utility.yul\":3469:3487   */\n      tag_141\n      tag_87\n      jump\t// in\n    tag_141:\n        /* \"#utility.yul\":3452:3489   */\n    tag_140:\n        /* \"#utility.yul\":3302:3496   */\n      swap3\n      swap2\n      pop\n      pop\n      jump\t// out\n        /* \"#utility.yul\":3502:3693   */\n    tag_43:\n        /* \"#utility.yul\":3542:3545   */\n      0x00\n        /* \"#utility.yul\":3561:3581   */\n      tag_143\n        /* \"#utility.yul\":3579:3580   */\n      dup3\n        /* \"#utility.yul\":3561:3581   */\n      tag_79\n      jump\t// in\n    tag_143:\n        /* \"#utility.yul\":3556:3581   */\n      swap2\n      pop\n        /* \"#utility.yul\":3595:3615   */\n      tag_144\n        /* \"#utility.yul\":3613:3614   */\n      dup4\n        /* \"#utility.yul\":3595:3615   */\n      tag_79\n      jump\t// in\n    tag_144:\n        /* \"#utility.yul\":3590:3615   */\n      swap3\n      pop\n        /* \"#utility.yul\":3638:3639   */\n      dup3\n        /* \"#utility.yul\":3635:3636   */\n      dup3\n        /* \"#utility.yul\":3631:3640   */\n      add\n        /* \"#utility.yul\":3624:3640   */\n      swap1\n      pop\n        /* \"#utility.yul\":3659:3662   */\n      dup1\n        /* \"#utility.yul\":3656:3657   */\n      dup3\n        /* \"#utility.yul\":3653:3663   */\n      gt\n        /* \"#utility.yul\":3650:3686   */\n      iszero\n      tag_145\n      jumpi\n        /* \"#utility.yul\":3666:3684   */\n      tag_146\n      tag_87\n      jump\t// in\n    tag_146:\n        /* \"#utility.yul\":3650:3686   */\n    tag_145:\n        /* \"#utility.yul\":3502:3693   */\n      swap3\n      swap2\n      pop\n      pop\n      jump\t// out\n        /* \"#utility.yul\":3699:3868   */\n    tag_88:\n        /* \"#utility.yul\":3783:3794   */\n      0x00\n        /* \"#utility.yul\":3817:3823   */\n      dup3\n        /* \"#utility.yul\":3812:3815   */\n      dup3\n        /* \"#utility.yul\":3805:3824   */\n      mstore\n        /* \"#utility.yul\":3857:3861   */\n      0x20\n        /* \"#utility.yul\":3852:3855   */\n      dup3\n        /* \"#utility.yul\":3848:3862   */\n      add\n        /* \"#utility.yul\":3833:3862   */\n      swap1\n      pop\n        /* \"#utility.yul\":3699:3868   */\n      swap3\n      swap2\n      pop\n      pop\n      jump\t// out\n        /* \"#utility.yul\":3874:4049   */\n    tag_89:\n        /* \"#utility.yul\":4014:4041   */\n      0x4e6f20636f6c6c61746572616c20746f20776974686472617700000000000000\n        /* \"#utility.yul\":4010:4011   */\n      0x00\n        /* \"#utility.yul\":4002:4008   */\n      dup3\n        /* \"#utility.yul\":3998:4012   */\n      add\n        /* \"#utility.yul\":3991:4042   */\n      mstore\n        /* \"#utility.yul\":3874:4049   */\n      pop\n      jump\t// out\n        /* \"#utility.yul\":4055:4421   */\n    tag_90:\n        /* \"#utility.yul\":4197:4200   */\n      0x00\n        /* \"#utility.yul\":4218:4285   */\n      tag_150\n        /* \"#utility.yul\":4282:4284   */\n      0x19\n        /* \"#utility.yul\":4277:4280   */\n      dup4\n        /* \"#utility.yul\":4218:4285   */\n      tag_88\n      jump\t// in\n    tag_150:\n        /* \"#utility.yul\":4211:4285   */\n      swap2\n      pop\n        /* \"#utility.yul\":4294:4387   */\n      tag_151\n        /* \"#utility.yul\":4383:4386   */\n      dup3\n        /* \"#utility.yul\":4294:4387   */\n      tag_89\n      jump\t// in\n    tag_151:\n        /* \"#utility.yul\":4412:4414   */\n      0x20\n        /* \"#utility.yul\":4407:4410   */\n      dup3\n        /* \"#utility.yul\":4403:4415   */\n      add\n        /* \"#utility.yul\":4396:4415   */\n      swap1\n      pop\n        /* \"#utility.yul\":4055:4421   */\n      swap2\n      swap1\n      pop\n      jump\t// out\n        /* \"#utility.yul\":4427:4846   */\n    tag_51:\n        /* \"#utility.yul\":4593:4597   */\n      0x00\n        /* \"#utility.yul\":4631:4633   */\n      0x20\n        /* \"#utility.yul\":4620:4629   */\n      dup3\n        /* \"#utility.yul\":4616:4634   */\n      add\n        /* \"#utility.yul\":4608:4634   */\n      swap1\n      pop\n        /* \"#utility.yul\":4680:4689   */\n      dup2\n        /* \"#utility.yul\":4674:4678   */\n      dup2\n        /* \"#utility.yul\":4670:4690   */\n      sub\n        /* \"#utility.yul\":4666:4667   */\n      0x00\n        /* \"#utility.yul\":4655:4664   */\n      dup4\n        /* \"#utility.yul\":4651:4668   */\n      add\n        /* \"#utility.yul\":4644:4691   */\n      mstore\n        /* \"#utility.yul\":4708:4839   */\n      tag_153\n        /* \"#utility.yul\":4834:4838   */\n      dup2\n        /* \"#utility.yul\":4708:4839   */\n      tag_90\n      jump\t// in\n    tag_153:\n        /* \"#utility.yul\":4700:4839   */\n      swap1\n      pop\n        /* \"#utility.yul\":4427:4846   */\n      swap2\n      swap1\n      pop\n      jump\t// out\n        /* \"#utility.yul\":4852:5082   */\n    tag_91:\n        /* \"#utility.yul\":4992:5026   */\n      0x5769746864726177616c20616d6f756e74206d75737420626520677265617465\n        /* \"#utility.yul\":4988:4989   */\n      0x00\n        /* \"#utility.yul\":4980:4986   */\n      dup3\n        /* \"#utility.yul\":4976:4990   */\n      add\n        /* \"#utility.yul\":4969:5027   */\n      mstore\n        /* \"#utility.yul\":5061:5074   */\n      0x72207468616e207a65726f000000000000000000000000000000000000000000\n        /* \"#utility.yul\":5056:5058   */\n      0x20\n        /* \"#utility.yul\":5048:5054   */\n      dup3\n        /* \"#utility.yul\":5044:5059   */\n      add\n        /* \"#utility.yul\":5037:5075   */\n      mstore\n        /* \"#utility.yul\":4852:5082   */\n      pop\n      jump\t// out\n        /* \"#utility.yul\":5088:5454   */\n    tag_92:\n        /* \"#utility.yul\":5230:5233   */\n      0x00\n        /* \"#utility.yul\":5251:5318   */\n      tag_156\n        /* \"#utility.yul\":5315:5317   */\n      0x2b\n        /* \"#utility.yul\":5310:5313   */\n      dup4\n        /* \"#utility.yul\":5251:5318   */\n      tag_88\n      jump\t// in\n    tag_156:\n        /* \"#utility.yul\":5244:5318   */\n      swap2\n      pop\n        /* \"#utility.yul\":5327:5420   */\n      tag_157\n        /* \"#utility.yul\":5416:5419   */\n      dup3\n        /* \"#utility.yul\":5327:5420   */\n      tag_91\n      jump\t// in\n    tag_157:\n        /* \"#utility.yul\":5445:5447   */\n      0x40\n        /* \"#utility.yul\":5440:5443   */\n      dup3\n        /* \"#utility.yul\":5436:5448   */\n      add\n        /* \"#utility.yul\":5429:5448   */\n      swap1\n      pop\n        /* \"#utility.yul\":5088:5454   */\n      swap2\n      swap1\n      pop\n      jump\t// out\n        /* \"#utility.yul\":5460:5879   */\n    tag_54:\n        /* \"#utility.yul\":5626:5630   */\n      0x00\n        /* \"#utility.yul\":5664:5666   */\n      0x20\n        /* \"#utility.yul\":5653:5662   */\n      dup3\n        /* \"#utility.yul\":5649:5667   */\n      add\n        /* \"#utility.yul\":5641:5667   */\n      swap1\n      pop\n        /* \"#utility.yul\":5713:5722   */\n      dup2\n        /* \"#utility.yul\":5707:5711   */\n      dup2\n        /* \"#utility.yul\":5703:5723   */\n      sub\n        /* \"#utility.yul\":5699:5700   */\n      0x00\n        /* \"#utility.yul\":5688:5697   */\n      dup4\n        /* \"#utility.yul\":5684:5701   */\n      add\n        /* \"#utility.yul\":5677:5724   */\n      mstore\n        /* \"#utility.yul\":5741:5872   */\n      tag_159\n        /* \"#utility.yul\":5867:5871   */\n      dup2\n        /* \"#utility.yul\":5741:5872   */\n      tag_92\n      jump\t// in\n    tag_159:\n        /* \"#utility.yul\":5733:5872   */\n      swap1\n      pop\n        /* \"#utility.yul\":5460:5879   */\n      swap2\n      swap1\n      pop\n      jump\t// out\n        /* \"#utility.yul\":5885:6119   */\n    tag_93:\n        /* \"#utility.yul\":6025:6059   */\n      0x496e73756666696369656e7420636f6c6c61746572616c20746f207769746864\n        /* \"#utility.yul\":6021:6022   */\n      0x00\n        /* \"#utility.yul\":6013:6019   */\n      dup3\n        /* \"#utility.yul\":6009:6023   */\n      add\n        /* \"#utility.yul\":6002:6060   */\n      mstore\n        /* \"#utility.yul\":6094:6111   */\n      0x726177207468697320616d6f756e740000000000000000000000000000000000\n        /* \"#utility.yul\":6089:6091   */\n      0x20\n        /* \"#utility.yul\":6081:6087   */\n      dup3\n        /* \"#utility.yul\":6077:6092   */\n      add\n        /* \"#utility.yul\":6070:6112   */\n      mstore\n        /* \"#utility.yul\":5885:6119   */\n      pop\n      jump\t// out\n        /* \"#utility.yul\":6125:6491   */\n    tag_94:\n        /* \"#utility.yul\":6267:6270   */\n      0x00\n        /* \"#utility.yul\":6288:6355   */\n      tag_162\n        /* \"#utility.yul\":6352:6354   */\n      0x2f\n        /* \"#utility.yul\":6347:6350   */\n      dup4\n        /* \"#utility.yul\":6288:6355   */\n      tag_88\n      jump\t// in\n    tag_162:\n        /* \"#utility.yul\":6281:6355   */\n      swap2\n      pop\n        /* \"#utility.yul\":6364:6457   */\n      tag_163\n        /* \"#utility.yul\":6453:6456   */\n      dup3\n        /* \"#utility.yul\":6364:6457   */\n      tag_93\n      jump\t// in\n    tag_163:\n        /* \"#utility.yul\":6482:6484   */\n      0x40\n        /* \"#utility.yul\":6477:6480   */\n      dup3\n        /* \"#utility.yul\":6473:6485   */\n      add\n        /* \"#utility.yul\":6466:6485   */\n      swap1\n      pop\n        /* \"#utility.yul\":6125:6491   */\n      swap2\n      swap1\n      pop\n      jump\t// out\n        /* \"#utility.yul\":6497:6916   */\n    tag_57:\n        /* \"#utility.yul\":6663:6667   */\n      0x00\n        /* \"#utility.yul\":6701:6703   */\n      0x20\n        /* \"#utility.yul\":6690:6699   */\n      dup3\n        /* \"#utility.yul\":6686:6704   */\n      add\n        /* \"#utility.yul\":6678:6704   */\n      swap1\n      pop\n        /* \"#utility.yul\":6750:6759   */\n      dup2\n        /* \"#utility.yul\":6744:6748   */\n      dup2\n        /* \"#utility.yul\":6740:6760   */\n      sub\n        /* \"#utility.yul\":6736:6737   */\n      0x00\n        /* \"#utility.yul\":6725:6734   */\n      dup4\n        /* \"#utility.yul\":6721:6738   */\n      add\n        /* \"#utility.yul\":6714:6761   */\n      mstore\n        /* \"#utility.yul\":6778:6909   */\n      tag_165\n        /* \"#utility.yul\":6904:6908   */\n      dup2\n        /* \"#utility.yul\":6778:6909   */\n      tag_94\n      jump\t// in\n    tag_165:\n        /* \"#utility.yul\":6770:6909   */\n      swap1\n      pop\n        /* \"#utility.yul\":6497:6916   */\n      swap2\n      swap1\n      pop\n      jump\t// out\n        /* \"#utility.yul\":6922:7149   */\n    tag_95:\n        /* \"#utility.yul\":7062:7096   */\n      0x4465706f73697420616d6f756e74206d75737420626520677265617465722074\n        /* \"#utility.yul\":7058:7059   */\n      0x00\n        /* \"#utility.yul\":7050:7056   */\n      dup3\n        /* \"#utility.yul\":7046:7060   */\n      add\n        /* \"#utility.yul\":7039:7097   */\n      mstore\n        /* \"#utility.yul\":7131:7141   */\n      0x68616e207a65726f000000000000000000000000000000000000000000000000\n        /* \"#utility.yul\":7126:7128   */\n      0x20\n        /* \"#utility.yul\":7118:7124   */\n      dup3\n        /* \"#utility.yul\":7114:7129   */\n      add\n        /* \"#utility.yul\":7107:7142   */\n      mstore\n        /* \"#utility.yul\":6922:7149   */\n      pop\n      jump\t// out\n        /* \"#utility.yul\":7155:7521   */\n    tag_96:\n        /* \"#utility.yul\":7297:7300   */\n      0x00\n        /* \"#utility.yul\":7318:7385   */\n      tag_168\n        /* \"#utility.yul\":7382:7384   */\n      0x28\n        /* \"#utility.yul\":7377:7380   */\n      dup4\n        /* \"#utility.yul\":7318:7385   */\n      tag_88\n      jump\t// in\n    tag_168:\n        /* \"#utility.yul\":7311:7385   */\n      swap2\n      pop\n        /* \"#utility.yul\":7394:7487   */\n      tag_169\n        /* \"#utility.yul\":7483:7486   */\n      dup3\n        /* \"#utility.yul\":7394:7487   */\n      tag_95\n      jump\t// in\n    tag_169:\n        /* \"#utility.yul\":7512:7514   */\n      0x40\n        /* \"#utility.yul\":7507:7510   */\n      dup3\n        /* \"#utility.yul\":7503:7515   */\n      add\n        /* \"#utility.yul\":7496:7515   */\n      swap1\n      pop\n        /* \"#utility.yul\":7155:7521   */\n      swap2\n      swap1\n      pop\n      jump\t// out\n        /* \"#utility.yul\":7527:7946   */\n    tag_66:\n        /* \"#utility.yul\":7693:7697   */\n      0x00\n        /* \"#utility.yul\":7731:7733   */\n      0x20\n        /* \"#utility.yul\":7720:7729   */\n      dup3\n        /* \"#utility.yul\":7716:7734   */\n      add\n        /* \"#utility.yul\":7708:7734   */\n      swap1\n      pop\n        /* \"#utility.yul\":7780:7789   */\n      dup2\n        /* \"#utility.yul\":7774:7778   */\n      dup2\n        /* \"#utility.yul\":7770:7790   */\n      sub\n        /* \"#utility.yul\":7766:7767   */\n      0x00\n        /* \"#utility.yul\":7755:7764   */\n      dup4\n        /* \"#utility.yul\":7751:7768   */\n      add\n        /* \"#utility.yul\":7744:7791   */\n      mstore\n        /* \"#utility.yul\":7808:7939   */\n      tag_171\n        /* \"#utility.yul\":7934:7938   */\n      dup2\n        /* \"#utility.yul\":7808:7939   */\n      tag_96\n      jump\t// in\n    tag_171:\n        /* \"#utility.yul\":7800:7939   */\n      swap1\n      pop\n        /* \"#utility.yul\":7527:7946   */\n      swap2\n      swap1\n      pop\n      jump\t// out\n        /* \"#utility.yul\":7952:8362   */\n    tag_69:\n        /* \"#utility.yul\":7992:7999   */\n      0x00\n        /* \"#utility.yul\":8015:8035   */\n      tag_173\n        /* \"#utility.yul\":8033:8034   */\n      dup3\n        /* \"#utility.yul\":8015:8035   */\n      tag_79\n      jump\t// in\n    tag_173:\n        /* \"#utility.yul\":8010:8035   */\n      swap2\n      pop\n        /* \"#utility.yul\":8049:8069   */\n      tag_174\n        /* \"#utility.yul\":8067:8068   */\n      dup4\n        /* \"#utility.yul\":8049:8069   */\n      tag_79\n      jump\t// in\n    tag_174:\n        /* \"#utility.yul\":8044:8069   */\n      swap3\n      pop\n        /* \"#utility.yul\":8104:8105   */\n      dup3\n        /* \"#utility.yul\":8101:8102   */\n      dup3\n        /* \"#utility.yul\":8097:8106   */\n      mul\n        /* \"#utility.yul\":8126:8156   */\n      tag_175\n        /* \"#utility.yul\":8144:8155   */\n      dup2\n        /* \"#utility.yul\":8126:8156   */\n      tag_79\n      jump\t// in\n    tag_175:\n        /* \"#utility.yul\":8115:8156   */\n      swap2\n      pop\n        /* \"#utility.yul\":8305:8306   */\n      dup3\n        /* \"#utility.yul\":8296:8303   */\n      dup3\n        /* \"#utility.yul\":8292:8307   */\n      div\n        /* \"#utility.yul\":8289:8290   */\n      dup5\n        /* \"#utility.yul\":8286:8308   */\n      eq\n        /* \"#utility.yul\":8266:8267   */\n      dup4\n        /* \"#utility.yul\":8259:8268   */\n      iszero\n        /* \"#utility.yul\":8239:8322   */\n      or\n        /* \"#utility.yul\":8216:8355   */\n      tag_176\n      jumpi\n        /* \"#utility.yul\":8335:8353   */\n      tag_177\n      tag_87\n      jump\t// in\n    tag_177:\n        /* \"#utility.yul\":8216:8355   */\n    tag_176:\n        /* \"#utility.yul\":8000:8362   */\n      pop\n        /* \"#utility.yul\":7952:8362   */\n      swap3\n      swap2\n      pop\n      pop\n      jump\t// out\n        /* \"#utility.yul\":8368:8548   */\n    tag_97:\n        /* \"#utility.yul\":8416:8493   */\n      0x4e487b7100000000000000000000000000000000000000000000000000000000\n        /* \"#utility.yul\":8413:8414   */\n      0x00\n        /* \"#utility.yul\":8406:8494   */\n      mstore\n        /* \"#utility.yul\":8513:8517   */\n      0x12\n        /* \"#utility.yul\":8510:8511   */\n      0x04\n        /* \"#utility.yul\":8503:8518   */\n      mstore\n        /* \"#utility.yul\":8537:8541   */\n      0x24\n        /* \"#utility.yul\":8534:8535   */\n      0x00\n        /* \"#utility.yul\":8527:8542   */\n      revert\n        /* \"#utility.yul\":8554:8739   */\n    tag_71:\n        /* \"#utility.yul\":8594:8595   */\n      0x00\n        /* \"#utility.yul\":8611:8631   */\n      tag_180\n        /* \"#utility.yul\":8629:8630   */\n      dup3\n        /* \"#utility.yul\":8611:8631   */\n      tag_79\n      jump\t// in\n    tag_180:\n        /* \"#utility.yul\":8606:8631   */\n      swap2\n      pop\n        /* \"#utility.yul\":8645:8665   */\n      tag_181\n        /* \"#utility.yul\":8663:8664   */\n      dup4\n        /* \"#utility.yul\":8645:8665   */\n      tag_79\n      jump\t// in\n    tag_181:\n        /* \"#utility.yul\":8640:8665   */\n      swap3\n      pop\n        /* \"#utility.yul\":8684:8685   */\n      dup3\n        /* \"#utility.yul\":8674:8709   */\n      tag_182\n      jumpi\n        /* \"#utility.yul\":8689:8707   */\n      tag_183\n      tag_97\n      jump\t// in\n    tag_183:\n        /* \"#utility.yul\":8674:8709   */\n    tag_182:\n        /* \"#utility.yul\":8731:8732   */\n      dup3\n        /* \"#utility.yul\":8728:8729   */\n      dup3\n        /* \"#utility.yul\":8724:8733   */\n      div\n        /* \"#utility.yul\":8719:8733   */\n      swap1\n      pop\n        /* \"#utility.yul\":8554:8739   */\n      swap3\n      swap2\n      pop\n      pop\n      jump\t// out\n\n    auxdata: 0xa26469706673582212208e53f3b4f63f62785a170f19112b815d2c8908eebf53ae19598a9f4d0359ddaf64736f6c634300081a0033\n}\n",
				"bytecode": {
					"linkReferences": {},
					"object": "6080604052348015600e575f80fd5b50335f806101000a81548173ffffffffffffffffffffffffffffffffffffffff021916908373ffffffffffffffffffffffffffffffffffffffff160217905550610b788061005b5f395ff3fe608060405260043610610054575f3560e01c80632a104d8d146100585780635e5c06e2146100805780636112fe2e146100bf5780636f758140146100e75780639b56d6c9146100f1578063fb7cbd6c1461012e575b5f80fd5b348015610063575f80fd5b5061007e600480360381019061007991906106ad565b61016a565b005b34801561008b575f80fd5b506100a660048036038101906100a19190610732565b61029c565b6040516100b6949392919061076c565b60405180910390f35b3480156100ca575f80fd5b506100e560048036038101906100e091906106ad565b6102c8565b005b6100ef61049c565b005b3480156100fc575f80fd5b5061011760048036038101906101129190610732565b6105d3565b6040516101259291906107af565b60405180910390f35b348015610139575f80fd5b50610154600480360381019061014f9190610732565b610628565b60405161016191906107d6565b60405180910390f35b5f60015f3373ffffffffffffffffffffffffffffffffffffffff1673ffffffffffffffffffffffffffffffffffffffff1681526020019081526020015f2090505f8160020154116101b9575f80fd5b81815f015f8282546101cb919061081c565b9250508190555081816001015f8282546101e5919061084f565b9250508190555081816002015f8282546101ff919061081c565b925050819055503373ffffffffffffffffffffffffffffffffffffffff166108fc8390811502906040515f60405180830381858888f19350505050158015610249573d5f803e3d5ffd5b503373ffffffffffffffffffffffffffffffffffffffff167f9fc64c8ef100e2584ce71f7bb2f62474d1a63a9f3fc4d216bacea670c289614a8360405161029091906107d6565b60405180910390a25050565b6001602052805f5260405f205f91509050805f0154908060010154908060020154908060030154905084565b5f60015f3373ffffffffffffffffffffffffffffffffffffffff1673ffffffffffffffffffffffffffffffffffffffff1681526020019081526020015f2090505f815f015490505f8111610351576040517f08c379a0000000000000000000000000000000000000000000000000000000008152600401610348906108dc565b60405180910390fd5b5f8311610393576040517f08c379a000000000000000000000000000000000000000000000000000000000815260040161038a9061096a565b60405180910390fd5b808311156103d6576040517f08c379a00000000000000000000000000000000000000000000000000000000081526004016103cd906109f8565b60405180910390fd5b82825f015f8282546103e8919061081c565b925050819055505f825f015403610403575f82600301819055505b3373ffffffffffffffffffffffffffffffffffffffff166108fc8490811502906040515f60405180830381858888f19350505050158015610446573d5f803e3d5ffd5b503373ffffffffffffffffffffffffffffffffffffffff167fdaed309a628faec6cab72194019e2a1a34e890ca9bf9be99788992dd54692819844260405161048f9291906107af565b60405180910390a2505050565b5f34116104de576040517f08c379a00000000000000000000000000000000000000000000000000000000081526004016104d590610a86565b60405180910390fd5b5f60015f3373ffffffffffffffffffffffffffffffffffffffff1673ffffffffffffffffffffffffffffffffffffffff1681526020019081526020015f20905034815f015f828254610530919061084f565b92505081905550670de0b6b3a76400006706f05b59d3b20000346105549190610aa4565b61055e9190610b12565b816002015f828254610570919061084f565b925050819055504281600301819055503373ffffffffffffffffffffffffffffffffffffffff167ff4d587c98d234ca4d147061e6b5167e7f41ee17f11562a9f0b49570abece859e34426040516105c89291906107af565b60405180910390a250565b5f805f60015f8573ffffffffffffffffffffffffffffffffffffffff1673ffffffffffffffffffffffffffffffffffffffff1681526020019081526020015f209050805f015481600301549250925050915091565b5f8060015f8473ffffffffffffffffffffffffffffffffffffffff1673ffffffffffffffffffffffffffffffffffffffff1681526020019081526020015f2090508060020154915050919050565b5f80fd5b5f819050919050565b61068c8161067a565b8114610696575f80fd5b50565b5f813590506106a781610683565b92915050565b5f602082840312156106c2576106c1610676565b5b5f6106cf84828501610699565b91505092915050565b5f73ffffffffffffffffffffffffffffffffffffffff82169050919050565b5f610701826106d8565b9050919050565b610711816106f7565b811461071b575f80fd5b50565b5f8135905061072c81610708565b92915050565b5f6020828403121561074757610746610676565b5b5f6107548482850161071e565b91505092915050565b6107668161067a565b82525050565b5f60808201905061077f5f83018761075d565b61078c602083018661075d565b610799604083018561075d565b6107a6606083018461075d565b95945050505050565b5f6040820190506107c25f83018561075d565b6107cf602083018461075d565b9392505050565b5f6020820190506107e95f83018461075d565b92915050565b7f4e487b71000000000000000000000000000000000000000000000000000000005f52601160045260245ffd5b5f6108268261067a565b91506108318361067a565b9250828203905081811115610849576108486107ef565b5b92915050565b5f6108598261067a565b91506108648361067a565b925082820190508082111561087c5761087b6107ef565b5b92915050565b5f82825260208201905092915050565b7f4e6f20636f6c6c61746572616c20746f207769746864726177000000000000005f82015250565b5f6108c6601983610882565b91506108d182610892565b602082019050919050565b5f6020820190508181035f8301526108f3816108ba565b9050919050565b7f5769746864726177616c20616d6f756e74206d757374206265206772656174655f8201527f72207468616e207a65726f000000000000000000000000000000000000000000602082015250565b5f610954602b83610882565b915061095f826108fa565b604082019050919050565b5f6020820190508181035f83015261098181610948565b9050919050565b7f496e73756666696369656e7420636f6c6c61746572616c20746f2077697468645f8201527f726177207468697320616d6f756e740000000000000000000000000000000000602082015250565b5f6109e2602f83610882565b91506109ed82610988565b604082019050919050565b5f6020820190508181035f830152610a0f816109d6565b9050919050565b7f4465706f73697420616d6f756e74206d757374206265206772656174657220745f8201527f68616e207a65726f000000000000000000000000000000000000000000000000602082015250565b5f610a70602883610882565b9150610a7b82610a16565b604082019050919050565b5f6020820190508181035f830152610a9d81610a64565b9050919050565b5f610aae8261067a565b9150610ab98361067a565b9250828202610ac78161067a565b91508282048414831517610ade57610add6107ef565b5b5092915050565b7f4e487b71000000000000000000000000000000000000000000000000000000005f52601260045260245ffd5b5f610b1c8261067a565b9150610b278361067a565b925082610b3757610b36610ae5565b5b82820490509291505056fea26469706673582212208e53f3b4f63f62785a170f19112b815d2c8908eebf53ae19598a9f4d0359ddaf64736f6c634300081a0033",
					"opcodes": "PUSH1 0x80 PUSH1 0x40 MSTORE CALLVALUE DUP1 ISZERO PUSH1 0xE JUMPI PUSH0 DUP1 REVERT JUMPDEST POP CALLER PUSH0 DUP1 PUSH2 0x100 EXP DUP2 SLOAD DUP2 PUSH20 0xFFFFFFFFFFFFFFFFFFFFFFFFFFFFFFFFFFFFFFFF MUL NOT AND SWAP1 DUP4 PUSH20 0xFFFFFFFFFFFFFFFFFFFFFFFFFFFFFFFFFFFFFFFF AND MUL OR SWAP1 SSTORE POP PUSH2 0xB78 DUP1 PUSH2 0x5B PUSH0 CODECOPY PUSH0 RETURN INVALID PUSH1 0x80 PUSH1 0x40 MSTORE PUSH1 0x4 CALLDATASIZE LT PUSH2 0x54 JUMPI PUSH0 CALLDATALOAD PUSH1 0xE0 SHR DUP1 PUSH4 0x2A104D8D EQ PUSH2 0x58 JUMPI DUP1 PUSH4 0x5E5C06E2 EQ PUSH2 0x80 JUMPI DUP1 PUSH4 0x6112FE2E EQ PUSH2 0xBF JUMPI DUP1 PUSH4 0x6F758140 EQ PUSH2 0xE7 JUMPI DUP1 PUSH4 0x9B56D6C9 EQ PUSH2 0xF1 JUMPI DUP1 PUSH4 0xFB7CBD6C EQ PUSH2 0x12E JUMPI JUMPDEST PUSH0 DUP1 REVERT JUMPDEST CALLVALUE DUP1 ISZERO PUSH2 0x63 JUMPI PUSH0 DUP1 REVERT JUMPDEST POP PUSH2 0x7E PUSH1 0x4 DUP1 CALLDATASIZE SUB DUP2 ADD SWAP1 PUSH2 0x79 SWAP2 SWAP1 PUSH2 0x6AD JUMP JUMPDEST PUSH2 0x16A JUMP JUMPDEST STOP JUMPDEST CALLVALUE DUP1 ISZERO PUSH2 0x8B JUMPI PUSH0 DUP1 REVERT JUMPDEST POP PUSH2 0xA6 PUSH1 0x4 DUP1 CALLDATASIZE SUB DUP2 ADD SWAP1 PUSH2 0xA1 SWAP2 SWAP1 PUSH2 0x732 JUMP JUMPDEST PUSH2 0x29C JUMP JUMPDEST PUSH1 0x40 MLOAD PUSH2 0xB6 SWAP5 SWAP4 SWAP3 SWAP2 SWAP1 PUSH2 0x76C JUMP JUMPDEST PUSH1 0x40 MLOAD DUP1 SWAP2 SUB SWAP1 RETURN JUMPDEST CALLVALUE DUP1 ISZERO PUSH2 0xCA JUMPI PUSH0 DUP1 REVERT JUMPDEST POP PUSH2 0xE5 PUSH1 0x4 DUP1 CALLDATASIZE SUB DUP2 ADD SWAP1 PUSH2 0xE0 SWAP2 SWAP1 PUSH2 0x6AD JUMP JUMPDEST PUSH2 0x2C8 JUMP JUMPDEST STOP JUMPDEST PUSH2 0xEF PUSH2 0x49C JUMP JUMPDEST STOP JUMPDEST CALLVALUE DUP1 ISZERO PUSH2 0xFC JUMPI PUSH0 DUP1 REVERT JUMPDEST POP PUSH2 0x117 PUSH1 0x4 DUP1 CALLDATASIZE SUB DUP2 ADD SWAP1 PUSH2 0x112 SWAP2 SWAP1 PUSH2 0x732 JUMP JUMPDEST PUSH2 0x5D3 JUMP JUMPDEST PUSH1 0x40 MLOAD PUSH2 0x125 SWAP3 SWAP2 SWAP1 PUSH2 0x7AF JUMP JUMPDEST PUSH1 0x40 MLOAD DUP1 SWAP2 SUB SWAP1 RETURN JUMPDEST CALLVALUE DUP1 ISZERO PUSH2 0x139 JUMPI PUSH0 DUP1 REVERT JUMPDEST POP PUSH2 0x154 PUSH1 0x4 DUP1 CALLDATASIZE SUB DUP2 ADD SWAP1 PUSH2 0x14F SWAP2 SWAP1 PUSH2 0x732 JUMP JUMPDEST PUSH2 0x628 JUMP JUMPDEST PUSH1 0x40 MLOAD PUSH2 0x161 SWAP2 SWAP1 PUSH2 0x7D6 JUMP JUMPDEST PUSH1 0x40 MLOAD DUP1 SWAP2 SUB SWAP1 RETURN JUMPDEST PUSH0 PUSH1 0x1 PUSH0 CALLER PUSH20 0xFFFFFFFFFFFFFFFFFFFFFFFFFFFFFFFFFFFFFFFF AND PUSH20 0xFFFFFFFFFFFFFFFFFFFFFFFFFFFFFFFFFFFFFFFF AND DUP2 MSTORE PUSH1 0x20 ADD SWAP1 DUP2 MSTORE PUSH1 0x20 ADD PUSH0 KECCAK256 SWAP1 POP PUSH0 DUP2 PUSH1 0x2 ADD SLOAD GT PUSH2 0x1B9 JUMPI PUSH0 DUP1 REVERT JUMPDEST DUP2 DUP2 PUSH0 ADD PUSH0 DUP3 DUP3 SLOAD PUSH2 0x1CB SWAP2 SWAP1 PUSH2 0x81C JUMP JUMPDEST SWAP3 POP POP DUP2 SWAP1 SSTORE POP DUP2 DUP2 PUSH1 0x1 ADD PUSH0 DUP3 DUP3 SLOAD PUSH2 0x1E5 SWAP2 SWAP1 PUSH2 0x84F JUMP JUMPDEST SWAP3 POP POP DUP2 SWAP1 SSTORE POP DUP2 DUP2 PUSH1 0x2 ADD PUSH0 DUP3 DUP3 SLOAD PUSH2 0x1FF SWAP2 SWAP1 PUSH2 0x81C JUMP JUMPDEST SWAP3 POP POP DUP2 SWAP1 SSTORE POP CALLER PUSH20 0xFFFFFFFFFFFFFFFFFFFFFFFFFFFFFFFFFFFFFFFF AND PUSH2 0x8FC DUP4 SWAP1 DUP2 ISZERO MUL SWAP1 PUSH1 0x40 MLOAD PUSH0 PUSH1 0x40 MLOAD DUP1 DUP4 SUB DUP2 DUP6 DUP9 DUP9 CALL SWAP4 POP POP POP POP ISZERO DUP1 ISZERO PUSH2 0x249 JUMPI RETURNDATASIZE PUSH0 DUP1 RETURNDATACOPY RETURNDATASIZE PUSH0 REVERT JUMPDEST POP CALLER PUSH20 0xFFFFFFFFFFFFFFFFFFFFFFFFFFFFFFFFFFFFFFFF AND PUSH32 0x9FC64C8EF100E2584CE71F7BB2F62474D1A63A9F3FC4D216BACEA670C289614A DUP4 PUSH1 0x40 MLOAD PUSH2 0x290 SWAP2 SWAP1 PUSH2 0x7D6 JUMP JUMPDEST PUSH1 0x40 MLOAD DUP1 SWAP2 SUB SWAP1 LOG2 POP POP JUMP JUMPDEST PUSH1 0x1 PUSH1 0x20 MSTORE DUP1 PUSH0 MSTORE PUSH1 0x40 PUSH0 KECCAK256 PUSH0 SWAP2 POP SWAP1 POP DUP1 PUSH0 ADD SLOAD SWAP1 DUP1 PUSH1 0x1 ADD SLOAD SWAP1 DUP1 PUSH1 0x2 ADD SLOAD SWAP1 DUP1 PUSH1 0x3 ADD SLOAD SWAP1 POP DUP5 JUMP JUMPDEST PUSH0 PUSH1 0x1 PUSH0 CALLER PUSH20 0xFFFFFFFFFFFFFFFFFFFFFFFFFFFFFFFFFFFFFFFF AND PUSH20 0xFFFFFFFFFFFFFFFFFFFFFFFFFFFFFFFFFFFFFFFF AND DUP2 MSTORE PUSH1 0x20 ADD SWAP1 DUP2 MSTORE PUSH1 0x20 ADD PUSH0 KECCAK256 SWAP1 POP PUSH0 DUP2 PUSH0 ADD SLOAD SWAP1 POP PUSH0 DUP2 GT PUSH2 0x351 JUMPI PUSH1 0x40 MLOAD PUSH32 0x8C379A000000000000000000000000000000000000000000000000000000000 DUP2 MSTORE PUSH1 0x4 ADD PUSH2 0x348 SWAP1 PUSH2 0x8DC JUMP JUMPDEST PUSH1 0x40 MLOAD DUP1 SWAP2 SUB SWAP1 REVERT JUMPDEST PUSH0 DUP4 GT PUSH2 0x393 JUMPI PUSH1 0x40 MLOAD PUSH32 0x8C379A000000000000000000000000000000000000000000000000000000000 DUP2 MSTORE PUSH1 0x4 ADD PUSH2 0x38A SWAP1 PUSH2 0x96A JUMP JUMPDEST PUSH1 0x40 MLOAD DUP1 SWAP2 SUB SWAP1 REVERT JUMPDEST DUP1 DUP4 GT ISZERO PUSH2 0x3D6 JUMPI PUSH1 0x40 MLOAD PUSH32 0x8C379A000000000000000000000000000000000000000000000000000000000 DUP2 MSTORE PUSH1 0x4 ADD PUSH2 0x3CD SWAP1 PUSH2 0x9F8 JUMP JUMPDEST PUSH1 0x40 MLOAD DUP1 SWAP2 SUB SWAP1 REVERT JUMPDEST DUP3 DUP3 PUSH0 ADD PUSH0 DUP3 DUP3 SLOAD PUSH2 0x3E8 SWAP2 SWAP1 PUSH2 0x81C JUMP JUMPDEST SWAP3 POP POP DUP2 SWAP1 SSTORE POP PUSH0 DUP3 PUSH0 ADD SLOAD SUB PUSH2 0x403 JUMPI PUSH0 DUP3 PUSH1 0x3 ADD DUP2 SWAP1 SSTORE POP JUMPDEST CALLER PUSH20 0xFFFFFFFFFFFFFFFFFFFFFFFFFFFFFFFFFFFFFFFF AND PUSH2 0x8FC DUP5 SWAP1 DUP2 ISZERO MUL SWAP1 PUSH1 0x40 MLOAD PUSH0 PUSH1 0x40 MLOAD DUP1 DUP4 SUB DUP2 DUP6 DUP9 DUP9 CALL SWAP4 POP POP POP POP ISZERO DUP1 ISZERO PUSH2 0x446 JUMPI RETURNDATASIZE PUSH0 DUP1 RETURNDATACOPY RETURNDATASIZE PUSH0 REVERT JUMPDEST POP CALLER PUSH20 0xFFFFFFFFFFFFFFFFFFFFFFFFFFFFFFFFFFFFFFFF AND PUSH32 0xDAED309A628FAEC6CAB72194019E2A1A34E890CA9BF9BE99788992DD54692819 DUP5 TIMESTAMP PUSH1 0x40 MLOAD PUSH2 0x48F SWAP3 SWAP2 SWAP1 PUSH2 0x7AF JUMP JUMPDEST PUSH1 0x40 MLOAD DUP1 SWAP2 SUB SWAP1 LOG2 POP POP POP JUMP JUMPDEST PUSH0 CALLVALUE GT PUSH2 0x4DE JUMPI PUSH1 0x40 MLOAD PUSH32 0x8C379A000000000000000000000000000000000000000000000000000000000 DUP2 MSTORE PUSH1 0x4 ADD PUSH2 0x4D5 SWAP1 PUSH2 0xA86 JUMP JUMPDEST PUSH1 0x40 MLOAD DUP1 SWAP2 SUB SWAP1 REVERT JUMPDEST PUSH0 PUSH1 0x1 PUSH0 CALLER PUSH20 0xFFFFFFFFFFFFFFFFFFFFFFFFFFFFFFFFFFFFFFFF AND PUSH20 0xFFFFFFFFFFFFFFFFFFFFFFFFFFFFFFFFFFFFFFFF AND DUP2 MSTORE PUSH1 0x20 ADD SWAP1 DUP2 MSTORE PUSH1 0x20 ADD PUSH0 KECCAK256 SWAP1 POP CALLVALUE DUP2 PUSH0 ADD PUSH0 DUP3 DUP3 SLOAD PUSH2 0x530 SWAP2 SWAP1 PUSH2 0x84F JUMP JUMPDEST SWAP3 POP POP DUP2 SWAP1 SSTORE POP PUSH8 0xDE0B6B3A7640000 PUSH8 0x6F05B59D3B20000 CALLVALUE PUSH2 0x554 SWAP2 SWAP1 PUSH2 0xAA4 JUMP JUMPDEST PUSH2 0x55E SWAP2 SWAP1 PUSH2 0xB12 JUMP JUMPDEST DUP2 PUSH1 0x2 ADD PUSH0 DUP3 DUP3 SLOAD PUSH2 0x570 SWAP2 SWAP1 PUSH2 0x84F JUMP JUMPDEST SWAP3 POP POP DUP2 SWAP1 SSTORE POP TIMESTAMP DUP2 PUSH1 0x3 ADD DUP2 SWAP1 SSTORE POP CALLER PUSH20 0xFFFFFFFFFFFFFFFFFFFFFFFFFFFFFFFFFFFFFFFF AND PUSH32 0xF4D587C98D234CA4D147061E6B5167E7F41EE17F11562A9F0B49570ABECE859E CALLVALUE TIMESTAMP PUSH1 0x40 MLOAD PUSH2 0x5C8 SWAP3 SWAP2 SWAP1 PUSH2 0x7AF JUMP JUMPDEST PUSH1 0x40 MLOAD DUP1 SWAP2 SUB SWAP1 LOG2 POP JUMP JUMPDEST PUSH0 DUP1 PUSH0 PUSH1 0x1 PUSH0 DUP6 PUSH20 0xFFFFFFFFFFFFFFFFFFFFFFFFFFFFFFFFFFFFFFFF AND PUSH20 0xFFFFFFFFFFFFFFFFFFFFFFFFFFFFFFFFFFFFFFFF AND DUP2 MSTORE PUSH1 0x20 ADD SWAP1 DUP2 MSTORE PUSH1 0x20 ADD PUSH0 KECCAK256 SWAP1 POP DUP1 PUSH0 ADD SLOAD DUP2 PUSH1 0x3 ADD SLOAD SWAP3 POP SWAP3 POP POP SWAP2 POP SWAP2 JUMP JUMPDEST PUSH0 DUP1 PUSH1 0x1 PUSH0 DUP5 PUSH20 0xFFFFFFFFFFFFFFFFFFFFFFFFFFFFFFFFFFFFFFFF AND PUSH20 0xFFFFFFFFFFFFFFFFFFFFFFFFFFFFFFFFFFFFFFFF AND DUP2 MSTORE PUSH1 0x20 ADD SWAP1 DUP2 MSTORE PUSH1 0x20 ADD PUSH0 KECCAK256 SWAP1 POP DUP1 PUSH1 0x2 ADD SLOAD SWAP2 POP POP SWAP2 SWAP1 POP JUMP JUMPDEST PUSH0 DUP1 REVERT JUMPDEST PUSH0 DUP2 SWAP1 POP SWAP2 SWAP1 POP JUMP JUMPDEST PUSH2 0x68C DUP2 PUSH2 0x67A JUMP JUMPDEST DUP2 EQ PUSH2 0x696 JUMPI PUSH0 DUP1 REVERT JUMPDEST POP JUMP JUMPDEST PUSH0 DUP2 CALLDATALOAD SWAP1 POP PUSH2 0x6A7 DUP2 PUSH2 0x683 JUMP JUMPDEST SWAP3 SWAP2 POP POP JUMP JUMPDEST PUSH0 PUSH1 0x20 DUP3 DUP5 SUB SLT ISZERO PUSH2 0x6C2 JUMPI PUSH2 0x6C1 PUSH2 0x676 JUMP JUMPDEST JUMPDEST PUSH0 PUSH2 0x6CF DUP5 DUP3 DUP6 ADD PUSH2 0x699 JUMP JUMPDEST SWAP2 POP POP SWAP3 SWAP2 POP POP JUMP JUMPDEST PUSH0 PUSH20 0xFFFFFFFFFFFFFFFFFFFFFFFFFFFFFFFFFFFFFFFF DUP3 AND SWAP1 POP SWAP2 SWAP1 POP JUMP JUMPDEST PUSH0 PUSH2 0x701 DUP3 PUSH2 0x6D8 JUMP JUMPDEST SWAP1 POP SWAP2 SWAP1 POP JUMP JUMPDEST PUSH2 0x711 DUP2 PUSH2 0x6F7 JUMP JUMPDEST DUP2 EQ PUSH2 0x71B JUMPI PUSH0 DUP1 REVERT JUMPDEST POP JUMP JUMPDEST PUSH0 DUP2 CALLDATALOAD SWAP1 POP PUSH2 0x72C DUP2 PUSH2 0x708 JUMP JUMPDEST SWAP3 SWAP2 POP POP JUMP JUMPDEST PUSH0 PUSH1 0x20 DUP3 DUP5 SUB SLT ISZERO PUSH2 0x747 JUMPI PUSH2 0x746 PUSH2 0x676 JUMP JUMPDEST JUMPDEST PUSH0 PUSH2 0x754 DUP5 DUP3 DUP6 ADD PUSH2 0x71E JUMP JUMPDEST SWAP2 POP POP SWAP3 SWAP2 POP POP JUMP JUMPDEST PUSH2 0x766 DUP2 PUSH2 0x67A JUMP JUMPDEST DUP3 MSTORE POP POP JUMP JUMPDEST PUSH0 PUSH1 0x80 DUP3 ADD SWAP1 POP PUSH2 0x77F PUSH0 DUP4 ADD DUP8 PUSH2 0x75D JUMP JUMPDEST PUSH2 0x78C PUSH1 0x20 DUP4 ADD DUP7 PUSH2 0x75D JUMP JUMPDEST PUSH2 0x799 PUSH1 0x40 DUP4 ADD DUP6 PUSH2 0x75D JUMP JUMPDEST PUSH2 0x7A6 PUSH1 0x60 DUP4 ADD DUP5 PUSH2 0x75D JUMP JUMPDEST SWAP6 SWAP5 POP POP POP POP POP JUMP JUMPDEST PUSH0 PUSH1 0x40 DUP3 ADD SWAP1 POP PUSH2 0x7C2 PUSH0 DUP4 ADD DUP6 PUSH2 0x75D JUMP JUMPDEST PUSH2 0x7CF PUSH1 0x20 DUP4 ADD DUP5 PUSH2 0x75D JUMP JUMPDEST SWAP4 SWAP3 POP POP POP JUMP JUMPDEST PUSH0 PUSH1 0x20 DUP3 ADD SWAP1 POP PUSH2 0x7E9 PUSH0 DUP4 ADD DUP5 PUSH2 0x75D JUMP JUMPDEST SWAP3 SWAP2 POP POP JUMP JUMPDEST PUSH32 0x4E487B7100000000000000000000000000000000000000000000000000000000 PUSH0 MSTORE PUSH1 0x11 PUSH1 0x4 MSTORE PUSH1 0x24 PUSH0 REVERT JUMPDEST PUSH0 PUSH2 0x826 DUP3 PUSH2 0x67A JUMP JUMPDEST SWAP2 POP PUSH2 0x831 DUP4 PUSH2 0x67A JUMP JUMPDEST SWAP3 POP DUP3 DUP3 SUB SWAP1 POP DUP2 DUP2 GT ISZERO PUSH2 0x849 JUMPI PUSH2 0x848 PUSH2 0x7EF JUMP JUMPDEST JUMPDEST SWAP3 SWAP2 POP POP JUMP JUMPDEST PUSH0 PUSH2 0x859 DUP3 PUSH2 0x67A JUMP JUMPDEST SWAP2 POP PUSH2 0x864 DUP4 PUSH2 0x67A JUMP JUMPDEST SWAP3 POP DUP3 DUP3 ADD SWAP1 POP DUP1 DUP3 GT ISZERO PUSH2 0x87C JUMPI PUSH2 0x87B PUSH2 0x7EF JUMP JUMPDEST JUMPDEST SWAP3 SWAP2 POP POP JUMP JUMPDEST PUSH0 DUP3 DUP3 MSTORE PUSH1 0x20 DUP3 ADD SWAP1 POP SWAP3 SWAP2 POP POP JUMP JUMPDEST PUSH32 0x4E6F20636F6C6C61746572616C20746F20776974686472617700000000000000 PUSH0 DUP3 ADD MSTORE POP JUMP JUMPDEST PUSH0 PUSH2 0x8C6 PUSH1 0x19 DUP4 PUSH2 0x882 JUMP JUMPDEST SWAP2 POP PUSH2 0x8D1 DUP3 PUSH2 0x892 JUMP JUMPDEST PUSH1 0x20 DUP3 ADD SWAP1 POP SWAP2 SWAP1 POP JUMP JUMPDEST PUSH0 PUSH1 0x20 DUP3 ADD SWAP1 POP DUP2 DUP2 SUB PUSH0 DUP4 ADD MSTORE PUSH2 0x8F3 DUP2 PUSH2 0x8BA JUMP JUMPDEST SWAP1 POP SWAP2 SWAP1 POP JUMP JUMPDEST PUSH32 0x5769746864726177616C20616D6F756E74206D75737420626520677265617465 PUSH0 DUP3 ADD MSTORE PUSH32 0x72207468616E207A65726F000000000000000000000000000000000000000000 PUSH1 0x20 DUP3 ADD MSTORE POP JUMP JUMPDEST PUSH0 PUSH2 0x954 PUSH1 0x2B DUP4 PUSH2 0x882 JUMP JUMPDEST SWAP2 POP PUSH2 0x95F DUP3 PUSH2 0x8FA JUMP JUMPDEST PUSH1 0x40 DUP3 ADD SWAP1 POP SWAP2 SWAP1 POP JUMP JUMPDEST PUSH0 PUSH1 0x20 DUP3 ADD SWAP1 POP DUP2 DUP2 SUB PUSH0 DUP4 ADD MSTORE PUSH2 0x981 DUP2 PUSH2 0x948 JUMP JUMPDEST SWAP1 POP SWAP2 SWAP1 POP JUMP JUMPDEST PUSH32 0x496E73756666696369656E7420636F6C6C61746572616C20746F207769746864 PUSH0 DUP3 ADD MSTORE PUSH32 0x726177207468697320616D6F756E740000000000000000000000000000000000 PUSH1 0x20 DUP3 ADD MSTORE POP JUMP JUMPDEST PUSH0 PUSH2 0x9E2 PUSH1 0x2F DUP4 PUSH2 0x882 JUMP JUMPDEST SWAP2 POP PUSH2 0x9ED DUP3 PUSH2 0x988 JUMP JUMPDEST PUSH1 0x40 DUP3 ADD SWAP1 POP SWAP2 SWAP1 POP JUMP JUMPDEST PUSH0 PUSH1 0x20 DUP3 ADD SWAP1 POP DUP2 DUP2 SUB PUSH0 DUP4 ADD MSTORE PUSH2 0xA0F DUP2 PUSH2 0x9D6 JUMP JUMPDEST SWAP1 POP SWAP2 SWAP1 POP JUMP JUMPDEST PUSH32 0x4465706F73697420616D6F756E74206D75737420626520677265617465722074 PUSH0 DUP3 ADD MSTORE PUSH32 0x68616E207A65726F000000000000000000000000000000000000000000000000 PUSH1 0x20 DUP3 ADD MSTORE POP JUMP JUMPDEST PUSH0 PUSH2 0xA70 PUSH1 0x28 DUP4 PUSH2 0x882 JUMP JUMPDEST SWAP2 POP PUSH2 0xA7B DUP3 PUSH2 0xA16 JUMP JUMPDEST PUSH1 0x40 DUP3 ADD SWAP1 POP SWAP2 SWAP1 POP JUMP JUMPDEST PUSH0 PUSH1 0x20 DUP3 ADD SWAP1 POP DUP2 DUP2 SUB PUSH0 DUP4 ADD MSTORE PUSH2 0xA9D DUP2 PUSH2 0xA64 JUMP JUMPDEST SWAP1 POP SWAP2 SWAP1 POP JUMP JUMPDEST PUSH0 PUSH2 0xAAE DUP3 PUSH2 0x67A JUMP JUMPDEST SWAP2 POP PUSH2 0xAB9 DUP4 PUSH2 0x67A JUMP JUMPDEST SWAP3 POP DUP3 DUP3 MUL PUSH2 0xAC7 DUP2 PUSH2 0x67A JUMP JUMPDEST SWAP2 POP DUP3 DUP3 DIV DUP5 EQ DUP4 ISZERO OR PUSH2 0xADE JUMPI PUSH2 0xADD PUSH2 0x7EF JUMP JUMPDEST JUMPDEST POP SWAP3 SWAP2 POP POP JUMP JUMPDEST PUSH32 0x4E487B7100000000000000000000000000000000000000000000000000000000 PUSH0 MSTORE PUSH1 0x12 PUSH1 0x4 MSTORE PUSH1 0x24 PUSH0 REVERT JUMPDEST PUSH0 PUSH2 0xB1C DUP3 PUSH2 0x67A JUMP JUMPDEST SWAP2 POP PUSH2 0xB27 DUP4 PUSH2 0x67A JUMP JUMPDEST SWAP3 POP DUP3 PUSH2 0xB37 JUMPI PUSH2 0xB36 PUSH2 0xAE5 JUMP JUMPDEST JUMPDEST DUP3 DUP3 DIV SWAP1 POP SWAP3 SWAP2 POP POP JUMP INVALID LOG2 PUSH5 0x6970667358 0x22 SLT KECCAK256 DUP15 MSTORE8 RETURN 0xB4 0xF6 EXTCODEHASH PUSH3 0x785A17 0xF NOT GT 0x2B DUP2 TSTORE 0x2C DUP10 ADDMOD 0xEE 0xBF MSTORE8 0xAE NOT MSIZE DUP11 SWAP16 0x4D SUB MSIZE 0xDD 0xAF PUSH5 0x736F6C6343 STOP ADDMOD BYTE STOP CALLER "
				},
				"gasEstimates": {
					"creation": {
						"codeDepositCost": "587200",
						"executionCost": "24882",
						"totalCost": "612082"
					},
					"external": {
						"accounts(address)": "infinite",
						"depositCollateral()": "infinite",
						"getAvailableAmountLoan(address)": "2936",
						"getCollateral(address)": "infinite",
						"withdrawCollateral(uint256)": "infinite",
						"withdrawLoan(uint256)": "infinite"
					}
				},
				"methodIdentifiers": {
					"accounts(address)": "5e5c06e2",
					"depositCollateral()": "6f758140",
					"getAvailableAmountLoan(address)": "fb7cbd6c",
					"getCollateral(address)": "9b56d6c9",
					"withdrawCollateral(uint256)": "6112fe2e",
					"withdrawLoan(uint256)": "2a104d8d"
				}
			},
			"storageLayout": {
				"storage": [
					{
						"astId": 3,
						"contract": "contracts/app.sol:DefiChanges",
						"label": "owner",
						"offset": 0,
						"slot": "0",
						"type": "t_address"
					},
					{
						"astId": 29,
						"contract": "contracts/app.sol:DefiChanges",
						"label": "accounts",
						"offset": 0,
						"slot": "1",
						"type": "t_mapping(t_address,t_struct(Account)15_storage)"
					}
				],
				"types": {
					"t_address": {
						"encoding": "inplace",
						"label": "address",
						"numberOfBytes": "20"
					},
					"t_mapping(t_address,t_struct(Account)15_storage)": {
						"encoding": "mapping",
						"key": "t_address",
						"label": "mapping(address => struct DefiChanges.Account)",
						"numberOfBytes": "32",
						"value": "t_struct(Account)15_storage"
					},
					"t_struct(Account)15_storage": {
						"encoding": "inplace",
						"label": "struct DefiChanges.Account",
						"members": [
							{
								"astId": 8,
								"contract": "contracts/app.sol:DefiChanges",
								"label": "amount",
								"offset": 0,
								"slot": "0",
								"type": "t_uint256"
							},
							{
								"astId": 10,
								"contract": "contracts/app.sol:DefiChanges",
								"label": "amountLoan",
								"offset": 0,
								"slot": "1",
								"type": "t_uint256"
							},
							{
								"astId": 12,
								"contract": "contracts/app.sol:DefiChanges",
								"label": "availableAmountLoan",
								"offset": 0,
								"slot": "2",
								"type": "t_uint256"
							},
							{
								"astId": 14,
								"contract": "contracts/app.sol:DefiChanges",
								"label": "timestamp",
								"offset": 0,
								"slot": "3",
								"type": "t_uint256"
							}
						],
						"numberOfBytes": "128"
					},
					"t_uint256": {
						"encoding": "inplace",
						"label": "uint256",
						"numberOfBytes": "32"
					}
				}
			},
			"userdoc": {
				"kind": "user",
				"methods": {},
				"version": 1
			}
		}
	}
}