{
	"contracts/app.sol": {
		"DefiChanges": {
			"abi": [
				{
					"inputs": [],
					"stateMutability": "nonpayable",
					"type": "constructor"
				},
				{
					"anonymous": false,
					"inputs": [
						{
							"indexed": true,
							"internalType": "address",
							"name": "user",
							"type": "address"
						},
						{
							"indexed": false,
							"internalType": "uint256",
							"name": "amount",
							"type": "uint256"
						},
						{
							"indexed": false,
							"internalType": "uint256",
							"name": "timestamp",
							"type": "uint256"
						}
					],
					"name": "CollateralDeposited",
					"type": "event"
				},
				{
					"anonymous": false,
					"inputs": [
						{
							"indexed": true,
							"internalType": "address",
							"name": "user",
							"type": "address"
						},
						{
							"indexed": false,
							"internalType": "uint256",
							"name": "amount",
							"type": "uint256"
						},
						{
							"indexed": false,
							"internalType": "uint256",
							"name": "timestamp",
							"type": "uint256"
						}
					],
					"name": "CollateralWithdrawn",
					"type": "event"
				},
				{
					"anonymous": false,
					"inputs": [
						{
							"indexed": true,
							"internalType": "address",
							"name": "user",
							"type": "address"
						},
						{
							"indexed": false,
							"internalType": "uint256",
							"name": "amount",
							"type": "uint256"
						}
					],
					"name": "LoanWithdraw",
					"type": "event"
				},
				{
					"inputs": [
						{
							"internalType": "address",
							"name": "",
							"type": "address"
						}
					],
					"name": "accounts",
					"outputs": [
						{
							"internalType": "uint256",
							"name": "amount",
							"type": "uint256"
						},
						{
							"internalType": "uint256",
							"name": "amountLoan",
							"type": "uint256"
						},
						{
							"internalType": "uint256",
							"name": "loanAtPrice",
							"type": "uint256"
						},
						{
							"internalType": "uint256",
							"name": "availableAmountLoan",
							"type": "uint256"
						},
						{
							"internalType": "uint256",
							"name": "timestamp",
							"type": "uint256"
						}
					],
					"stateMutability": "view",
					"type": "function"
				},
				{
					"inputs": [],
					"name": "depositCollateral",
					"outputs": [],
					"stateMutability": "payable",
					"type": "function"
				},
				{
					"inputs": [
						{
							"internalType": "address",
							"name": "user",
							"type": "address"
						}
					],
					"name": "getAvailableAmountLoan",
					"outputs": [
						{
							"internalType": "uint256",
							"name": "amount",
							"type": "uint256"
						}
					],
					"stateMutability": "view",
					"type": "function"
				},
				{
					"inputs": [
						{
							"internalType": "address",
							"name": "user",
							"type": "address"
						}
					],
					"name": "getCollateral",
					"outputs": [
						{
							"internalType": "uint256",
							"name": "amount",
							"type": "uint256"
						},
						{
							"internalType": "uint256",
							"name": "timestamp",
							"type": "uint256"
						}
					],
					"stateMutability": "view",
					"type": "function"
				},
				{
					"inputs": [],
					"name": "getEthPrice",
					"outputs": [
						{
							"internalType": "uint256",
							"name": "",
							"type": "uint256"
						}
					],
					"stateMutability": "view",
					"type": "function"
				},
				{
					"inputs": [
						{
							"internalType": "uint256",
							"name": "withdrawAmount",
							"type": "uint256"
						}
					],
					"name": "withdrawCollateral",
					"outputs": [],
					"stateMutability": "nonpayable",
					"type": "function"
				},
				{
					"inputs": [
						{
							"internalType": "uint256",
							"name": "amount",
							"type": "uint256"
						}
					],
					"name": "withdrawLoan",
					"outputs": [],
					"stateMutability": "nonpayable",
					"type": "function"
				}
			],
			"devdoc": {
				"kind": "dev",
				"methods": {},
				"version": 1
			},
			"evm": {
				"assembly": "    /* \"contracts/app.sol\":177:3319  contract DefiChanges {... */\n  mstore(0x40, 0x80)\n    /* \"contracts/app.sol\":539:700  constructor(){... */\n  callvalue\n  dup1\n  iszero\n  tag_1\n  jumpi\n  0x00\n  dup1\n  revert\ntag_1:\n  pop\n    /* \"contracts/app.sol\":571:581  msg.sender */\n  caller\n    /* \"contracts/app.sol\":563:568  owner */\n  0x00\n  dup1\n    /* \"contracts/app.sol\":563:581  owner = msg.sender */\n  0x0100\n  exp\n  dup2\n  sload\n  dup2\n  0xffffffffffffffffffffffffffffffffffffffff\n  mul\n  not\n  and\n  swap1\n  dup4\n  0xffffffffffffffffffffffffffffffffffffffff\n  and\n  mul\n  or\n  swap1\n  sstore\n  pop\n    /* \"contracts/app.sol\":639:681  0x694AA1769357215DE4FAC081bf1f309aDC325306 */\n  0x694aa1769357215de4fac081bf1f309adc325306\n    /* \"contracts/app.sol\":592:600  dataFeed */\n  0x01\n  0x00\n    /* \"contracts/app.sol\":592:692  dataFeed = AggregatorV3Interface(... */\n  0x0100\n  exp\n  dup2\n  sload\n  dup2\n  0xffffffffffffffffffffffffffffffffffffffff\n  mul\n  not\n  and\n  swap1\n  dup4\n  0xffffffffffffffffffffffffffffffffffffffff\n  and\n  mul\n  or\n  swap1\n  sstore\n  pop\n    /* \"contracts/app.sol\":177:3319  contract DefiChanges {... */\n  dataSize(sub_0)\n  dup1\n  dataOffset(sub_0)\n  0x00\n  codecopy\n  0x00\n  return\nstop\n\nsub_0: assembly {\n        /* \"contracts/app.sol\":177:3319  contract DefiChanges {... */\n      mstore(0x40, 0x80)\n      jumpi(tag_1, lt(calldatasize, 0x04))\n      shr(0xe0, calldataload(0x00))\n      dup1\n      0x67c9b017\n      gt\n      tag_9\n      jumpi\n      dup1\n      0x67c9b017\n      eq\n      tag_5\n      jumpi\n      dup1\n      0x6f758140\n      eq\n      tag_6\n      jumpi\n      dup1\n      0x9b56d6c9\n      eq\n      tag_7\n      jumpi\n      dup1\n      0xfb7cbd6c\n      eq\n      tag_8\n      jumpi\n      jump(tag_1)\n    tag_9:\n      dup1\n      0x2a104d8d\n      eq\n      tag_2\n      jumpi\n      dup1\n      0x5e5c06e2\n      eq\n      tag_3\n      jumpi\n      dup1\n      0x6112fe2e\n      eq\n      tag_4\n      jumpi\n    tag_1:\n      0x00\n      dup1\n      revert\n        /* \"contracts/app.sol\":2529:2962  function withdrawLoan(uint256 amount) external {... */\n    tag_2:\n      callvalue\n      dup1\n      iszero\n      tag_10\n      jumpi\n      0x00\n      dup1\n      revert\n    tag_10:\n      pop\n      tag_11\n      0x04\n      dup1\n      calldatasize\n      sub\n      dup2\n      add\n      swap1\n      tag_12\n      swap2\n      swap1\n      tag_13\n      jump\t// in\n    tag_12:\n      tag_14\n      jump\t// in\n    tag_11:\n      stop\n        /* \"contracts/app.sol\":708:751  mapping(address => Account) public accounts */\n    tag_3:\n      callvalue\n      dup1\n      iszero\n      tag_15\n      jumpi\n      0x00\n      dup1\n      revert\n    tag_15:\n      pop\n      tag_16\n      0x04\n      dup1\n      calldatasize\n      sub\n      dup2\n      add\n      swap1\n      tag_17\n      swap2\n      swap1\n      tag_18\n      jump\t// in\n    tag_17:\n      tag_19\n      jump\t// in\n    tag_16:\n      mload(0x40)\n      tag_20\n      swap6\n      swap5\n      swap4\n      swap3\n      swap2\n      swap1\n      tag_21\n      jump\t// in\n    tag_20:\n      mload(0x40)\n      dup1\n      swap2\n      sub\n      swap1\n      return\n        /* \"contracts/app.sol\":1432:2108  function withdrawCollateral(uint256 withdrawAmount) external {... */\n    tag_4:\n      callvalue\n      dup1\n      iszero\n      tag_22\n      jumpi\n      0x00\n      dup1\n      revert\n    tag_22:\n      pop\n      tag_23\n      0x04\n      dup1\n      calldatasize\n      sub\n      dup2\n      add\n      swap1\n      tag_24\n      swap2\n      swap1\n      tag_13\n      jump\t// in\n    tag_24:\n      tag_25\n      jump\t// in\n    tag_23:\n      stop\n        /* \"contracts/app.sol\":2970:3312  function getEthPrice() public view returns (uint) {... */\n    tag_5:\n      callvalue\n      dup1\n      iszero\n      tag_26\n      jumpi\n      0x00\n      dup1\n      revert\n    tag_26:\n      pop\n      tag_27\n      tag_28\n      jump\t// in\n    tag_27:\n      mload(0x40)\n      tag_29\n      swap2\n      swap1\n      tag_30\n      jump\t// in\n    tag_29:\n      mload(0x40)\n      dup1\n      swap2\n      sub\n      swap1\n      return\n        /* \"contracts/app.sol\":1001:1424  function depositCollateral() external payable {... */\n    tag_6:\n      tag_31\n      tag_32\n      jump\t// in\n    tag_31:\n      stop\n        /* \"contracts/app.sol\":2116:2323  function getCollateral(address user) external view returns (uint256 amount, uint256 timestamp) {... */\n    tag_7:\n      callvalue\n      dup1\n      iszero\n      tag_33\n      jumpi\n      0x00\n      dup1\n      revert\n    tag_33:\n      pop\n      tag_34\n      0x04\n      dup1\n      calldatasize\n      sub\n      dup2\n      add\n      swap1\n      tag_35\n      swap2\n      swap1\n      tag_18\n      jump\t// in\n    tag_35:\n      tag_36\n      jump\t// in\n    tag_34:\n      mload(0x40)\n      tag_37\n      swap3\n      swap2\n      swap1\n      tag_38\n      jump\t// in\n    tag_37:\n      mload(0x40)\n      dup1\n      swap2\n      sub\n      swap1\n      return\n        /* \"contracts/app.sol\":2331:2521  function getAvailableAmountLoan(address user) external view returns (uint256 amount){... */\n    tag_8:\n      callvalue\n      dup1\n      iszero\n      tag_39\n      jumpi\n      0x00\n      dup1\n      revert\n    tag_39:\n      pop\n      tag_40\n      0x04\n      dup1\n      calldatasize\n      sub\n      dup2\n      add\n      swap1\n      tag_41\n      swap2\n      swap1\n      tag_18\n      jump\t// in\n    tag_41:\n      tag_42\n      jump\t// in\n    tag_40:\n      mload(0x40)\n      tag_43\n      swap2\n      swap1\n      tag_30\n      jump\t// in\n    tag_43:\n      mload(0x40)\n      dup1\n      swap2\n      sub\n      swap1\n      return\n        /* \"contracts/app.sol\":2529:2962  function withdrawLoan(uint256 amount) external {... */\n    tag_14:\n        /* \"contracts/app.sol\":2587:2610  Account storage account */\n      0x00\n        /* \"contracts/app.sol\":2613:2621  accounts */\n      0x02\n        /* \"contracts/app.sol\":2613:2633  accounts[msg.sender] */\n      0x00\n        /* \"contracts/app.sol\":2622:2632  msg.sender */\n      caller\n        /* \"contracts/app.sol\":2613:2633  accounts[msg.sender] */\n      0xffffffffffffffffffffffffffffffffffffffff\n      and\n      0xffffffffffffffffffffffffffffffffffffffff\n      and\n      dup2\n      mstore\n      0x20\n      add\n      swap1\n      dup2\n      mstore\n      0x20\n      add\n      0x00\n      keccak256\n        /* \"contracts/app.sol\":2587:2633  Account storage account = accounts[msg.sender] */\n      swap1\n      pop\n        /* \"contracts/app.sol\":2682:2683  0 */\n      0x00\n        /* \"contracts/app.sol\":2652:2659  account */\n      dup2\n        /* \"contracts/app.sol\":2652:2679  account.availableAmountLoan */\n      0x03\n      add\n      sload\n        /* \"contracts/app.sol\":2652:2683  account.availableAmountLoan > 0 */\n      gt\n        /* \"contracts/app.sol\":2644:2684  require(account.availableAmountLoan > 0) */\n      tag_45\n      jumpi\n      0x00\n      dup1\n      revert\n    tag_45:\n        /* \"contracts/app.sol\":2715:2721  amount */\n      dup2\n        /* \"contracts/app.sol\":2697:2704  account */\n      dup2\n        /* \"contracts/app.sol\":2697:2711  account.amount */\n      0x00\n      add\n      0x00\n        /* \"contracts/app.sol\":2697:2721  account.amount -= amount */\n      dup3\n      dup3\n      sload\n      tag_46\n      swap2\n      swap1\n      tag_47\n      jump\t// in\n    tag_46:\n      swap3\n      pop\n      pop\n      dup2\n      swap1\n      sstore\n      pop\n        /* \"contracts/app.sol\":2754:2760  amount */\n      dup2\n        /* \"contracts/app.sol\":2732:2739  account */\n      dup2\n        /* \"contracts/app.sol\":2732:2750  account.amountLoan */\n      0x01\n      add\n      0x00\n        /* \"contracts/app.sol\":2732:2760  account.amountLoan += amount */\n      dup3\n      dup3\n      sload\n      tag_48\n      swap2\n      swap1\n      tag_49\n      jump\t// in\n    tag_48:\n      swap3\n      pop\n      pop\n      dup2\n      swap1\n      sstore\n      pop\n        /* \"contracts/app.sol\":2802:2808  amount */\n      dup2\n        /* \"contracts/app.sol\":2771:2778  account */\n      dup2\n        /* \"contracts/app.sol\":2771:2798  account.availableAmountLoan */\n      0x03\n      add\n      0x00\n        /* \"contracts/app.sol\":2771:2808  account.availableAmountLoan -= amount */\n      dup3\n      dup3\n      sload\n      tag_50\n      swap2\n      swap1\n      tag_47\n      jump\t// in\n    tag_50:\n      swap3\n      pop\n      pop\n      dup2\n      swap1\n      sstore\n      pop\n        /* \"contracts/app.sol\":2842:2855  getEthPrice() */\n      tag_51\n        /* \"contracts/app.sol\":2842:2853  getEthPrice */\n      tag_28\n        /* \"contracts/app.sol\":2842:2855  getEthPrice() */\n      jump\t// in\n    tag_51:\n        /* \"contracts/app.sol\":2819:2826  account */\n      dup2\n        /* \"contracts/app.sol\":2819:2838  account.loanAtPrice */\n      0x02\n      add\n      0x00\n        /* \"contracts/app.sol\":2819:2855  account.loanAtPrice += getEthPrice() */\n      dup3\n      dup3\n      sload\n      tag_52\n      swap2\n      swap1\n      tag_49\n      jump\t// in\n    tag_52:\n      swap3\n      pop\n      pop\n      dup2\n      swap1\n      sstore\n      pop\n        /* \"contracts/app.sol\":2876:2886  msg.sender */\n      caller\n        /* \"contracts/app.sol\":2868:2896  payable(msg.sender).transfer */\n      0xffffffffffffffffffffffffffffffffffffffff\n      and\n        /* \"contracts/app.sol\":2868:2904  payable(msg.sender).transfer(amount) */\n      0x08fc\n        /* \"contracts/app.sol\":2897:2903  amount */\n      dup4\n        /* \"contracts/app.sol\":2868:2904  payable(msg.sender).transfer(amount) */\n      swap1\n      dup2\n      iszero\n      mul\n      swap1\n      mload(0x40)\n      0x00\n      mload(0x40)\n      dup1\n      dup4\n      sub\n      dup2\n      dup6\n      dup9\n      dup9\n      call\n      swap4\n      pop\n      pop\n      pop\n      pop\n      iszero\n      dup1\n      iszero\n      tag_54\n      jumpi\n      returndatasize\n      0x00\n      dup1\n      returndatacopy\n      revert(0x00, returndatasize)\n    tag_54:\n      pop\n        /* \"contracts/app.sol\":2935:2945  msg.sender */\n      caller\n        /* \"contracts/app.sol\":2922:2954  LoanWithdraw(msg.sender, amount) */\n      0xffffffffffffffffffffffffffffffffffffffff\n      and\n      0x9fc64c8ef100e2584ce71f7bb2f62474d1a63a9f3fc4d216bacea670c289614a\n        /* \"contracts/app.sol\":2947:2953  amount */\n      dup4\n        /* \"contracts/app.sol\":2922:2954  LoanWithdraw(msg.sender, amount) */\n      mload(0x40)\n      tag_55\n      swap2\n      swap1\n      tag_30\n      jump\t// in\n    tag_55:\n      mload(0x40)\n      dup1\n      swap2\n      sub\n      swap1\n      log2\n        /* \"contracts/app.sol\":2576:2962  {... */\n      pop\n        /* \"contracts/app.sol\":2529:2962  function withdrawLoan(uint256 amount) external {... */\n      pop\n      jump\t// out\n        /* \"contracts/app.sol\":708:751  mapping(address => Account) public accounts */\n    tag_19:\n      mstore(0x20, 0x02)\n      dup1\n      0x00\n      mstore\n      keccak256(0x00, 0x40)\n      0x00\n      swap2\n      pop\n      swap1\n      pop\n      dup1\n      0x00\n      add\n      sload\n      swap1\n      dup1\n      0x01\n      add\n      sload\n      swap1\n      dup1\n      0x02\n      add\n      sload\n      swap1\n      dup1\n      0x03\n      add\n      sload\n      swap1\n      dup1\n      0x04\n      add\n      sload\n      swap1\n      pop\n      dup6\n      jump\t// out\n        /* \"contracts/app.sol\":1432:2108  function withdrawCollateral(uint256 withdrawAmount) external {... */\n    tag_25:\n        /* \"contracts/app.sol\":1504:1527  Account storage account */\n      0x00\n        /* \"contracts/app.sol\":1530:1538  accounts */\n      0x02\n        /* \"contracts/app.sol\":1530:1550  accounts[msg.sender] */\n      0x00\n        /* \"contracts/app.sol\":1539:1549  msg.sender */\n      caller\n        /* \"contracts/app.sol\":1530:1550  accounts[msg.sender] */\n      0xffffffffffffffffffffffffffffffffffffffff\n      and\n      0xffffffffffffffffffffffffffffffffffffffff\n      and\n      dup2\n      mstore\n      0x20\n      add\n      swap1\n      dup2\n      mstore\n      0x20\n      add\n      0x00\n      keccak256\n        /* \"contracts/app.sol\":1504:1550  Account storage account = accounts[msg.sender] */\n      swap1\n      pop\n        /* \"contracts/app.sol\":1561:1575  uint256 amount */\n      0x00\n        /* \"contracts/app.sol\":1578:1585  account */\n      dup2\n        /* \"contracts/app.sol\":1578:1592  account.amount */\n      0x00\n      add\n      sload\n        /* \"contracts/app.sol\":1561:1592  uint256 amount = account.amount */\n      swap1\n      pop\n        /* \"contracts/app.sol\":1620:1621  0 */\n      0x00\n        /* \"contracts/app.sol\":1611:1617  amount */\n      dup2\n        /* \"contracts/app.sol\":1611:1621  amount > 0 */\n      gt\n        /* \"contracts/app.sol\":1603:1651  require(amount > 0, \"No collateral to withdraw\") */\n      tag_57\n      jumpi\n      mload(0x40)\n      0x08c379a000000000000000000000000000000000000000000000000000000000\n      dup2\n      mstore\n      0x04\n      add\n      tag_58\n      swap1\n      tag_59\n      jump\t// in\n    tag_58:\n      mload(0x40)\n      dup1\n      swap2\n      sub\n      swap1\n      revert\n    tag_57:\n        /* \"contracts/app.sol\":1687:1688  0 */\n      0x00\n        /* \"contracts/app.sol\":1670:1684  withdrawAmount */\n      dup4\n        /* \"contracts/app.sol\":1670:1688  withdrawAmount > 0 */\n      gt\n        /* \"contracts/app.sol\":1662:1736  require(withdrawAmount > 0, \"Withdrawal amount must be greater than zero\") */\n      tag_60\n      jumpi\n      mload(0x40)\n      0x08c379a000000000000000000000000000000000000000000000000000000000\n      dup2\n      mstore\n      0x04\n      add\n      tag_61\n      swap1\n      tag_62\n      jump\t// in\n    tag_61:\n      mload(0x40)\n      dup1\n      swap2\n      sub\n      swap1\n      revert\n    tag_60:\n        /* \"contracts/app.sol\":1773:1779  amount */\n      dup1\n        /* \"contracts/app.sol\":1755:1769  withdrawAmount */\n      dup4\n        /* \"contracts/app.sol\":1755:1779  withdrawAmount <= amount */\n      gt\n      iszero\n        /* \"contracts/app.sol\":1747:1831  require(withdrawAmount <= amount, \"Insufficient collateral to withdraw this amount\") */\n      tag_63\n      jumpi\n      mload(0x40)\n      0x08c379a000000000000000000000000000000000000000000000000000000000\n      dup2\n      mstore\n      0x04\n      add\n      tag_64\n      swap1\n      tag_65\n      jump\t// in\n    tag_64:\n      mload(0x40)\n      dup1\n      swap2\n      sub\n      swap1\n      revert\n    tag_63:\n        /* \"contracts/app.sol\":1862:1876  withdrawAmount */\n      dup3\n        /* \"contracts/app.sol\":1844:1851  account */\n      dup3\n        /* \"contracts/app.sol\":1844:1858  account.amount */\n      0x00\n      add\n      0x00\n        /* \"contracts/app.sol\":1844:1876  account.amount -= withdrawAmount */\n      dup3\n      dup3\n      sload\n      tag_66\n      swap2\n      swap1\n      tag_47\n      jump\t// in\n    tag_66:\n      swap3\n      pop\n      pop\n      dup2\n      swap1\n      sstore\n      pop\n        /* \"contracts/app.sol\":1911:1912  0 */\n      0x00\n        /* \"contracts/app.sol\":1893:1900  account */\n      dup3\n        /* \"contracts/app.sol\":1893:1907  account.amount */\n      0x00\n      add\n      sload\n        /* \"contracts/app.sol\":1893:1912  account.amount == 0 */\n      sub\n        /* \"contracts/app.sol\":1889:1962  if (account.amount == 0) {... */\n      tag_67\n      jumpi\n        /* \"contracts/app.sol\":1949:1950  0 */\n      0x00\n        /* \"contracts/app.sol\":1929:1936  account */\n      dup3\n        /* \"contracts/app.sol\":1929:1946  account.timestamp */\n      0x04\n      add\n        /* \"contracts/app.sol\":1929:1950  account.timestamp = 0 */\n      dup2\n      swap1\n      sstore\n      pop\n        /* \"contracts/app.sol\":1889:1962  if (account.amount == 0) {... */\n    tag_67:\n        /* \"contracts/app.sol\":1982:1992  msg.sender */\n      caller\n        /* \"contracts/app.sol\":1974:2002  payable(msg.sender).transfer */\n      0xffffffffffffffffffffffffffffffffffffffff\n      and\n        /* \"contracts/app.sol\":1974:2018  payable(msg.sender).transfer(withdrawAmount) */\n      0x08fc\n        /* \"contracts/app.sol\":2003:2017  withdrawAmount */\n      dup5\n        /* \"contracts/app.sol\":1974:2018  payable(msg.sender).transfer(withdrawAmount) */\n      swap1\n      dup2\n      iszero\n      mul\n      swap1\n      mload(0x40)\n      0x00\n      mload(0x40)\n      dup1\n      dup4\n      sub\n      dup2\n      dup6\n      dup9\n      dup9\n      call\n      swap4\n      pop\n      pop\n      pop\n      pop\n      iszero\n      dup1\n      iszero\n      tag_69\n      jumpi\n      returndatasize\n      0x00\n      dup1\n      returndatacopy\n      revert(0x00, returndatasize)\n    tag_69:\n      pop\n        /* \"contracts/app.sol\":2056:2066  msg.sender */\n      caller\n        /* \"contracts/app.sol\":2036:2100  CollateralWithdrawn(msg.sender, withdrawAmount, block.timestamp) */\n      0xffffffffffffffffffffffffffffffffffffffff\n      and\n      0xdaed309a628faec6cab72194019e2a1a34e890ca9bf9be99788992dd54692819\n        /* \"contracts/app.sol\":2068:2082  withdrawAmount */\n      dup5\n        /* \"contracts/app.sol\":2084:2099  block.timestamp */\n      timestamp\n        /* \"contracts/app.sol\":2036:2100  CollateralWithdrawn(msg.sender, withdrawAmount, block.timestamp) */\n      mload(0x40)\n      tag_70\n      swap3\n      swap2\n      swap1\n      tag_38\n      jump\t// in\n    tag_70:\n      mload(0x40)\n      dup1\n      swap2\n      sub\n      swap1\n      log2\n        /* \"contracts/app.sol\":1493:2108  {... */\n      pop\n      pop\n        /* \"contracts/app.sol\":1432:2108  function withdrawCollateral(uint256 withdrawAmount) external {... */\n      pop\n      jump\t// out\n        /* \"contracts/app.sol\":2970:3312  function getEthPrice() public view returns (uint) {... */\n    tag_28:\n        /* \"contracts/app.sol\":3014:3018  uint */\n      0x00\n        /* \"contracts/app.sol\":3081:3091  int answer */\n      dup1\n        /* \"contracts/app.sol\":3212:3220  dataFeed */\n      0x01\n      0x00\n      swap1\n      sload\n      swap1\n      0x0100\n      exp\n      swap1\n      div\n      0xffffffffffffffffffffffffffffffffffffffff\n      and\n        /* \"contracts/app.sol\":3212:3236  dataFeed.latestRoundData */\n      0xffffffffffffffffffffffffffffffffffffffff\n      and\n      0xfeaf968c\n        /* \"contracts/app.sol\":3212:3238  dataFeed.latestRoundData() */\n      mload(0x40)\n      dup2\n      0xffffffff\n      and\n      0xe0\n      shl\n      dup2\n      mstore\n      0x04\n      add\n      0xa0\n      mload(0x40)\n      dup1\n      dup4\n      sub\n      dup2\n      dup7\n      gas\n      staticcall\n      iszero\n      dup1\n      iszero\n      tag_73\n      jumpi\n      returndatasize\n      0x00\n      dup1\n      returndatacopy\n      revert(0x00, returndatasize)\n    tag_73:\n      pop\n      pop\n      pop\n      pop\n      mload(0x40)\n      returndatasize\n      not(0x1f)\n      0x1f\n      dup3\n      add\n      and\n      dup3\n      add\n      dup1\n      0x40\n      mstore\n      pop\n      dup2\n      add\n      swap1\n      tag_74\n      swap2\n      swap1\n      tag_75\n      jump\t// in\n    tag_74:\n        /* \"contracts/app.sol\":3031:3238  (... */\n      pop\n      pop\n      pop\n      swap2\n      pop\n      pop\n        /* \"contracts/app.sol\":3249:3259  int amount */\n      0x00\n        /* \"contracts/app.sol\":3271:3274  1e8 */\n      0x05f5e100\n        /* \"contracts/app.sol\":3262:3268  answer */\n      dup3\n        /* \"contracts/app.sol\":3262:3274  answer / 1e8 */\n      tag_76\n      swap2\n      swap1\n      tag_77\n      jump\t// in\n    tag_76:\n        /* \"contracts/app.sol\":3249:3274  int amount = answer / 1e8 */\n      swap1\n      pop\n        /* \"contracts/app.sol\":3297:3303  amount */\n      dup1\n        /* \"contracts/app.sol\":3285:3304  return uint(amount) */\n      swap3\n      pop\n      pop\n      pop\n        /* \"contracts/app.sol\":2970:3312  function getEthPrice() public view returns (uint) {... */\n      swap1\n      jump\t// out\n        /* \"contracts/app.sol\":1001:1424  function depositCollateral() external payable {... */\n    tag_32:\n        /* \"contracts/app.sol\":1078:1079  0 */\n      0x00\n        /* \"contracts/app.sol\":1066:1075  msg.value */\n      callvalue\n        /* \"contracts/app.sol\":1066:1079  msg.value > 0 */\n      gt\n        /* \"contracts/app.sol\":1058:1124  require(msg.value > 0, \"Deposit amount must be greater than zero\") */\n      tag_79\n      jumpi\n      mload(0x40)\n      0x08c379a000000000000000000000000000000000000000000000000000000000\n      dup2\n      mstore\n      0x04\n      add\n      tag_80\n      swap1\n      tag_81\n      jump\t// in\n    tag_80:\n      mload(0x40)\n      dup1\n      swap2\n      sub\n      swap1\n      revert\n    tag_79:\n        /* \"contracts/app.sol\":1137:1160  Account storage account */\n      0x00\n        /* \"contracts/app.sol\":1163:1171  accounts */\n      0x02\n        /* \"contracts/app.sol\":1163:1183  accounts[msg.sender] */\n      0x00\n        /* \"contracts/app.sol\":1172:1182  msg.sender */\n      caller\n        /* \"contracts/app.sol\":1163:1183  accounts[msg.sender] */\n      0xffffffffffffffffffffffffffffffffffffffff\n      and\n      0xffffffffffffffffffffffffffffffffffffffff\n      and\n      dup2\n      mstore\n      0x20\n      add\n      swap1\n      dup2\n      mstore\n      0x20\n      add\n      0x00\n      keccak256\n        /* \"contracts/app.sol\":1137:1183  Account storage account = accounts[msg.sender] */\n      swap1\n      pop\n        /* \"contracts/app.sol\":1212:1221  msg.value */\n      callvalue\n        /* \"contracts/app.sol\":1194:1201  account */\n      dup2\n        /* \"contracts/app.sol\":1194:1208  account.amount */\n      0x00\n      add\n      0x00\n        /* \"contracts/app.sol\":1194:1221  account.amount += msg.value */\n      dup3\n      dup3\n      sload\n      tag_82\n      swap2\n      swap1\n      tag_49\n      jump\t// in\n    tag_82:\n      swap3\n      pop\n      pop\n      dup2\n      swap1\n      sstore\n      pop\n        /* \"contracts/app.sol\":1289:1293  1e18 */\n      0x0de0b6b3a7640000\n        /* \"contracts/app.sol\":272:276  5e17 */\n      0x06f05b59d3b20000\n        /* \"contracts/app.sol\":1264:1273  msg.value */\n      callvalue\n        /* \"contracts/app.sol\":1264:1287  msg.value * loanPercent */\n      tag_83\n      swap2\n      swap1\n      tag_84\n      jump\t// in\n    tag_83:\n        /* \"contracts/app.sol\":1263:1293  (msg.value * loanPercent)/1e18 */\n      tag_85\n      swap2\n      swap1\n      tag_86\n      jump\t// in\n    tag_85:\n        /* \"contracts/app.sol\":1232:1239  account */\n      dup2\n        /* \"contracts/app.sol\":1232:1259  account.availableAmountLoan */\n      0x03\n      add\n      0x00\n        /* \"contracts/app.sol\":1232:1293  account.availableAmountLoan += (msg.value * loanPercent)/1e18 */\n      dup3\n      dup3\n      sload\n      tag_87\n      swap2\n      swap1\n      tag_49\n      jump\t// in\n    tag_87:\n      swap3\n      pop\n      pop\n      dup2\n      swap1\n      sstore\n      pop\n        /* \"contracts/app.sol\":1324:1339  block.timestamp */\n      timestamp\n        /* \"contracts/app.sol\":1304:1311  account */\n      dup2\n        /* \"contracts/app.sol\":1304:1321  account.timestamp */\n      0x04\n      add\n        /* \"contracts/app.sol\":1304:1339  account.timestamp = block.timestamp */\n      dup2\n      swap1\n      sstore\n      pop\n        /* \"contracts/app.sol\":1377:1387  msg.sender */\n      caller\n        /* \"contracts/app.sol\":1357:1416  CollateralDeposited(msg.sender, msg.value, block.timestamp) */\n      0xffffffffffffffffffffffffffffffffffffffff\n      and\n      0xf4d587c98d234ca4d147061e6b5167e7f41ee17f11562a9f0b49570abece859e\n        /* \"contracts/app.sol\":1389:1398  msg.value */\n      callvalue\n        /* \"contracts/app.sol\":1400:1415  block.timestamp */\n      timestamp\n        /* \"contracts/app.sol\":1357:1416  CollateralDeposited(msg.sender, msg.value, block.timestamp) */\n      mload(0x40)\n      tag_88\n      swap3\n      swap2\n      swap1\n      tag_38\n      jump\t// in\n    tag_88:\n      mload(0x40)\n      dup1\n      swap2\n      sub\n      swap1\n      log2\n        /* \"contracts/app.sol\":1047:1424  {... */\n      pop\n        /* \"contracts/app.sol\":1001:1424  function depositCollateral() external payable {... */\n      jump\t// out\n        /* \"contracts/app.sol\":2116:2323  function getCollateral(address user) external view returns (uint256 amount, uint256 timestamp) {... */\n    tag_36:\n        /* \"contracts/app.sol\":2176:2190  uint256 amount */\n      0x00\n        /* \"contracts/app.sol\":2192:2209  uint256 timestamp */\n      dup1\n        /* \"contracts/app.sol\":2222:2245  Account storage account */\n      0x00\n        /* \"contracts/app.sol\":2248:2256  accounts */\n      0x02\n        /* \"contracts/app.sol\":2248:2262  accounts[user] */\n      0x00\n        /* \"contracts/app.sol\":2257:2261  user */\n      dup6\n        /* \"contracts/app.sol\":2248:2262  accounts[user] */\n      0xffffffffffffffffffffffffffffffffffffffff\n      and\n      0xffffffffffffffffffffffffffffffffffffffff\n      and\n      dup2\n      mstore\n      0x20\n      add\n      swap1\n      dup2\n      mstore\n      0x20\n      add\n      0x00\n      keccak256\n        /* \"contracts/app.sol\":2222:2262  Account storage account = accounts[user] */\n      swap1\n      pop\n        /* \"contracts/app.sol\":2281:2288  account */\n      dup1\n        /* \"contracts/app.sol\":2281:2295  account.amount */\n      0x00\n      add\n      sload\n        /* \"contracts/app.sol\":2297:2304  account */\n      dup2\n        /* \"contracts/app.sol\":2297:2314  account.timestamp */\n      0x04\n      add\n      sload\n        /* \"contracts/app.sol\":2273:2315  return (account.amount, account.timestamp) */\n      swap3\n      pop\n      swap3\n      pop\n      pop\n        /* \"contracts/app.sol\":2116:2323  function getCollateral(address user) external view returns (uint256 amount, uint256 timestamp) {... */\n      swap2\n      pop\n      swap2\n      jump\t// out\n        /* \"contracts/app.sol\":2331:2521  function getAvailableAmountLoan(address user) external view returns (uint256 amount){... */\n    tag_42:\n        /* \"contracts/app.sol\":2400:2414  uint256 amount */\n      0x00\n        /* \"contracts/app.sol\":2426:2449  Account storage account */\n      dup1\n        /* \"contracts/app.sol\":2452:2460  accounts */\n      0x02\n        /* \"contracts/app.sol\":2452:2466  accounts[user] */\n      0x00\n        /* \"contracts/app.sol\":2461:2465  user */\n      dup5\n        /* \"contracts/app.sol\":2452:2466  accounts[user] */\n      0xffffffffffffffffffffffffffffffffffffffff\n      and\n      0xffffffffffffffffffffffffffffffffffffffff\n      and\n      dup2\n      mstore\n      0x20\n      add\n      swap1\n      dup2\n      mstore\n      0x20\n      add\n      0x00\n      keccak256\n        /* \"contracts/app.sol\":2426:2466  Account storage account = accounts[user] */\n      swap1\n      pop\n        /* \"contracts/app.sol\":2485:2492  account */\n      dup1\n        /* \"contracts/app.sol\":2485:2512  account.availableAmountLoan */\n      0x03\n      add\n      sload\n        /* \"contracts/app.sol\":2477:2513  return (account.availableAmountLoan) */\n      swap2\n      pop\n      pop\n        /* \"contracts/app.sol\":2331:2521  function getAvailableAmountLoan(address user) external view returns (uint256 amount){... */\n      swap2\n      swap1\n      pop\n      jump\t// out\n        /* \"#utility.yul\":88:205   */\n    tag_92:\n        /* \"#utility.yul\":197:198   */\n      0x00\n        /* \"#utility.yul\":194:195   */\n      dup1\n        /* \"#utility.yul\":187:199   */\n      revert\n        /* \"#utility.yul\":334:411   */\n    tag_94:\n        /* \"#utility.yul\":371:378   */\n      0x00\n        /* \"#utility.yul\":400:405   */\n      dup2\n        /* \"#utility.yul\":389:405   */\n      swap1\n      pop\n        /* \"#utility.yul\":334:411   */\n      swap2\n      swap1\n      pop\n      jump\t// out\n        /* \"#utility.yul\":417:539   */\n    tag_95:\n        /* \"#utility.yul\":490:514   */\n      tag_126\n        /* \"#utility.yul\":508:513   */\n      dup2\n        /* \"#utility.yul\":490:514   */\n      tag_94\n      jump\t// in\n    tag_126:\n        /* \"#utility.yul\":483:488   */\n      dup2\n        /* \"#utility.yul\":480:515   */\n      eq\n        /* \"#utility.yul\":470:533   */\n      tag_127\n      jumpi\n        /* \"#utility.yul\":529:530   */\n      0x00\n        /* \"#utility.yul\":526:527   */\n      dup1\n        /* \"#utility.yul\":519:531   */\n      revert\n        /* \"#utility.yul\":470:533   */\n    tag_127:\n        /* \"#utility.yul\":417:539   */\n      pop\n      jump\t// out\n        /* \"#utility.yul\":545:684   */\n    tag_96:\n        /* \"#utility.yul\":591:596   */\n      0x00\n        /* \"#utility.yul\":629:635   */\n      dup2\n        /* \"#utility.yul\":616:636   */\n      calldataload\n        /* \"#utility.yul\":607:636   */\n      swap1\n      pop\n        /* \"#utility.yul\":645:678   */\n      tag_129\n        /* \"#utility.yul\":672:677   */\n      dup2\n        /* \"#utility.yul\":645:678   */\n      tag_95\n      jump\t// in\n    tag_129:\n        /* \"#utility.yul\":545:684   */\n      swap3\n      swap2\n      pop\n      pop\n      jump\t// out\n        /* \"#utility.yul\":690:1019   */\n    tag_13:\n        /* \"#utility.yul\":749:755   */\n      0x00\n        /* \"#utility.yul\":798:800   */\n      0x20\n        /* \"#utility.yul\":786:795   */\n      dup3\n        /* \"#utility.yul\":777:784   */\n      dup5\n        /* \"#utility.yul\":773:796   */\n      sub\n        /* \"#utility.yul\":769:801   */\n      slt\n        /* \"#utility.yul\":766:885   */\n      iszero\n      tag_131\n      jumpi\n        /* \"#utility.yul\":804:883   */\n      tag_132\n      tag_92\n      jump\t// in\n    tag_132:\n        /* \"#utility.yul\":766:885   */\n    tag_131:\n        /* \"#utility.yul\":924:925   */\n      0x00\n        /* \"#utility.yul\":949:1002   */\n      tag_133\n        /* \"#utility.yul\":994:1001   */\n      dup5\n        /* \"#utility.yul\":985:991   */\n      dup3\n        /* \"#utility.yul\":974:983   */\n      dup6\n        /* \"#utility.yul\":970:992   */\n      add\n        /* \"#utility.yul\":949:1002   */\n      tag_96\n      jump\t// in\n    tag_133:\n        /* \"#utility.yul\":939:1002   */\n      swap2\n      pop\n        /* \"#utility.yul\":895:1012   */\n      pop\n        /* \"#utility.yul\":690:1019   */\n      swap3\n      swap2\n      pop\n      pop\n      jump\t// out\n        /* \"#utility.yul\":1025:1151   */\n    tag_97:\n        /* \"#utility.yul\":1062:1069   */\n      0x00\n        /* \"#utility.yul\":1102:1144   */\n      0xffffffffffffffffffffffffffffffffffffffff\n        /* \"#utility.yul\":1095:1100   */\n      dup3\n        /* \"#utility.yul\":1091:1145   */\n      and\n        /* \"#utility.yul\":1080:1145   */\n      swap1\n      pop\n        /* \"#utility.yul\":1025:1151   */\n      swap2\n      swap1\n      pop\n      jump\t// out\n        /* \"#utility.yul\":1157:1253   */\n    tag_98:\n        /* \"#utility.yul\":1194:1201   */\n      0x00\n        /* \"#utility.yul\":1223:1247   */\n      tag_136\n        /* \"#utility.yul\":1241:1246   */\n      dup3\n        /* \"#utility.yul\":1223:1247   */\n      tag_97\n      jump\t// in\n    tag_136:\n        /* \"#utility.yul\":1212:1247   */\n      swap1\n      pop\n        /* \"#utility.yul\":1157:1253   */\n      swap2\n      swap1\n      pop\n      jump\t// out\n        /* \"#utility.yul\":1259:1381   */\n    tag_99:\n        /* \"#utility.yul\":1332:1356   */\n      tag_138\n        /* \"#utility.yul\":1350:1355   */\n      dup2\n        /* \"#utility.yul\":1332:1356   */\n      tag_98\n      jump\t// in\n    tag_138:\n        /* \"#utility.yul\":1325:1330   */\n      dup2\n        /* \"#utility.yul\":1322:1357   */\n      eq\n        /* \"#utility.yul\":1312:1375   */\n      tag_139\n      jumpi\n        /* \"#utility.yul\":1371:1372   */\n      0x00\n        /* \"#utility.yul\":1368:1369   */\n      dup1\n        /* \"#utility.yul\":1361:1373   */\n      revert\n        /* \"#utility.yul\":1312:1375   */\n    tag_139:\n        /* \"#utility.yul\":1259:1381   */\n      pop\n      jump\t// out\n        /* \"#utility.yul\":1387:1526   */\n    tag_100:\n        /* \"#utility.yul\":1433:1438   */\n      0x00\n        /* \"#utility.yul\":1471:1477   */\n      dup2\n        /* \"#utility.yul\":1458:1478   */\n      calldataload\n        /* \"#utility.yul\":1449:1478   */\n      swap1\n      pop\n        /* \"#utility.yul\":1487:1520   */\n      tag_141\n        /* \"#utility.yul\":1514:1519   */\n      dup2\n        /* \"#utility.yul\":1487:1520   */\n      tag_99\n      jump\t// in\n    tag_141:\n        /* \"#utility.yul\":1387:1526   */\n      swap3\n      swap2\n      pop\n      pop\n      jump\t// out\n        /* \"#utility.yul\":1532:1861   */\n    tag_18:\n        /* \"#utility.yul\":1591:1597   */\n      0x00\n        /* \"#utility.yul\":1640:1642   */\n      0x20\n        /* \"#utility.yul\":1628:1637   */\n      dup3\n        /* \"#utility.yul\":1619:1626   */\n      dup5\n        /* \"#utility.yul\":1615:1638   */\n      sub\n        /* \"#utility.yul\":1611:1643   */\n      slt\n        /* \"#utility.yul\":1608:1727   */\n      iszero\n      tag_143\n      jumpi\n        /* \"#utility.yul\":1646:1725   */\n      tag_144\n      tag_92\n      jump\t// in\n    tag_144:\n        /* \"#utility.yul\":1608:1727   */\n    tag_143:\n        /* \"#utility.yul\":1766:1767   */\n      0x00\n        /* \"#utility.yul\":1791:1844   */\n      tag_145\n        /* \"#utility.yul\":1836:1843   */\n      dup5\n        /* \"#utility.yul\":1827:1833   */\n      dup3\n        /* \"#utility.yul\":1816:1825   */\n      dup6\n        /* \"#utility.yul\":1812:1834   */\n      add\n        /* \"#utility.yul\":1791:1844   */\n      tag_100\n      jump\t// in\n    tag_145:\n        /* \"#utility.yul\":1781:1844   */\n      swap2\n      pop\n        /* \"#utility.yul\":1737:1854   */\n      pop\n        /* \"#utility.yul\":1532:1861   */\n      swap3\n      swap2\n      pop\n      pop\n      jump\t// out\n        /* \"#utility.yul\":1867:1985   */\n    tag_101:\n        /* \"#utility.yul\":1954:1978   */\n      tag_147\n        /* \"#utility.yul\":1972:1977   */\n      dup2\n        /* \"#utility.yul\":1954:1978   */\n      tag_94\n      jump\t// in\n    tag_147:\n        /* \"#utility.yul\":1949:1952   */\n      dup3\n        /* \"#utility.yul\":1942:1979   */\n      mstore\n        /* \"#utility.yul\":1867:1985   */\n      pop\n      pop\n      jump\t// out\n        /* \"#utility.yul\":1991:2655   */\n    tag_21:\n        /* \"#utility.yul\":2196:2200   */\n      0x00\n        /* \"#utility.yul\":2234:2237   */\n      0xa0\n        /* \"#utility.yul\":2223:2232   */\n      dup3\n        /* \"#utility.yul\":2219:2238   */\n      add\n        /* \"#utility.yul\":2211:2238   */\n      swap1\n      pop\n        /* \"#utility.yul\":2248:2319   */\n      tag_149\n        /* \"#utility.yul\":2316:2317   */\n      0x00\n        /* \"#utility.yul\":2305:2314   */\n      dup4\n        /* \"#utility.yul\":2301:2318   */\n      add\n        /* \"#utility.yul\":2292:2298   */\n      dup9\n        /* \"#utility.yul\":2248:2319   */\n      tag_101\n      jump\t// in\n    tag_149:\n        /* \"#utility.yul\":2329:2401   */\n      tag_150\n        /* \"#utility.yul\":2397:2399   */\n      0x20\n        /* \"#utility.yul\":2386:2395   */\n      dup4\n        /* \"#utility.yul\":2382:2400   */\n      add\n        /* \"#utility.yul\":2373:2379   */\n      dup8\n        /* \"#utility.yul\":2329:2401   */\n      tag_101\n      jump\t// in\n    tag_150:\n        /* \"#utility.yul\":2411:2483   */\n      tag_151\n        /* \"#utility.yul\":2479:2481   */\n      0x40\n        /* \"#utility.yul\":2468:2477   */\n      dup4\n        /* \"#utility.yul\":2464:2482   */\n      add\n        /* \"#utility.yul\":2455:2461   */\n      dup7\n        /* \"#utility.yul\":2411:2483   */\n      tag_101\n      jump\t// in\n    tag_151:\n        /* \"#utility.yul\":2493:2565   */\n      tag_152\n        /* \"#utility.yul\":2561:2563   */\n      0x60\n        /* \"#utility.yul\":2550:2559   */\n      dup4\n        /* \"#utility.yul\":2546:2564   */\n      add\n        /* \"#utility.yul\":2537:2543   */\n      dup6\n        /* \"#utility.yul\":2493:2565   */\n      tag_101\n      jump\t// in\n    tag_152:\n        /* \"#utility.yul\":2575:2648   */\n      tag_153\n        /* \"#utility.yul\":2643:2646   */\n      0x80\n        /* \"#utility.yul\":2632:2641   */\n      dup4\n        /* \"#utility.yul\":2628:2647   */\n      add\n        /* \"#utility.yul\":2619:2625   */\n      dup5\n        /* \"#utility.yul\":2575:2648   */\n      tag_101\n      jump\t// in\n    tag_153:\n        /* \"#utility.yul\":1991:2655   */\n      swap7\n      swap6\n      pop\n      pop\n      pop\n      pop\n      pop\n      pop\n      jump\t// out\n        /* \"#utility.yul\":2661:2883   */\n    tag_30:\n        /* \"#utility.yul\":2754:2758   */\n      0x00\n        /* \"#utility.yul\":2792:2794   */\n      0x20\n        /* \"#utility.yul\":2781:2790   */\n      dup3\n        /* \"#utility.yul\":2777:2795   */\n      add\n        /* \"#utility.yul\":2769:2795   */\n      swap1\n      pop\n        /* \"#utility.yul\":2805:2876   */\n      tag_155\n        /* \"#utility.yul\":2873:2874   */\n      0x00\n        /* \"#utility.yul\":2862:2871   */\n      dup4\n        /* \"#utility.yul\":2858:2875   */\n      add\n        /* \"#utility.yul\":2849:2855   */\n      dup5\n        /* \"#utility.yul\":2805:2876   */\n      tag_101\n      jump\t// in\n    tag_155:\n        /* \"#utility.yul\":2661:2883   */\n      swap3\n      swap2\n      pop\n      pop\n      jump\t// out\n        /* \"#utility.yul\":2889:3221   */\n    tag_38:\n        /* \"#utility.yul\":3010:3014   */\n      0x00\n        /* \"#utility.yul\":3048:3050   */\n      0x40\n        /* \"#utility.yul\":3037:3046   */\n      dup3\n        /* \"#utility.yul\":3033:3051   */\n      add\n        /* \"#utility.yul\":3025:3051   */\n      swap1\n      pop\n        /* \"#utility.yul\":3061:3132   */\n      tag_157\n        /* \"#utility.yul\":3129:3130   */\n      0x00\n        /* \"#utility.yul\":3118:3127   */\n      dup4\n        /* \"#utility.yul\":3114:3131   */\n      add\n        /* \"#utility.yul\":3105:3111   */\n      dup6\n        /* \"#utility.yul\":3061:3132   */\n      tag_101\n      jump\t// in\n    tag_157:\n        /* \"#utility.yul\":3142:3214   */\n      tag_158\n        /* \"#utility.yul\":3210:3212   */\n      0x20\n        /* \"#utility.yul\":3199:3208   */\n      dup4\n        /* \"#utility.yul\":3195:3213   */\n      add\n        /* \"#utility.yul\":3186:3192   */\n      dup5\n        /* \"#utility.yul\":3142:3214   */\n      tag_101\n      jump\t// in\n    tag_158:\n        /* \"#utility.yul\":2889:3221   */\n      swap4\n      swap3\n      pop\n      pop\n      pop\n      jump\t// out\n        /* \"#utility.yul\":3227:3407   */\n    tag_102:\n        /* \"#utility.yul\":3275:3352   */\n      0x4e487b7100000000000000000000000000000000000000000000000000000000\n        /* \"#utility.yul\":3272:3273   */\n      0x00\n        /* \"#utility.yul\":3265:3353   */\n      mstore\n        /* \"#utility.yul\":3372:3376   */\n      0x11\n        /* \"#utility.yul\":3369:3370   */\n      0x04\n        /* \"#utility.yul\":3362:3377   */\n      mstore\n        /* \"#utility.yul\":3396:3400   */\n      0x24\n        /* \"#utility.yul\":3393:3394   */\n      0x00\n        /* \"#utility.yul\":3386:3401   */\n      revert\n        /* \"#utility.yul\":3413:3607   */\n    tag_47:\n        /* \"#utility.yul\":3453:3457   */\n      0x00\n        /* \"#utility.yul\":3473:3493   */\n      tag_161\n        /* \"#utility.yul\":3491:3492   */\n      dup3\n        /* \"#utility.yul\":3473:3493   */\n      tag_94\n      jump\t// in\n    tag_161:\n        /* \"#utility.yul\":3468:3493   */\n      swap2\n      pop\n        /* \"#utility.yul\":3507:3527   */\n      tag_162\n        /* \"#utility.yul\":3525:3526   */\n      dup4\n        /* \"#utility.yul\":3507:3527   */\n      tag_94\n      jump\t// in\n    tag_162:\n        /* \"#utility.yul\":3502:3527   */\n      swap3\n      pop\n        /* \"#utility.yul\":3551:3552   */\n      dup3\n        /* \"#utility.yul\":3548:3549   */\n      dup3\n        /* \"#utility.yul\":3544:3553   */\n      sub\n        /* \"#utility.yul\":3536:3553   */\n      swap1\n      pop\n        /* \"#utility.yul\":3575:3576   */\n      dup2\n        /* \"#utility.yul\":3569:3573   */\n      dup2\n        /* \"#utility.yul\":3566:3577   */\n      gt\n        /* \"#utility.yul\":3563:3600   */\n      iszero\n      tag_163\n      jumpi\n        /* \"#utility.yul\":3580:3598   */\n      tag_164\n      tag_102\n      jump\t// in\n    tag_164:\n        /* \"#utility.yul\":3563:3600   */\n    tag_163:\n        /* \"#utility.yul\":3413:3607   */\n      swap3\n      swap2\n      pop\n      pop\n      jump\t// out\n        /* \"#utility.yul\":3613:3804   */\n    tag_49:\n        /* \"#utility.yul\":3653:3656   */\n      0x00\n        /* \"#utility.yul\":3672:3692   */\n      tag_166\n        /* \"#utility.yul\":3690:3691   */\n      dup3\n        /* \"#utility.yul\":3672:3692   */\n      tag_94\n      jump\t// in\n    tag_166:\n        /* \"#utility.yul\":3667:3692   */\n      swap2\n      pop\n        /* \"#utility.yul\":3706:3726   */\n      tag_167\n        /* \"#utility.yul\":3724:3725   */\n      dup4\n        /* \"#utility.yul\":3706:3726   */\n      tag_94\n      jump\t// in\n    tag_167:\n        /* \"#utility.yul\":3701:3726   */\n      swap3\n      pop\n        /* \"#utility.yul\":3749:3750   */\n      dup3\n        /* \"#utility.yul\":3746:3747   */\n      dup3\n        /* \"#utility.yul\":3742:3751   */\n      add\n        /* \"#utility.yul\":3735:3751   */\n      swap1\n      pop\n        /* \"#utility.yul\":3770:3773   */\n      dup1\n        /* \"#utility.yul\":3767:3768   */\n      dup3\n        /* \"#utility.yul\":3764:3774   */\n      gt\n        /* \"#utility.yul\":3761:3797   */\n      iszero\n      tag_168\n      jumpi\n        /* \"#utility.yul\":3777:3795   */\n      tag_169\n      tag_102\n      jump\t// in\n    tag_169:\n        /* \"#utility.yul\":3761:3797   */\n    tag_168:\n        /* \"#utility.yul\":3613:3804   */\n      swap3\n      swap2\n      pop\n      pop\n      jump\t// out\n        /* \"#utility.yul\":3810:3979   */\n    tag_103:\n        /* \"#utility.yul\":3894:3905   */\n      0x00\n        /* \"#utility.yul\":3928:3934   */\n      dup3\n        /* \"#utility.yul\":3923:3926   */\n      dup3\n        /* \"#utility.yul\":3916:3935   */\n      mstore\n        /* \"#utility.yul\":3968:3972   */\n      0x20\n        /* \"#utility.yul\":3963:3966   */\n      dup3\n        /* \"#utility.yul\":3959:3973   */\n      add\n        /* \"#utility.yul\":3944:3973   */\n      swap1\n      pop\n        /* \"#utility.yul\":3810:3979   */\n      swap3\n      swap2\n      pop\n      pop\n      jump\t// out\n        /* \"#utility.yul\":3985:4160   */\n    tag_104:\n        /* \"#utility.yul\":4125:4152   */\n      0x4e6f20636f6c6c61746572616c20746f20776974686472617700000000000000\n        /* \"#utility.yul\":4121:4122   */\n      0x00\n        /* \"#utility.yul\":4113:4119   */\n      dup3\n        /* \"#utility.yul\":4109:4123   */\n      add\n        /* \"#utility.yul\":4102:4153   */\n      mstore\n        /* \"#utility.yul\":3985:4160   */\n      pop\n      jump\t// out\n        /* \"#utility.yul\":4166:4532   */\n    tag_105:\n        /* \"#utility.yul\":4308:4311   */\n      0x00\n        /* \"#utility.yul\":4329:4396   */\n      tag_173\n        /* \"#utility.yul\":4393:4395   */\n      0x19\n        /* \"#utility.yul\":4388:4391   */\n      dup4\n        /* \"#utility.yul\":4329:4396   */\n      tag_103\n      jump\t// in\n    tag_173:\n        /* \"#utility.yul\":4322:4396   */\n      swap2\n      pop\n        /* \"#utility.yul\":4405:4498   */\n      tag_174\n        /* \"#utility.yul\":4494:4497   */\n      dup3\n        /* \"#utility.yul\":4405:4498   */\n      tag_104\n      jump\t// in\n    tag_174:\n        /* \"#utility.yul\":4523:4525   */\n      0x20\n        /* \"#utility.yul\":4518:4521   */\n      dup3\n        /* \"#utility.yul\":4514:4526   */\n      add\n        /* \"#utility.yul\":4507:4526   */\n      swap1\n      pop\n        /* \"#utility.yul\":4166:4532   */\n      swap2\n      swap1\n      pop\n      jump\t// out\n        /* \"#utility.yul\":4538:4957   */\n    tag_59:\n        /* \"#utility.yul\":4704:4708   */\n      0x00\n        /* \"#utility.yul\":4742:4744   */\n      0x20\n        /* \"#utility.yul\":4731:4740   */\n      dup3\n        /* \"#utility.yul\":4727:4745   */\n      add\n        /* \"#utility.yul\":4719:4745   */\n      swap1\n      pop\n        /* \"#utility.yul\":4791:4800   */\n      dup2\n        /* \"#utility.yul\":4785:4789   */\n      dup2\n        /* \"#utility.yul\":4781:4801   */\n      sub\n        /* \"#utility.yul\":4777:4778   */\n      0x00\n        /* \"#utility.yul\":4766:4775   */\n      dup4\n        /* \"#utility.yul\":4762:4779   */\n      add\n        /* \"#utility.yul\":4755:4802   */\n      mstore\n        /* \"#utility.yul\":4819:4950   */\n      tag_176\n        /* \"#utility.yul\":4945:4949   */\n      dup2\n        /* \"#utility.yul\":4819:4950   */\n      tag_105\n      jump\t// in\n    tag_176:\n        /* \"#utility.yul\":4811:4950   */\n      swap1\n      pop\n        /* \"#utility.yul\":4538:4957   */\n      swap2\n      swap1\n      pop\n      jump\t// out\n        /* \"#utility.yul\":4963:5193   */\n    tag_106:\n        /* \"#utility.yul\":5103:5137   */\n      0x5769746864726177616c20616d6f756e74206d75737420626520677265617465\n        /* \"#utility.yul\":5099:5100   */\n      0x00\n        /* \"#utility.yul\":5091:5097   */\n      dup3\n        /* \"#utility.yul\":5087:5101   */\n      add\n        /* \"#utility.yul\":5080:5138   */\n      mstore\n        /* \"#utility.yul\":5172:5185   */\n      0x72207468616e207a65726f000000000000000000000000000000000000000000\n        /* \"#utility.yul\":5167:5169   */\n      0x20\n        /* \"#utility.yul\":5159:5165   */\n      dup3\n        /* \"#utility.yul\":5155:5170   */\n      add\n        /* \"#utility.yul\":5148:5186   */\n      mstore\n        /* \"#utility.yul\":4963:5193   */\n      pop\n      jump\t// out\n        /* \"#utility.yul\":5199:5565   */\n    tag_107:\n        /* \"#utility.yul\":5341:5344   */\n      0x00\n        /* \"#utility.yul\":5362:5429   */\n      tag_179\n        /* \"#utility.yul\":5426:5428   */\n      0x2b\n        /* \"#utility.yul\":5421:5424   */\n      dup4\n        /* \"#utility.yul\":5362:5429   */\n      tag_103\n      jump\t// in\n    tag_179:\n        /* \"#utility.yul\":5355:5429   */\n      swap2\n      pop\n        /* \"#utility.yul\":5438:5531   */\n      tag_180\n        /* \"#utility.yul\":5527:5530   */\n      dup3\n        /* \"#utility.yul\":5438:5531   */\n      tag_106\n      jump\t// in\n    tag_180:\n        /* \"#utility.yul\":5556:5558   */\n      0x40\n        /* \"#utility.yul\":5551:5554   */\n      dup3\n        /* \"#utility.yul\":5547:5559   */\n      add\n        /* \"#utility.yul\":5540:5559   */\n      swap1\n      pop\n        /* \"#utility.yul\":5199:5565   */\n      swap2\n      swap1\n      pop\n      jump\t// out\n        /* \"#utility.yul\":5571:5990   */\n    tag_62:\n        /* \"#utility.yul\":5737:5741   */\n      0x00\n        /* \"#utility.yul\":5775:5777   */\n      0x20\n        /* \"#utility.yul\":5764:5773   */\n      dup3\n        /* \"#utility.yul\":5760:5778   */\n      add\n        /* \"#utility.yul\":5752:5778   */\n      swap1\n      pop\n        /* \"#utility.yul\":5824:5833   */\n      dup2\n        /* \"#utility.yul\":5818:5822   */\n      dup2\n        /* \"#utility.yul\":5814:5834   */\n      sub\n        /* \"#utility.yul\":5810:5811   */\n      0x00\n        /* \"#utility.yul\":5799:5808   */\n      dup4\n        /* \"#utility.yul\":5795:5812   */\n      add\n        /* \"#utility.yul\":5788:5835   */\n      mstore\n        /* \"#utility.yul\":5852:5983   */\n      tag_182\n        /* \"#utility.yul\":5978:5982   */\n      dup2\n        /* \"#utility.yul\":5852:5983   */\n      tag_107\n      jump\t// in\n    tag_182:\n        /* \"#utility.yul\":5844:5983   */\n      swap1\n      pop\n        /* \"#utility.yul\":5571:5990   */\n      swap2\n      swap1\n      pop\n      jump\t// out\n        /* \"#utility.yul\":5996:6230   */\n    tag_108:\n        /* \"#utility.yul\":6136:6170   */\n      0x496e73756666696369656e7420636f6c6c61746572616c20746f207769746864\n        /* \"#utility.yul\":6132:6133   */\n      0x00\n        /* \"#utility.yul\":6124:6130   */\n      dup3\n        /* \"#utility.yul\":6120:6134   */\n      add\n        /* \"#utility.yul\":6113:6171   */\n      mstore\n        /* \"#utility.yul\":6205:6222   */\n      0x726177207468697320616d6f756e740000000000000000000000000000000000\n        /* \"#utility.yul\":6200:6202   */\n      0x20\n        /* \"#utility.yul\":6192:6198   */\n      dup3\n        /* \"#utility.yul\":6188:6203   */\n      add\n        /* \"#utility.yul\":6181:6223   */\n      mstore\n        /* \"#utility.yul\":5996:6230   */\n      pop\n      jump\t// out\n        /* \"#utility.yul\":6236:6602   */\n    tag_109:\n        /* \"#utility.yul\":6378:6381   */\n      0x00\n        /* \"#utility.yul\":6399:6466   */\n      tag_185\n        /* \"#utility.yul\":6463:6465   */\n      0x2f\n        /* \"#utility.yul\":6458:6461   */\n      dup4\n        /* \"#utility.yul\":6399:6466   */\n      tag_103\n      jump\t// in\n    tag_185:\n        /* \"#utility.yul\":6392:6466   */\n      swap2\n      pop\n        /* \"#utility.yul\":6475:6568   */\n      tag_186\n        /* \"#utility.yul\":6564:6567   */\n      dup3\n        /* \"#utility.yul\":6475:6568   */\n      tag_108\n      jump\t// in\n    tag_186:\n        /* \"#utility.yul\":6593:6595   */\n      0x40\n        /* \"#utility.yul\":6588:6591   */\n      dup3\n        /* \"#utility.yul\":6584:6596   */\n      add\n        /* \"#utility.yul\":6577:6596   */\n      swap1\n      pop\n        /* \"#utility.yul\":6236:6602   */\n      swap2\n      swap1\n      pop\n      jump\t// out\n        /* \"#utility.yul\":6608:7027   */\n    tag_65:\n        /* \"#utility.yul\":6774:6778   */\n      0x00\n        /* \"#utility.yul\":6812:6814   */\n      0x20\n        /* \"#utility.yul\":6801:6810   */\n      dup3\n        /* \"#utility.yul\":6797:6815   */\n      add\n        /* \"#utility.yul\":6789:6815   */\n      swap1\n      pop\n        /* \"#utility.yul\":6861:6870   */\n      dup2\n        /* \"#utility.yul\":6855:6859   */\n      dup2\n        /* \"#utility.yul\":6851:6871   */\n      sub\n        /* \"#utility.yul\":6847:6848   */\n      0x00\n        /* \"#utility.yul\":6836:6845   */\n      dup4\n        /* \"#utility.yul\":6832:6849   */\n      add\n        /* \"#utility.yul\":6825:6872   */\n      mstore\n        /* \"#utility.yul\":6889:7020   */\n      tag_188\n        /* \"#utility.yul\":7015:7019   */\n      dup2\n        /* \"#utility.yul\":6889:7020   */\n      tag_109\n      jump\t// in\n    tag_188:\n        /* \"#utility.yul\":6881:7020   */\n      swap1\n      pop\n        /* \"#utility.yul\":6608:7027   */\n      swap2\n      swap1\n      pop\n      jump\t// out\n        /* \"#utility.yul\":7033:7138   */\n    tag_110:\n        /* \"#utility.yul\":7069:7076   */\n      0x00\n        /* \"#utility.yul\":7109:7131   */\n      0xffffffffffffffffffff\n        /* \"#utility.yul\":7102:7107   */\n      dup3\n        /* \"#utility.yul\":7098:7132   */\n      and\n        /* \"#utility.yul\":7087:7132   */\n      swap1\n      pop\n        /* \"#utility.yul\":7033:7138   */\n      swap2\n      swap1\n      pop\n      jump\t// out\n        /* \"#utility.yul\":7144:7264   */\n    tag_111:\n        /* \"#utility.yul\":7216:7239   */\n      tag_191\n        /* \"#utility.yul\":7233:7238   */\n      dup2\n        /* \"#utility.yul\":7216:7239   */\n      tag_110\n      jump\t// in\n    tag_191:\n        /* \"#utility.yul\":7209:7214   */\n      dup2\n        /* \"#utility.yul\":7206:7240   */\n      eq\n        /* \"#utility.yul\":7196:7258   */\n      tag_192\n      jumpi\n        /* \"#utility.yul\":7254:7255   */\n      0x00\n        /* \"#utility.yul\":7251:7252   */\n      dup1\n        /* \"#utility.yul\":7244:7256   */\n      revert\n        /* \"#utility.yul\":7196:7258   */\n    tag_192:\n        /* \"#utility.yul\":7144:7264   */\n      pop\n      jump\t// out\n        /* \"#utility.yul\":7270:7411   */\n    tag_112:\n        /* \"#utility.yul\":7326:7331   */\n      0x00\n        /* \"#utility.yul\":7357:7363   */\n      dup2\n        /* \"#utility.yul\":7351:7364   */\n      mload\n        /* \"#utility.yul\":7342:7364   */\n      swap1\n      pop\n        /* \"#utility.yul\":7373:7405   */\n      tag_194\n        /* \"#utility.yul\":7399:7404   */\n      dup2\n        /* \"#utility.yul\":7373:7405   */\n      tag_111\n      jump\t// in\n    tag_194:\n        /* \"#utility.yul\":7270:7411   */\n      swap3\n      swap2\n      pop\n      pop\n      jump\t// out\n        /* \"#utility.yul\":7417:7493   */\n    tag_113:\n        /* \"#utility.yul\":7453:7460   */\n      0x00\n        /* \"#utility.yul\":7482:7487   */\n      dup2\n        /* \"#utility.yul\":7471:7487   */\n      swap1\n      pop\n        /* \"#utility.yul\":7417:7493   */\n      swap2\n      swap1\n      pop\n      jump\t// out\n        /* \"#utility.yul\":7499:7619   */\n    tag_114:\n        /* \"#utility.yul\":7571:7594   */\n      tag_197\n        /* \"#utility.yul\":7588:7593   */\n      dup2\n        /* \"#utility.yul\":7571:7594   */\n      tag_113\n      jump\t// in\n    tag_197:\n        /* \"#utility.yul\":7564:7569   */\n      dup2\n        /* \"#utility.yul\":7561:7595   */\n      eq\n        /* \"#utility.yul\":7551:7613   */\n      tag_198\n      jumpi\n        /* \"#utility.yul\":7609:7610   */\n      0x00\n        /* \"#utility.yul\":7606:7607   */\n      dup1\n        /* \"#utility.yul\":7599:7611   */\n      revert\n        /* \"#utility.yul\":7551:7613   */\n    tag_198:\n        /* \"#utility.yul\":7499:7619   */\n      pop\n      jump\t// out\n        /* \"#utility.yul\":7625:7766   */\n    tag_115:\n        /* \"#utility.yul\":7681:7686   */\n      0x00\n        /* \"#utility.yul\":7712:7718   */\n      dup2\n        /* \"#utility.yul\":7706:7719   */\n      mload\n        /* \"#utility.yul\":7697:7719   */\n      swap1\n      pop\n        /* \"#utility.yul\":7728:7760   */\n      tag_200\n        /* \"#utility.yul\":7754:7759   */\n      dup2\n        /* \"#utility.yul\":7728:7760   */\n      tag_114\n      jump\t// in\n    tag_200:\n        /* \"#utility.yul\":7625:7766   */\n      swap3\n      swap2\n      pop\n      pop\n      jump\t// out\n        /* \"#utility.yul\":7772:7915   */\n    tag_116:\n        /* \"#utility.yul\":7829:7834   */\n      0x00\n        /* \"#utility.yul\":7860:7866   */\n      dup2\n        /* \"#utility.yul\":7854:7867   */\n      mload\n        /* \"#utility.yul\":7845:7867   */\n      swap1\n      pop\n        /* \"#utility.yul\":7876:7909   */\n      tag_202\n        /* \"#utility.yul\":7903:7908   */\n      dup2\n        /* \"#utility.yul\":7876:7909   */\n      tag_95\n      jump\t// in\n    tag_202:\n        /* \"#utility.yul\":7772:7915   */\n      swap3\n      swap2\n      pop\n      pop\n      jump\t// out\n        /* \"#utility.yul\":7921:8892   */\n    tag_75:\n        /* \"#utility.yul\":8024:8030   */\n      0x00\n        /* \"#utility.yul\":8032:8038   */\n      dup1\n        /* \"#utility.yul\":8040:8046   */\n      0x00\n        /* \"#utility.yul\":8048:8054   */\n      dup1\n        /* \"#utility.yul\":8056:8062   */\n      0x00\n        /* \"#utility.yul\":8105:8108   */\n      0xa0\n        /* \"#utility.yul\":8093:8102   */\n      dup7\n        /* \"#utility.yul\":8084:8091   */\n      dup9\n        /* \"#utility.yul\":8080:8103   */\n      sub\n        /* \"#utility.yul\":8076:8109   */\n      slt\n        /* \"#utility.yul\":8073:8193   */\n      iszero\n      tag_204\n      jumpi\n        /* \"#utility.yul\":8112:8191   */\n      tag_205\n      tag_92\n      jump\t// in\n    tag_205:\n        /* \"#utility.yul\":8073:8193   */\n    tag_204:\n        /* \"#utility.yul\":8232:8233   */\n      0x00\n        /* \"#utility.yul\":8257:8320   */\n      tag_206\n        /* \"#utility.yul\":8312:8319   */\n      dup9\n        /* \"#utility.yul\":8303:8309   */\n      dup3\n        /* \"#utility.yul\":8292:8301   */\n      dup10\n        /* \"#utility.yul\":8288:8310   */\n      add\n        /* \"#utility.yul\":8257:8320   */\n      tag_112\n      jump\t// in\n    tag_206:\n        /* \"#utility.yul\":8247:8320   */\n      swap6\n      pop\n        /* \"#utility.yul\":8203:8330   */\n      pop\n        /* \"#utility.yul\":8369:8371   */\n      0x20\n        /* \"#utility.yul\":8395:8458   */\n      tag_207\n        /* \"#utility.yul\":8450:8457   */\n      dup9\n        /* \"#utility.yul\":8441:8447   */\n      dup3\n        /* \"#utility.yul\":8430:8439   */\n      dup10\n        /* \"#utility.yul\":8426:8448   */\n      add\n        /* \"#utility.yul\":8395:8458   */\n      tag_115\n      jump\t// in\n    tag_207:\n        /* \"#utility.yul\":8385:8458   */\n      swap5\n      pop\n        /* \"#utility.yul\":8340:8468   */\n      pop\n        /* \"#utility.yul\":8507:8509   */\n      0x40\n        /* \"#utility.yul\":8533:8597   */\n      tag_208\n        /* \"#utility.yul\":8589:8596   */\n      dup9\n        /* \"#utility.yul\":8580:8586   */\n      dup3\n        /* \"#utility.yul\":8569:8578   */\n      dup10\n        /* \"#utility.yul\":8565:8587   */\n      add\n        /* \"#utility.yul\":8533:8597   */\n      tag_116\n      jump\t// in\n    tag_208:\n        /* \"#utility.yul\":8523:8597   */\n      swap4\n      pop\n        /* \"#utility.yul\":8478:8607   */\n      pop\n        /* \"#utility.yul\":8646:8648   */\n      0x60\n        /* \"#utility.yul\":8672:8736   */\n      tag_209\n        /* \"#utility.yul\":8728:8735   */\n      dup9\n        /* \"#utility.yul\":8719:8725   */\n      dup3\n        /* \"#utility.yul\":8708:8717   */\n      dup10\n        /* \"#utility.yul\":8704:8726   */\n      add\n        /* \"#utility.yul\":8672:8736   */\n      tag_116\n      jump\t// in\n    tag_209:\n        /* \"#utility.yul\":8662:8736   */\n      swap3\n      pop\n        /* \"#utility.yul\":8617:8746   */\n      pop\n        /* \"#utility.yul\":8785:8788   */\n      0x80\n        /* \"#utility.yul\":8812:8875   */\n      tag_210\n        /* \"#utility.yul\":8867:8874   */\n      dup9\n        /* \"#utility.yul\":8858:8864   */\n      dup3\n        /* \"#utility.yul\":8847:8856   */\n      dup10\n        /* \"#utility.yul\":8843:8865   */\n      add\n        /* \"#utility.yul\":8812:8875   */\n      tag_112\n      jump\t// in\n    tag_210:\n        /* \"#utility.yul\":8802:8875   */\n      swap2\n      pop\n        /* \"#utility.yul\":8756:8885   */\n      pop\n        /* \"#utility.yul\":7921:8892   */\n      swap3\n      swap6\n      pop\n      swap3\n      swap6\n      swap1\n      swap4\n      pop\n      jump\t// out\n        /* \"#utility.yul\":8898:9078   */\n    tag_117:\n        /* \"#utility.yul\":8946:9023   */\n      0x4e487b7100000000000000000000000000000000000000000000000000000000\n        /* \"#utility.yul\":8943:8944   */\n      0x00\n        /* \"#utility.yul\":8936:9024   */\n      mstore\n        /* \"#utility.yul\":9043:9047   */\n      0x12\n        /* \"#utility.yul\":9040:9041   */\n      0x04\n        /* \"#utility.yul\":9033:9048   */\n      mstore\n        /* \"#utility.yul\":9067:9071   */\n      0x24\n        /* \"#utility.yul\":9064:9065   */\n      0x00\n        /* \"#utility.yul\":9057:9072   */\n      revert\n        /* \"#utility.yul\":9084:9469   */\n    tag_77:\n        /* \"#utility.yul\":9123:9124   */\n      0x00\n        /* \"#utility.yul\":9140:9159   */\n      tag_213\n        /* \"#utility.yul\":9157:9158   */\n      dup3\n        /* \"#utility.yul\":9140:9159   */\n      tag_113\n      jump\t// in\n    tag_213:\n        /* \"#utility.yul\":9135:9159   */\n      swap2\n      pop\n        /* \"#utility.yul\":9173:9192   */\n      tag_214\n        /* \"#utility.yul\":9190:9191   */\n      dup4\n        /* \"#utility.yul\":9173:9192   */\n      tag_113\n      jump\t// in\n    tag_214:\n        /* \"#utility.yul\":9168:9192   */\n      swap3\n      pop\n        /* \"#utility.yul\":9211:9212   */\n      dup3\n        /* \"#utility.yul\":9201:9236   */\n      tag_215\n      jumpi\n        /* \"#utility.yul\":9216:9234   */\n      tag_216\n      tag_117\n      jump\t// in\n    tag_216:\n        /* \"#utility.yul\":9201:9236   */\n    tag_215:\n        /* \"#utility.yul\":9402:9403   */\n      0x01\n        /* \"#utility.yul\":9399:9400   */\n      0x00\n        /* \"#utility.yul\":9395:9404   */\n      sub\n        /* \"#utility.yul\":9392:9393   */\n      dup4\n        /* \"#utility.yul\":9389:9405   */\n      eq\n        /* \"#utility.yul\":9308:9374   */\n      0x8000000000000000000000000000000000000000000000000000000000000000\n        /* \"#utility.yul\":9305:9306   */\n      dup4\n        /* \"#utility.yul\":9302:9375   */\n      eq\n        /* \"#utility.yul\":9285:9415   */\n      and\n        /* \"#utility.yul\":9282:9438   */\n      iszero\n      tag_217\n      jumpi\n        /* \"#utility.yul\":9418:9436   */\n      tag_218\n      tag_102\n      jump\t// in\n    tag_218:\n        /* \"#utility.yul\":9282:9438   */\n    tag_217:\n        /* \"#utility.yul\":9461:9462   */\n      dup3\n        /* \"#utility.yul\":9458:9459   */\n      dup3\n        /* \"#utility.yul\":9453:9463   */\n      sdiv\n        /* \"#utility.yul\":9448:9463   */\n      swap1\n      pop\n        /* \"#utility.yul\":9084:9469   */\n      swap3\n      swap2\n      pop\n      pop\n      jump\t// out\n        /* \"#utility.yul\":9475:9702   */\n    tag_118:\n        /* \"#utility.yul\":9615:9649   */\n      0x4465706f73697420616d6f756e74206d75737420626520677265617465722074\n        /* \"#utility.yul\":9611:9612   */\n      0x00\n        /* \"#utility.yul\":9603:9609   */\n      dup3\n        /* \"#utility.yul\":9599:9613   */\n      add\n        /* \"#utility.yul\":9592:9650   */\n      mstore\n        /* \"#utility.yul\":9684:9694   */\n      0x68616e207a65726f000000000000000000000000000000000000000000000000\n        /* \"#utility.yul\":9679:9681   */\n      0x20\n        /* \"#utility.yul\":9671:9677   */\n      dup3\n        /* \"#utility.yul\":9667:9682   */\n      add\n        /* \"#utility.yul\":9660:9695   */\n      mstore\n        /* \"#utility.yul\":9475:9702   */\n      pop\n      jump\t// out\n        /* \"#utility.yul\":9708:10074   */\n    tag_119:\n        /* \"#utility.yul\":9850:9853   */\n      0x00\n        /* \"#utility.yul\":9871:9938   */\n      tag_221\n        /* \"#utility.yul\":9935:9937   */\n      0x28\n        /* \"#utility.yul\":9930:9933   */\n      dup4\n        /* \"#utility.yul\":9871:9938   */\n      tag_103\n      jump\t// in\n    tag_221:\n        /* \"#utility.yul\":9864:9938   */\n      swap2\n      pop\n        /* \"#utility.yul\":9947:10040   */\n      tag_222\n        /* \"#utility.yul\":10036:10039   */\n      dup3\n        /* \"#utility.yul\":9947:10040   */\n      tag_118\n      jump\t// in\n    tag_222:\n        /* \"#utility.yul\":10065:10067   */\n      0x40\n        /* \"#utility.yul\":10060:10063   */\n      dup3\n        /* \"#utility.yul\":10056:10068   */\n      add\n        /* \"#utility.yul\":10049:10068   */\n      swap1\n      pop\n        /* \"#utility.yul\":9708:10074   */\n      swap2\n      swap1\n      pop\n      jump\t// out\n        /* \"#utility.yul\":10080:10499   */\n    tag_81:\n        /* \"#utility.yul\":10246:10250   */\n      0x00\n        /* \"#utility.yul\":10284:10286   */\n      0x20\n        /* \"#utility.yul\":10273:10282   */\n      dup3\n        /* \"#utility.yul\":10269:10287   */\n      add\n        /* \"#utility.yul\":10261:10287   */\n      swap1\n      pop\n        /* \"#utility.yul\":10333:10342   */\n      dup2\n        /* \"#utility.yul\":10327:10331   */\n      dup2\n        /* \"#utility.yul\":10323:10343   */\n      sub\n        /* \"#utility.yul\":10319:10320   */\n      0x00\n        /* \"#utility.yul\":10308:10317   */\n      dup4\n        /* \"#utility.yul\":10304:10321   */\n      add\n        /* \"#utility.yul\":10297:10344   */\n      mstore\n        /* \"#utility.yul\":10361:10492   */\n      tag_224\n        /* \"#utility.yul\":10487:10491   */\n      dup2\n        /* \"#utility.yul\":10361:10492   */\n      tag_119\n      jump\t// in\n    tag_224:\n        /* \"#utility.yul\":10353:10492   */\n      swap1\n      pop\n        /* \"#utility.yul\":10080:10499   */\n      swap2\n      swap1\n      pop\n      jump\t// out\n        /* \"#utility.yul\":10505:10915   */\n    tag_84:\n        /* \"#utility.yul\":10545:10552   */\n      0x00\n        /* \"#utility.yul\":10568:10588   */\n      tag_226\n        /* \"#utility.yul\":10586:10587   */\n      dup3\n        /* \"#utility.yul\":10568:10588   */\n      tag_94\n      jump\t// in\n    tag_226:\n        /* \"#utility.yul\":10563:10588   */\n      swap2\n      pop\n        /* \"#utility.yul\":10602:10622   */\n      tag_227\n        /* \"#utility.yul\":10620:10621   */\n      dup4\n        /* \"#utility.yul\":10602:10622   */\n      tag_94\n      jump\t// in\n    tag_227:\n        /* \"#utility.yul\":10597:10622   */\n      swap3\n      pop\n        /* \"#utility.yul\":10657:10658   */\n      dup3\n        /* \"#utility.yul\":10654:10655   */\n      dup3\n        /* \"#utility.yul\":10650:10659   */\n      mul\n        /* \"#utility.yul\":10679:10709   */\n      tag_228\n        /* \"#utility.yul\":10697:10708   */\n      dup2\n        /* \"#utility.yul\":10679:10709   */\n      tag_94\n      jump\t// in\n    tag_228:\n        /* \"#utility.yul\":10668:10709   */\n      swap2\n      pop\n        /* \"#utility.yul\":10858:10859   */\n      dup3\n        /* \"#utility.yul\":10849:10856   */\n      dup3\n        /* \"#utility.yul\":10845:10860   */\n      div\n        /* \"#utility.yul\":10842:10843   */\n      dup5\n        /* \"#utility.yul\":10839:10861   */\n      eq\n        /* \"#utility.yul\":10819:10820   */\n      dup4\n        /* \"#utility.yul\":10812:10821   */\n      iszero\n        /* \"#utility.yul\":10792:10875   */\n      or\n        /* \"#utility.yul\":10769:10908   */\n      tag_229\n      jumpi\n        /* \"#utility.yul\":10888:10906   */\n      tag_230\n      tag_102\n      jump\t// in\n    tag_230:\n        /* \"#utility.yul\":10769:10908   */\n    tag_229:\n        /* \"#utility.yul\":10553:10915   */\n      pop\n        /* \"#utility.yul\":10505:10915   */\n      swap3\n      swap2\n      pop\n      pop\n      jump\t// out\n        /* \"#utility.yul\":10921:11106   */\n    tag_86:\n        /* \"#utility.yul\":10961:10962   */\n      0x00\n        /* \"#utility.yul\":10978:10998   */\n      tag_232\n        /* \"#utility.yul\":10996:10997   */\n      dup3\n        /* \"#utility.yul\":10978:10998   */\n      tag_94\n      jump\t// in\n    tag_232:\n        /* \"#utility.yul\":10973:10998   */\n      swap2\n      pop\n        /* \"#utility.yul\":11012:11032   */\n      tag_233\n        /* \"#utility.yul\":11030:11031   */\n      dup4\n        /* \"#utility.yul\":11012:11032   */\n      tag_94\n      jump\t// in\n    tag_233:\n        /* \"#utility.yul\":11007:11032   */\n      swap3\n      pop\n        /* \"#utility.yul\":11051:11052   */\n      dup3\n        /* \"#utility.yul\":11041:11076   */\n      tag_234\n      jumpi\n        /* \"#utility.yul\":11056:11074   */\n      tag_235\n      tag_117\n      jump\t// in\n    tag_235:\n        /* \"#utility.yul\":11041:11076   */\n    tag_234:\n        /* \"#utility.yul\":11098:11099   */\n      dup3\n        /* \"#utility.yul\":11095:11096   */\n      dup3\n        /* \"#utility.yul\":11091:11100   */\n      div\n        /* \"#utility.yul\":11086:11100   */\n      swap1\n      pop\n        /* \"#utility.yul\":10921:11106   */\n      swap3\n      swap2\n      pop\n      pop\n      jump\t// out\n\n    auxdata: 0xa2646970667358221220a74ea99d1abfe5966742975dc0d12647ed60c2fb2dcb99132ec7e7d6d8b1141c64736f6c634300081a0033\n}\n",
				"bytecode": {
					"linkReferences": {},
					"object": "6080604052348015600e575f80fd5b50335f806101000a81548173ffffffffffffffffffffffffffffffffffffffff021916908373ffffffffffffffffffffffffffffffffffffffff16021790555073694aa1769357215de4fac081bf1f309adc32530660015f6101000a81548173ffffffffffffffffffffffffffffffffffffffff021916908373ffffffffffffffffffffffffffffffffffffffff160217905550610e09806100af5f395ff3fe60806040526004361061006f575f3560e01c806367c9b0171161004d57806367c9b017146101035780636f7581401461012d5780639b56d6c914610137578063fb7cbd6c146101745761006f565b80632a104d8d146100735780635e5c06e21461009b5780636112fe2e146100db575b5f80fd5b34801561007e575f80fd5b50610099600480360381019061009491906107cb565b6101b0565b005b3480156100a6575f80fd5b506100c160048036038101906100bc9190610850565b610303565b6040516100d295949392919061088a565b60405180910390f35b3480156100e6575f80fd5b5061010160048036038101906100fc91906107cb565b610335565b005b34801561010e575f80fd5b50610117610509565b60405161012491906108db565b60405180910390f35b6101356105ba565b005b348015610142575f80fd5b5061015d60048036038101906101589190610850565b6106f1565b60405161016b9291906108f4565b60405180910390f35b34801561017f575f80fd5b5061019a60048036038101906101959190610850565b610746565b6040516101a791906108db565b60405180910390f35b5f60025f3373ffffffffffffffffffffffffffffffffffffffff1673ffffffffffffffffffffffffffffffffffffffff1681526020019081526020015f2090505f8160030154116101ff575f80fd5b81815f015f8282546102119190610948565b9250508190555081816001015f82825461022b919061097b565b9250508190555081816003015f8282546102459190610948565b92505081905550610254610509565b816002015f828254610266919061097b565b925050819055503373ffffffffffffffffffffffffffffffffffffffff166108fc8390811502906040515f60405180830381858888f193505050501580156102b0573d5f803e3d5ffd5b503373ffffffffffffffffffffffffffffffffffffffff167f9fc64c8ef100e2584ce71f7bb2f62474d1a63a9f3fc4d216bacea670c289614a836040516102f791906108db565b60405180910390a25050565b6002602052805f5260405f205f91509050805f0154908060010154908060020154908060030154908060040154905085565b5f60025f3373ffffffffffffffffffffffffffffffffffffffff1673ffffffffffffffffffffffffffffffffffffffff1681526020019081526020015f2090505f815f015490505f81116103be576040517f08c379a00000000000000000000000000000000000000000000000000000000081526004016103b590610a08565b60405180910390fd5b5f8311610400576040517f08c379a00000000000000000000000000000000000000000000000000000000081526004016103f790610a96565b60405180910390fd5b80831115610443576040517f08c379a000000000000000000000000000000000000000000000000000000000815260040161043a90610b24565b60405180910390fd5b82825f015f8282546104559190610948565b925050819055505f825f015403610470575f82600401819055505b3373ffffffffffffffffffffffffffffffffffffffff166108fc8490811502906040515f60405180830381858888f193505050501580156104b3573d5f803e3d5ffd5b503373ffffffffffffffffffffffffffffffffffffffff167fdaed309a628faec6cab72194019e2a1a34e890ca9bf9be99788992dd5469281984426040516104fc9291906108f4565b60405180910390a2505050565b5f8060015f9054906101000a900473ffffffffffffffffffffffffffffffffffffffff1673ffffffffffffffffffffffffffffffffffffffff1663feaf968c6040518163ffffffff1660e01b815260040160a060405180830381865afa158015610575573d5f803e3d5ffd5b505050506040513d601f19601f820116820180604052508101906105999190610bc8565b5050509150505f6305f5e100826105b09190610c6c565b9050809250505090565b5f34116105fc576040517f08c379a00000000000000000000000000000000000000000000000000000000081526004016105f390610d44565b60405180910390fd5b5f60025f3373ffffffffffffffffffffffffffffffffffffffff1673ffffffffffffffffffffffffffffffffffffffff1681526020019081526020015f20905034815f015f82825461064e919061097b565b92505081905550670de0b6b3a76400006706f05b59d3b20000346106729190610d62565b61067c9190610da3565b816003015f82825461068e919061097b565b925050819055504281600401819055503373ffffffffffffffffffffffffffffffffffffffff167ff4d587c98d234ca4d147061e6b5167e7f41ee17f11562a9f0b49570abece859e34426040516106e69291906108f4565b60405180910390a250565b5f805f60025f8573ffffffffffffffffffffffffffffffffffffffff1673ffffffffffffffffffffffffffffffffffffffff1681526020019081526020015f209050805f015481600401549250925050915091565b5f8060025f8473ffffffffffffffffffffffffffffffffffffffff1673ffffffffffffffffffffffffffffffffffffffff1681526020019081526020015f2090508060030154915050919050565b5f80fd5b5f819050919050565b6107aa81610798565b81146107b4575f80fd5b50565b5f813590506107c5816107a1565b92915050565b5f602082840312156107e0576107df610794565b5b5f6107ed848285016107b7565b91505092915050565b5f73ffffffffffffffffffffffffffffffffffffffff82169050919050565b5f61081f826107f6565b9050919050565b61082f81610815565b8114610839575f80fd5b50565b5f8135905061084a81610826565b92915050565b5f6020828403121561086557610864610794565b5b5f6108728482850161083c565b91505092915050565b61088481610798565b82525050565b5f60a08201905061089d5f83018861087b565b6108aa602083018761087b565b6108b7604083018661087b565b6108c4606083018561087b565b6108d1608083018461087b565b9695505050505050565b5f6020820190506108ee5f83018461087b565b92915050565b5f6040820190506109075f83018561087b565b610914602083018461087b565b9392505050565b7f4e487b71000000000000000000000000000000000000000000000000000000005f52601160045260245ffd5b5f61095282610798565b915061095d83610798565b92508282039050818111156109755761097461091b565b5b92915050565b5f61098582610798565b915061099083610798565b92508282019050808211156109a8576109a761091b565b5b92915050565b5f82825260208201905092915050565b7f4e6f20636f6c6c61746572616c20746f207769746864726177000000000000005f82015250565b5f6109f26019836109ae565b91506109fd826109be565b602082019050919050565b5f6020820190508181035f830152610a1f816109e6565b9050919050565b7f5769746864726177616c20616d6f756e74206d757374206265206772656174655f8201527f72207468616e207a65726f000000000000000000000000000000000000000000602082015250565b5f610a80602b836109ae565b9150610a8b82610a26565b604082019050919050565b5f6020820190508181035f830152610aad81610a74565b9050919050565b7f496e73756666696369656e7420636f6c6c61746572616c20746f2077697468645f8201527f726177207468697320616d6f756e740000000000000000000000000000000000602082015250565b5f610b0e602f836109ae565b9150610b1982610ab4565b604082019050919050565b5f6020820190508181035f830152610b3b81610b02565b9050919050565b5f69ffffffffffffffffffff82169050919050565b610b6081610b42565b8114610b6a575f80fd5b50565b5f81519050610b7b81610b57565b92915050565b5f819050919050565b610b9381610b81565b8114610b9d575f80fd5b50565b5f81519050610bae81610b8a565b92915050565b5f81519050610bc2816107a1565b92915050565b5f805f805f60a08688031215610be157610be0610794565b5b5f610bee88828901610b6d565b9550506020610bff88828901610ba0565b9450506040610c1088828901610bb4565b9350506060610c2188828901610bb4565b9250506080610c3288828901610b6d565b9150509295509295909350565b7f4e487b71000000000000000000000000000000000000000000000000000000005f52601260045260245ffd5b5f610c7682610b81565b9150610c8183610b81565b925082610c9157610c90610c3f565b5b60015f0383147f800000000000000000000000000000000000000000000000000000000000000083141615610cc957610cc861091b565b5b828205905092915050565b7f4465706f73697420616d6f756e74206d757374206265206772656174657220745f8201527f68616e207a65726f000000000000000000000000000000000000000000000000602082015250565b5f610d2e6028836109ae565b9150610d3982610cd4565b604082019050919050565b5f6020820190508181035f830152610d5b81610d22565b9050919050565b5f610d6c82610798565b9150610d7783610798565b9250828202610d8581610798565b91508282048414831517610d9c57610d9b61091b565b5b5092915050565b5f610dad82610798565b9150610db883610798565b925082610dc857610dc7610c3f565b5b82820490509291505056fea2646970667358221220a74ea99d1abfe5966742975dc0d12647ed60c2fb2dcb99132ec7e7d6d8b1141c64736f6c634300081a0033",
					"opcodes": "PUSH1 0x80 PUSH1 0x40 MSTORE CALLVALUE DUP1 ISZERO PUSH1 0xE JUMPI PUSH0 DUP1 REVERT JUMPDEST POP CALLER PUSH0 DUP1 PUSH2 0x100 EXP DUP2 SLOAD DUP2 PUSH20 0xFFFFFFFFFFFFFFFFFFFFFFFFFFFFFFFFFFFFFFFF MUL NOT AND SWAP1 DUP4 PUSH20 0xFFFFFFFFFFFFFFFFFFFFFFFFFFFFFFFFFFFFFFFF AND MUL OR SWAP1 SSTORE POP PUSH20 0x694AA1769357215DE4FAC081BF1F309ADC325306 PUSH1 0x1 PUSH0 PUSH2 0x100 EXP DUP2 SLOAD DUP2 PUSH20 0xFFFFFFFFFFFFFFFFFFFFFFFFFFFFFFFFFFFFFFFF MUL NOT AND SWAP1 DUP4 PUSH20 0xFFFFFFFFFFFFFFFFFFFFFFFFFFFFFFFFFFFFFFFF AND MUL OR SWAP1 SSTORE POP PUSH2 0xE09 DUP1 PUSH2 0xAF PUSH0 CODECOPY PUSH0 RETURN INVALID PUSH1 0x80 PUSH1 0x40 MSTORE PUSH1 0x4 CALLDATASIZE LT PUSH2 0x6F JUMPI PUSH0 CALLDATALOAD PUSH1 0xE0 SHR DUP1 PUSH4 0x67C9B017 GT PUSH2 0x4D JUMPI DUP1 PUSH4 0x67C9B017 EQ PUSH2 0x103 JUMPI DUP1 PUSH4 0x6F758140 EQ PUSH2 0x12D JUMPI DUP1 PUSH4 0x9B56D6C9 EQ PUSH2 0x137 JUMPI DUP1 PUSH4 0xFB7CBD6C EQ PUSH2 0x174 JUMPI PUSH2 0x6F JUMP JUMPDEST DUP1 PUSH4 0x2A104D8D EQ PUSH2 0x73 JUMPI DUP1 PUSH4 0x5E5C06E2 EQ PUSH2 0x9B JUMPI DUP1 PUSH4 0x6112FE2E EQ PUSH2 0xDB JUMPI JUMPDEST PUSH0 DUP1 REVERT JUMPDEST CALLVALUE DUP1 ISZERO PUSH2 0x7E JUMPI PUSH0 DUP1 REVERT JUMPDEST POP PUSH2 0x99 PUSH1 0x4 DUP1 CALLDATASIZE SUB DUP2 ADD SWAP1 PUSH2 0x94 SWAP2 SWAP1 PUSH2 0x7CB JUMP JUMPDEST PUSH2 0x1B0 JUMP JUMPDEST STOP JUMPDEST CALLVALUE DUP1 ISZERO PUSH2 0xA6 JUMPI PUSH0 DUP1 REVERT JUMPDEST POP PUSH2 0xC1 PUSH1 0x4 DUP1 CALLDATASIZE SUB DUP2 ADD SWAP1 PUSH2 0xBC SWAP2 SWAP1 PUSH2 0x850 JUMP JUMPDEST PUSH2 0x303 JUMP JUMPDEST PUSH1 0x40 MLOAD PUSH2 0xD2 SWAP6 SWAP5 SWAP4 SWAP3 SWAP2 SWAP1 PUSH2 0x88A JUMP JUMPDEST PUSH1 0x40 MLOAD DUP1 SWAP2 SUB SWAP1 RETURN JUMPDEST CALLVALUE DUP1 ISZERO PUSH2 0xE6 JUMPI PUSH0 DUP1 REVERT JUMPDEST POP PUSH2 0x101 PUSH1 0x4 DUP1 CALLDATASIZE SUB DUP2 ADD SWAP1 PUSH2 0xFC SWAP2 SWAP1 PUSH2 0x7CB JUMP JUMPDEST PUSH2 0x335 JUMP JUMPDEST STOP JUMPDEST CALLVALUE DUP1 ISZERO PUSH2 0x10E JUMPI PUSH0 DUP1 REVERT JUMPDEST POP PUSH2 0x117 PUSH2 0x509 JUMP JUMPDEST PUSH1 0x40 MLOAD PUSH2 0x124 SWAP2 SWAP1 PUSH2 0x8DB JUMP JUMPDEST PUSH1 0x40 MLOAD DUP1 SWAP2 SUB SWAP1 RETURN JUMPDEST PUSH2 0x135 PUSH2 0x5BA JUMP JUMPDEST STOP JUMPDEST CALLVALUE DUP1 ISZERO PUSH2 0x142 JUMPI PUSH0 DUP1 REVERT JUMPDEST POP PUSH2 0x15D PUSH1 0x4 DUP1 CALLDATASIZE SUB DUP2 ADD SWAP1 PUSH2 0x158 SWAP2 SWAP1 PUSH2 0x850 JUMP JUMPDEST PUSH2 0x6F1 JUMP JUMPDEST PUSH1 0x40 MLOAD PUSH2 0x16B SWAP3 SWAP2 SWAP1 PUSH2 0x8F4 JUMP JUMPDEST PUSH1 0x40 MLOAD DUP1 SWAP2 SUB SWAP1 RETURN JUMPDEST CALLVALUE DUP1 ISZERO PUSH2 0x17F JUMPI PUSH0 DUP1 REVERT JUMPDEST POP PUSH2 0x19A PUSH1 0x4 DUP1 CALLDATASIZE SUB DUP2 ADD SWAP1 PUSH2 0x195 SWAP2 SWAP1 PUSH2 0x850 JUMP JUMPDEST PUSH2 0x746 JUMP JUMPDEST PUSH1 0x40 MLOAD PUSH2 0x1A7 SWAP2 SWAP1 PUSH2 0x8DB JUMP JUMPDEST PUSH1 0x40 MLOAD DUP1 SWAP2 SUB SWAP1 RETURN JUMPDEST PUSH0 PUSH1 0x2 PUSH0 CALLER PUSH20 0xFFFFFFFFFFFFFFFFFFFFFFFFFFFFFFFFFFFFFFFF AND PUSH20 0xFFFFFFFFFFFFFFFFFFFFFFFFFFFFFFFFFFFFFFFF AND DUP2 MSTORE PUSH1 0x20 ADD SWAP1 DUP2 MSTORE PUSH1 0x20 ADD PUSH0 KECCAK256 SWAP1 POP PUSH0 DUP2 PUSH1 0x3 ADD SLOAD GT PUSH2 0x1FF JUMPI PUSH0 DUP1 REVERT JUMPDEST DUP2 DUP2 PUSH0 ADD PUSH0 DUP3 DUP3 SLOAD PUSH2 0x211 SWAP2 SWAP1 PUSH2 0x948 JUMP JUMPDEST SWAP3 POP POP DUP2 SWAP1 SSTORE POP DUP2 DUP2 PUSH1 0x1 ADD PUSH0 DUP3 DUP3 SLOAD PUSH2 0x22B SWAP2 SWAP1 PUSH2 0x97B JUMP JUMPDEST SWAP3 POP POP DUP2 SWAP1 SSTORE POP DUP2 DUP2 PUSH1 0x3 ADD PUSH0 DUP3 DUP3 SLOAD PUSH2 0x245 SWAP2 SWAP1 PUSH2 0x948 JUMP JUMPDEST SWAP3 POP POP DUP2 SWAP1 SSTORE POP PUSH2 0x254 PUSH2 0x509 JUMP JUMPDEST DUP2 PUSH1 0x2 ADD PUSH0 DUP3 DUP3 SLOAD PUSH2 0x266 SWAP2 SWAP1 PUSH2 0x97B JUMP JUMPDEST SWAP3 POP POP DUP2 SWAP1 SSTORE POP CALLER PUSH20 0xFFFFFFFFFFFFFFFFFFFFFFFFFFFFFFFFFFFFFFFF AND PUSH2 0x8FC DUP4 SWAP1 DUP2 ISZERO MUL SWAP1 PUSH1 0x40 MLOAD PUSH0 PUSH1 0x40 MLOAD DUP1 DUP4 SUB DUP2 DUP6 DUP9 DUP9 CALL SWAP4 POP POP POP POP ISZERO DUP1 ISZERO PUSH2 0x2B0 JUMPI RETURNDATASIZE PUSH0 DUP1 RETURNDATACOPY RETURNDATASIZE PUSH0 REVERT JUMPDEST POP CALLER PUSH20 0xFFFFFFFFFFFFFFFFFFFFFFFFFFFFFFFFFFFFFFFF AND PUSH32 0x9FC64C8EF100E2584CE71F7BB2F62474D1A63A9F3FC4D216BACEA670C289614A DUP4 PUSH1 0x40 MLOAD PUSH2 0x2F7 SWAP2 SWAP1 PUSH2 0x8DB JUMP JUMPDEST PUSH1 0x40 MLOAD DUP1 SWAP2 SUB SWAP1 LOG2 POP POP JUMP JUMPDEST PUSH1 0x2 PUSH1 0x20 MSTORE DUP1 PUSH0 MSTORE PUSH1 0x40 PUSH0 KECCAK256 PUSH0 SWAP2 POP SWAP1 POP DUP1 PUSH0 ADD SLOAD SWAP1 DUP1 PUSH1 0x1 ADD SLOAD SWAP1 DUP1 PUSH1 0x2 ADD SLOAD SWAP1 DUP1 PUSH1 0x3 ADD SLOAD SWAP1 DUP1 PUSH1 0x4 ADD SLOAD SWAP1 POP DUP6 JUMP JUMPDEST PUSH0 PUSH1 0x2 PUSH0 CALLER PUSH20 0xFFFFFFFFFFFFFFFFFFFFFFFFFFFFFFFFFFFFFFFF AND PUSH20 0xFFFFFFFFFFFFFFFFFFFFFFFFFFFFFFFFFFFFFFFF AND DUP2 MSTORE PUSH1 0x20 ADD SWAP1 DUP2 MSTORE PUSH1 0x20 ADD PUSH0 KECCAK256 SWAP1 POP PUSH0 DUP2 PUSH0 ADD SLOAD SWAP1 POP PUSH0 DUP2 GT PUSH2 0x3BE JUMPI PUSH1 0x40 MLOAD PUSH32 0x8C379A000000000000000000000000000000000000000000000000000000000 DUP2 MSTORE PUSH1 0x4 ADD PUSH2 0x3B5 SWAP1 PUSH2 0xA08 JUMP JUMPDEST PUSH1 0x40 MLOAD DUP1 SWAP2 SUB SWAP1 REVERT JUMPDEST PUSH0 DUP4 GT PUSH2 0x400 JUMPI PUSH1 0x40 MLOAD PUSH32 0x8C379A000000000000000000000000000000000000000000000000000000000 DUP2 MSTORE PUSH1 0x4 ADD PUSH2 0x3F7 SWAP1 PUSH2 0xA96 JUMP JUMPDEST PUSH1 0x40 MLOAD DUP1 SWAP2 SUB SWAP1 REVERT JUMPDEST DUP1 DUP4 GT ISZERO PUSH2 0x443 JUMPI PUSH1 0x40 MLOAD PUSH32 0x8C379A000000000000000000000000000000000000000000000000000000000 DUP2 MSTORE PUSH1 0x4 ADD PUSH2 0x43A SWAP1 PUSH2 0xB24 JUMP JUMPDEST PUSH1 0x40 MLOAD DUP1 SWAP2 SUB SWAP1 REVERT JUMPDEST DUP3 DUP3 PUSH0 ADD PUSH0 DUP3 DUP3 SLOAD PUSH2 0x455 SWAP2 SWAP1 PUSH2 0x948 JUMP JUMPDEST SWAP3 POP POP DUP2 SWAP1 SSTORE POP PUSH0 DUP3 PUSH0 ADD SLOAD SUB PUSH2 0x470 JUMPI PUSH0 DUP3 PUSH1 0x4 ADD DUP2 SWAP1 SSTORE POP JUMPDEST CALLER PUSH20 0xFFFFFFFFFFFFFFFFFFFFFFFFFFFFFFFFFFFFFFFF AND PUSH2 0x8FC DUP5 SWAP1 DUP2 ISZERO MUL SWAP1 PUSH1 0x40 MLOAD PUSH0 PUSH1 0x40 MLOAD DUP1 DUP4 SUB DUP2 DUP6 DUP9 DUP9 CALL SWAP4 POP POP POP POP ISZERO DUP1 ISZERO PUSH2 0x4B3 JUMPI RETURNDATASIZE PUSH0 DUP1 RETURNDATACOPY RETURNDATASIZE PUSH0 REVERT JUMPDEST POP CALLER PUSH20 0xFFFFFFFFFFFFFFFFFFFFFFFFFFFFFFFFFFFFFFFF AND PUSH32 0xDAED309A628FAEC6CAB72194019E2A1A34E890CA9BF9BE99788992DD54692819 DUP5 TIMESTAMP PUSH1 0x40 MLOAD PUSH2 0x4FC SWAP3 SWAP2 SWAP1 PUSH2 0x8F4 JUMP JUMPDEST PUSH1 0x40 MLOAD DUP1 SWAP2 SUB SWAP1 LOG2 POP POP POP JUMP JUMPDEST PUSH0 DUP1 PUSH1 0x1 PUSH0 SWAP1 SLOAD SWAP1 PUSH2 0x100 EXP SWAP1 DIV PUSH20 0xFFFFFFFFFFFFFFFFFFFFFFFFFFFFFFFFFFFFFFFF AND PUSH20 0xFFFFFFFFFFFFFFFFFFFFFFFFFFFFFFFFFFFFFFFF AND PUSH4 0xFEAF968C PUSH1 0x40 MLOAD DUP2 PUSH4 0xFFFFFFFF AND PUSH1 0xE0 SHL DUP2 MSTORE PUSH1 0x4 ADD PUSH1 0xA0 PUSH1 0x40 MLOAD DUP1 DUP4 SUB DUP2 DUP7 GAS STATICCALL ISZERO DUP1 ISZERO PUSH2 0x575 JUMPI RETURNDATASIZE PUSH0 DUP1 RETURNDATACOPY RETURNDATASIZE PUSH0 REVERT JUMPDEST POP POP POP POP PUSH1 0x40 MLOAD RETURNDATASIZE PUSH1 0x1F NOT PUSH1 0x1F DUP3 ADD AND DUP3 ADD DUP1 PUSH1 0x40 MSTORE POP DUP2 ADD SWAP1 PUSH2 0x599 SWAP2 SWAP1 PUSH2 0xBC8 JUMP JUMPDEST POP POP POP SWAP2 POP POP PUSH0 PUSH4 0x5F5E100 DUP3 PUSH2 0x5B0 SWAP2 SWAP1 PUSH2 0xC6C JUMP JUMPDEST SWAP1 POP DUP1 SWAP3 POP POP POP SWAP1 JUMP JUMPDEST PUSH0 CALLVALUE GT PUSH2 0x5FC JUMPI PUSH1 0x40 MLOAD PUSH32 0x8C379A000000000000000000000000000000000000000000000000000000000 DUP2 MSTORE PUSH1 0x4 ADD PUSH2 0x5F3 SWAP1 PUSH2 0xD44 JUMP JUMPDEST PUSH1 0x40 MLOAD DUP1 SWAP2 SUB SWAP1 REVERT JUMPDEST PUSH0 PUSH1 0x2 PUSH0 CALLER PUSH20 0xFFFFFFFFFFFFFFFFFFFFFFFFFFFFFFFFFFFFFFFF AND PUSH20 0xFFFFFFFFFFFFFFFFFFFFFFFFFFFFFFFFFFFFFFFF AND DUP2 MSTORE PUSH1 0x20 ADD SWAP1 DUP2 MSTORE PUSH1 0x20 ADD PUSH0 KECCAK256 SWAP1 POP CALLVALUE DUP2 PUSH0 ADD PUSH0 DUP3 DUP3 SLOAD PUSH2 0x64E SWAP2 SWAP1 PUSH2 0x97B JUMP JUMPDEST SWAP3 POP POP DUP2 SWAP1 SSTORE POP PUSH8 0xDE0B6B3A7640000 PUSH8 0x6F05B59D3B20000 CALLVALUE PUSH2 0x672 SWAP2 SWAP1 PUSH2 0xD62 JUMP JUMPDEST PUSH2 0x67C SWAP2 SWAP1 PUSH2 0xDA3 JUMP JUMPDEST DUP2 PUSH1 0x3 ADD PUSH0 DUP3 DUP3 SLOAD PUSH2 0x68E SWAP2 SWAP1 PUSH2 0x97B JUMP JUMPDEST SWAP3 POP POP DUP2 SWAP1 SSTORE POP TIMESTAMP DUP2 PUSH1 0x4 ADD DUP2 SWAP1 SSTORE POP CALLER PUSH20 0xFFFFFFFFFFFFFFFFFFFFFFFFFFFFFFFFFFFFFFFF AND PUSH32 0xF4D587C98D234CA4D147061E6B5167E7F41EE17F11562A9F0B49570ABECE859E CALLVALUE TIMESTAMP PUSH1 0x40 MLOAD PUSH2 0x6E6 SWAP3 SWAP2 SWAP1 PUSH2 0x8F4 JUMP JUMPDEST PUSH1 0x40 MLOAD DUP1 SWAP2 SUB SWAP1 LOG2 POP JUMP JUMPDEST PUSH0 DUP1 PUSH0 PUSH1 0x2 PUSH0 DUP6 PUSH20 0xFFFFFFFFFFFFFFFFFFFFFFFFFFFFFFFFFFFFFFFF AND PUSH20 0xFFFFFFFFFFFFFFFFFFFFFFFFFFFFFFFFFFFFFFFF AND DUP2 MSTORE PUSH1 0x20 ADD SWAP1 DUP2 MSTORE PUSH1 0x20 ADD PUSH0 KECCAK256 SWAP1 POP DUP1 PUSH0 ADD SLOAD DUP2 PUSH1 0x4 ADD SLOAD SWAP3 POP SWAP3 POP POP SWAP2 POP SWAP2 JUMP JUMPDEST PUSH0 DUP1 PUSH1 0x2 PUSH0 DUP5 PUSH20 0xFFFFFFFFFFFFFFFFFFFFFFFFFFFFFFFFFFFFFFFF AND PUSH20 0xFFFFFFFFFFFFFFFFFFFFFFFFFFFFFFFFFFFFFFFF AND DUP2 MSTORE PUSH1 0x20 ADD SWAP1 DUP2 MSTORE PUSH1 0x20 ADD PUSH0 KECCAK256 SWAP1 POP DUP1 PUSH1 0x3 ADD SLOAD SWAP2 POP POP SWAP2 SWAP1 POP JUMP JUMPDEST PUSH0 DUP1 REVERT JUMPDEST PUSH0 DUP2 SWAP1 POP SWAP2 SWAP1 POP JUMP JUMPDEST PUSH2 0x7AA DUP2 PUSH2 0x798 JUMP JUMPDEST DUP2 EQ PUSH2 0x7B4 JUMPI PUSH0 DUP1 REVERT JUMPDEST POP JUMP JUMPDEST PUSH0 DUP2 CALLDATALOAD SWAP1 POP PUSH2 0x7C5 DUP2 PUSH2 0x7A1 JUMP JUMPDEST SWAP3 SWAP2 POP POP JUMP JUMPDEST PUSH0 PUSH1 0x20 DUP3 DUP5 SUB SLT ISZERO PUSH2 0x7E0 JUMPI PUSH2 0x7DF PUSH2 0x794 JUMP JUMPDEST JUMPDEST PUSH0 PUSH2 0x7ED DUP5 DUP3 DUP6 ADD PUSH2 0x7B7 JUMP JUMPDEST SWAP2 POP POP SWAP3 SWAP2 POP POP JUMP JUMPDEST PUSH0 PUSH20 0xFFFFFFFFFFFFFFFFFFFFFFFFFFFFFFFFFFFFFFFF DUP3 AND SWAP1 POP SWAP2 SWAP1 POP JUMP JUMPDEST PUSH0 PUSH2 0x81F DUP3 PUSH2 0x7F6 JUMP JUMPDEST SWAP1 POP SWAP2 SWAP1 POP JUMP JUMPDEST PUSH2 0x82F DUP2 PUSH2 0x815 JUMP JUMPDEST DUP2 EQ PUSH2 0x839 JUMPI PUSH0 DUP1 REVERT JUMPDEST POP JUMP JUMPDEST PUSH0 DUP2 CALLDATALOAD SWAP1 POP PUSH2 0x84A DUP2 PUSH2 0x826 JUMP JUMPDEST SWAP3 SWAP2 POP POP JUMP JUMPDEST PUSH0 PUSH1 0x20 DUP3 DUP5 SUB SLT ISZERO PUSH2 0x865 JUMPI PUSH2 0x864 PUSH2 0x794 JUMP JUMPDEST JUMPDEST PUSH0 PUSH2 0x872 DUP5 DUP3 DUP6 ADD PUSH2 0x83C JUMP JUMPDEST SWAP2 POP POP SWAP3 SWAP2 POP POP JUMP JUMPDEST PUSH2 0x884 DUP2 PUSH2 0x798 JUMP JUMPDEST DUP3 MSTORE POP POP JUMP JUMPDEST PUSH0 PUSH1 0xA0 DUP3 ADD SWAP1 POP PUSH2 0x89D PUSH0 DUP4 ADD DUP9 PUSH2 0x87B JUMP JUMPDEST PUSH2 0x8AA PUSH1 0x20 DUP4 ADD DUP8 PUSH2 0x87B JUMP JUMPDEST PUSH2 0x8B7 PUSH1 0x40 DUP4 ADD DUP7 PUSH2 0x87B JUMP JUMPDEST PUSH2 0x8C4 PUSH1 0x60 DUP4 ADD DUP6 PUSH2 0x87B JUMP JUMPDEST PUSH2 0x8D1 PUSH1 0x80 DUP4 ADD DUP5 PUSH2 0x87B JUMP JUMPDEST SWAP7 SWAP6 POP POP POP POP POP POP JUMP JUMPDEST PUSH0 PUSH1 0x20 DUP3 ADD SWAP1 POP PUSH2 0x8EE PUSH0 DUP4 ADD DUP5 PUSH2 0x87B JUMP JUMPDEST SWAP3 SWAP2 POP POP JUMP JUMPDEST PUSH0 PUSH1 0x40 DUP3 ADD SWAP1 POP PUSH2 0x907 PUSH0 DUP4 ADD DUP6 PUSH2 0x87B JUMP JUMPDEST PUSH2 0x914 PUSH1 0x20 DUP4 ADD DUP5 PUSH2 0x87B JUMP JUMPDEST SWAP4 SWAP3 POP POP POP JUMP JUMPDEST PUSH32 0x4E487B7100000000000000000000000000000000000000000000000000000000 PUSH0 MSTORE PUSH1 0x11 PUSH1 0x4 MSTORE PUSH1 0x24 PUSH0 REVERT JUMPDEST PUSH0 PUSH2 0x952 DUP3 PUSH2 0x798 JUMP JUMPDEST SWAP2 POP PUSH2 0x95D DUP4 PUSH2 0x798 JUMP JUMPDEST SWAP3 POP DUP3 DUP3 SUB SWAP1 POP DUP2 DUP2 GT ISZERO PUSH2 0x975 JUMPI PUSH2 0x974 PUSH2 0x91B JUMP JUMPDEST JUMPDEST SWAP3 SWAP2 POP POP JUMP JUMPDEST PUSH0 PUSH2 0x985 DUP3 PUSH2 0x798 JUMP JUMPDEST SWAP2 POP PUSH2 0x990 DUP4 PUSH2 0x798 JUMP JUMPDEST SWAP3 POP DUP3 DUP3 ADD SWAP1 POP DUP1 DUP3 GT ISZERO PUSH2 0x9A8 JUMPI PUSH2 0x9A7 PUSH2 0x91B JUMP JUMPDEST JUMPDEST SWAP3 SWAP2 POP POP JUMP JUMPDEST PUSH0 DUP3 DUP3 MSTORE PUSH1 0x20 DUP3 ADD SWAP1 POP SWAP3 SWAP2 POP POP JUMP JUMPDEST PUSH32 0x4E6F20636F6C6C61746572616C20746F20776974686472617700000000000000 PUSH0 DUP3 ADD MSTORE POP JUMP JUMPDEST PUSH0 PUSH2 0x9F2 PUSH1 0x19 DUP4 PUSH2 0x9AE JUMP JUMPDEST SWAP2 POP PUSH2 0x9FD DUP3 PUSH2 0x9BE JUMP JUMPDEST PUSH1 0x20 DUP3 ADD SWAP1 POP SWAP2 SWAP1 POP JUMP JUMPDEST PUSH0 PUSH1 0x20 DUP3 ADD SWAP1 POP DUP2 DUP2 SUB PUSH0 DUP4 ADD MSTORE PUSH2 0xA1F DUP2 PUSH2 0x9E6 JUMP JUMPDEST SWAP1 POP SWAP2 SWAP1 POP JUMP JUMPDEST PUSH32 0x5769746864726177616C20616D6F756E74206D75737420626520677265617465 PUSH0 DUP3 ADD MSTORE PUSH32 0x72207468616E207A65726F000000000000000000000000000000000000000000 PUSH1 0x20 DUP3 ADD MSTORE POP JUMP JUMPDEST PUSH0 PUSH2 0xA80 PUSH1 0x2B DUP4 PUSH2 0x9AE JUMP JUMPDEST SWAP2 POP PUSH2 0xA8B DUP3 PUSH2 0xA26 JUMP JUMPDEST PUSH1 0x40 DUP3 ADD SWAP1 POP SWAP2 SWAP1 POP JUMP JUMPDEST PUSH0 PUSH1 0x20 DUP3 ADD SWAP1 POP DUP2 DUP2 SUB PUSH0 DUP4 ADD MSTORE PUSH2 0xAAD DUP2 PUSH2 0xA74 JUMP JUMPDEST SWAP1 POP SWAP2 SWAP1 POP JUMP JUMPDEST PUSH32 0x496E73756666696369656E7420636F6C6C61746572616C20746F207769746864 PUSH0 DUP3 ADD MSTORE PUSH32 0x726177207468697320616D6F756E740000000000000000000000000000000000 PUSH1 0x20 DUP3 ADD MSTORE POP JUMP JUMPDEST PUSH0 PUSH2 0xB0E PUSH1 0x2F DUP4 PUSH2 0x9AE JUMP JUMPDEST SWAP2 POP PUSH2 0xB19 DUP3 PUSH2 0xAB4 JUMP JUMPDEST PUSH1 0x40 DUP3 ADD SWAP1 POP SWAP2 SWAP1 POP JUMP JUMPDEST PUSH0 PUSH1 0x20 DUP3 ADD SWAP1 POP DUP2 DUP2 SUB PUSH0 DUP4 ADD MSTORE PUSH2 0xB3B DUP2 PUSH2 0xB02 JUMP JUMPDEST SWAP1 POP SWAP2 SWAP1 POP JUMP JUMPDEST PUSH0 PUSH10 0xFFFFFFFFFFFFFFFFFFFF DUP3 AND SWAP1 POP SWAP2 SWAP1 POP JUMP JUMPDEST PUSH2 0xB60 DUP2 PUSH2 0xB42 JUMP JUMPDEST DUP2 EQ PUSH2 0xB6A JUMPI PUSH0 DUP1 REVERT JUMPDEST POP JUMP JUMPDEST PUSH0 DUP2 MLOAD SWAP1 POP PUSH2 0xB7B DUP2 PUSH2 0xB57 JUMP JUMPDEST SWAP3 SWAP2 POP POP JUMP JUMPDEST PUSH0 DUP2 SWAP1 POP SWAP2 SWAP1 POP JUMP JUMPDEST PUSH2 0xB93 DUP2 PUSH2 0xB81 JUMP JUMPDEST DUP2 EQ PUSH2 0xB9D JUMPI PUSH0 DUP1 REVERT JUMPDEST POP JUMP JUMPDEST PUSH0 DUP2 MLOAD SWAP1 POP PUSH2 0xBAE DUP2 PUSH2 0xB8A JUMP JUMPDEST SWAP3 SWAP2 POP POP JUMP JUMPDEST PUSH0 DUP2 MLOAD SWAP1 POP PUSH2 0xBC2 DUP2 PUSH2 0x7A1 JUMP JUMPDEST SWAP3 SWAP2 POP POP JUMP JUMPDEST PUSH0 DUP1 PUSH0 DUP1 PUSH0 PUSH1 0xA0 DUP7 DUP9 SUB SLT ISZERO PUSH2 0xBE1 JUMPI PUSH2 0xBE0 PUSH2 0x794 JUMP JUMPDEST JUMPDEST PUSH0 PUSH2 0xBEE DUP9 DUP3 DUP10 ADD PUSH2 0xB6D JUMP JUMPDEST SWAP6 POP POP PUSH1 0x20 PUSH2 0xBFF DUP9 DUP3 DUP10 ADD PUSH2 0xBA0 JUMP JUMPDEST SWAP5 POP POP PUSH1 0x40 PUSH2 0xC10 DUP9 DUP3 DUP10 ADD PUSH2 0xBB4 JUMP JUMPDEST SWAP4 POP POP PUSH1 0x60 PUSH2 0xC21 DUP9 DUP3 DUP10 ADD PUSH2 0xBB4 JUMP JUMPDEST SWAP3 POP POP PUSH1 0x80 PUSH2 0xC32 DUP9 DUP3 DUP10 ADD PUSH2 0xB6D JUMP JUMPDEST SWAP2 POP POP SWAP3 SWAP6 POP SWAP3 SWAP6 SWAP1 SWAP4 POP JUMP JUMPDEST PUSH32 0x4E487B7100000000000000000000000000000000000000000000000000000000 PUSH0 MSTORE PUSH1 0x12 PUSH1 0x4 MSTORE PUSH1 0x24 PUSH0 REVERT JUMPDEST PUSH0 PUSH2 0xC76 DUP3 PUSH2 0xB81 JUMP JUMPDEST SWAP2 POP PUSH2 0xC81 DUP4 PUSH2 0xB81 JUMP JUMPDEST SWAP3 POP DUP3 PUSH2 0xC91 JUMPI PUSH2 0xC90 PUSH2 0xC3F JUMP JUMPDEST JUMPDEST PUSH1 0x1 PUSH0 SUB DUP4 EQ PUSH32 0x8000000000000000000000000000000000000000000000000000000000000000 DUP4 EQ AND ISZERO PUSH2 0xCC9 JUMPI PUSH2 0xCC8 PUSH2 0x91B JUMP JUMPDEST JUMPDEST DUP3 DUP3 SDIV SWAP1 POP SWAP3 SWAP2 POP POP JUMP JUMPDEST PUSH32 0x4465706F73697420616D6F756E74206D75737420626520677265617465722074 PUSH0 DUP3 ADD MSTORE PUSH32 0x68616E207A65726F000000000000000000000000000000000000000000000000 PUSH1 0x20 DUP3 ADD MSTORE POP JUMP JUMPDEST PUSH0 PUSH2 0xD2E PUSH1 0x28 DUP4 PUSH2 0x9AE JUMP JUMPDEST SWAP2 POP PUSH2 0xD39 DUP3 PUSH2 0xCD4 JUMP JUMPDEST PUSH1 0x40 DUP3 ADD SWAP1 POP SWAP2 SWAP1 POP JUMP JUMPDEST PUSH0 PUSH1 0x20 DUP3 ADD SWAP1 POP DUP2 DUP2 SUB PUSH0 DUP4 ADD MSTORE PUSH2 0xD5B DUP2 PUSH2 0xD22 JUMP JUMPDEST SWAP1 POP SWAP2 SWAP1 POP JUMP JUMPDEST PUSH0 PUSH2 0xD6C DUP3 PUSH2 0x798 JUMP JUMPDEST SWAP2 POP PUSH2 0xD77 DUP4 PUSH2 0x798 JUMP JUMPDEST SWAP3 POP DUP3 DUP3 MUL PUSH2 0xD85 DUP2 PUSH2 0x798 JUMP JUMPDEST SWAP2 POP DUP3 DUP3 DIV DUP5 EQ DUP4 ISZERO OR PUSH2 0xD9C JUMPI PUSH2 0xD9B PUSH2 0x91B JUMP JUMPDEST JUMPDEST POP SWAP3 SWAP2 POP POP JUMP JUMPDEST PUSH0 PUSH2 0xDAD DUP3 PUSH2 0x798 JUMP JUMPDEST SWAP2 POP PUSH2 0xDB8 DUP4 PUSH2 0x798 JUMP JUMPDEST SWAP3 POP DUP3 PUSH2 0xDC8 JUMPI PUSH2 0xDC7 PUSH2 0xC3F JUMP JUMPDEST JUMPDEST DUP3 DUP3 DIV SWAP1 POP SWAP3 SWAP2 POP POP JUMP INVALID LOG2 PUSH5 0x6970667358 0x22 SLT KECCAK256 0xA7 0x4E 0xA9 SWAP14 BYTE 0xBF 0xE5 SWAP7 PUSH8 0x42975DC0D12647ED PUSH1 0xC2 0xFB 0x2D 0xCB SWAP10 SGT 0x2E 0xC7 0xE7 0xD6 0xD8 0xB1 EQ SHR PUSH5 0x736F6C6343 STOP ADDMOD BYTE STOP CALLER "
				},
				"gasEstimates": {
					"creation": {
						"codeDepositCost": "718600",
						"executionCost": "49282",
						"totalCost": "767882"
					},
					"external": {
						"accounts(address)": "infinite",
						"depositCollateral()": "infinite",
						"getAvailableAmountLoan(address)": "2914",
						"getCollateral(address)": "infinite",
						"getEthPrice()": "infinite",
						"withdrawCollateral(uint256)": "infinite",
						"withdrawLoan(uint256)": "infinite"
					}
				},
				"methodIdentifiers": {
					"accounts(address)": "5e5c06e2",
					"depositCollateral()": "6f758140",
					"getAvailableAmountLoan(address)": "fb7cbd6c",
					"getCollateral(address)": "9b56d6c9",
					"getEthPrice()": "67c9b017",
					"withdrawCollateral(uint256)": "6112fe2e",
					"withdrawLoan(uint256)": "2a104d8d"
				}
			},
			"storageLayout": {
				"storage": [
					{
						"astId": 51,
						"contract": "contracts/app.sol:DefiChanges",
						"label": "owner",
						"offset": 0,
						"slot": "0",
						"type": "t_address"
					},
					{
						"astId": 57,
						"contract": "contracts/app.sol:DefiChanges",
						"label": "dataFeed",
						"offset": 0,
						"slot": "1",
						"type": "t_contract(AggregatorV3Interface)45"
					},
					{
						"astId": 88,
						"contract": "contracts/app.sol:DefiChanges",
						"label": "accounts",
						"offset": 0,
						"slot": "2",
						"type": "t_mapping(t_address,t_struct(Account)68_storage)"
					}
				],
				"types": {
					"t_address": {
						"encoding": "inplace",
						"label": "address",
						"numberOfBytes": "20"
					},
					"t_contract(AggregatorV3Interface)45": {
						"encoding": "inplace",
						"label": "contract AggregatorV3Interface",
						"numberOfBytes": "20"
					},
					"t_mapping(t_address,t_struct(Account)68_storage)": {
						"encoding": "mapping",
						"key": "t_address",
						"label": "mapping(address => struct DefiChanges.Account)",
						"numberOfBytes": "32",
						"value": "t_struct(Account)68_storage"
					},
					"t_struct(Account)68_storage": {
						"encoding": "inplace",
						"label": "struct DefiChanges.Account",
						"members": [
							{
								"astId": 59,
								"contract": "contracts/app.sol:DefiChanges",
								"label": "amount",
								"offset": 0,
								"slot": "0",
								"type": "t_uint256"
							},
							{
								"astId": 61,
								"contract": "contracts/app.sol:DefiChanges",
								"label": "amountLoan",
								"offset": 0,
								"slot": "1",
								"type": "t_uint256"
							},
							{
								"astId": 63,
								"contract": "contracts/app.sol:DefiChanges",
								"label": "loanAtPrice",
								"offset": 0,
								"slot": "2",
								"type": "t_uint256"
							},
							{
								"astId": 65,
								"contract": "contracts/app.sol:DefiChanges",
								"label": "availableAmountLoan",
								"offset": 0,
								"slot": "3",
								"type": "t_uint256"
							},
							{
								"astId": 67,
								"contract": "contracts/app.sol:DefiChanges",
								"label": "timestamp",
								"offset": 0,
								"slot": "4",
								"type": "t_uint256"
							}
						],
						"numberOfBytes": "160"
					},
					"t_uint256": {
						"encoding": "inplace",
						"label": "uint256",
						"numberOfBytes": "32"
					}
				}
			},
			"userdoc": {
				"kind": "user",
				"methods": {},
				"version": 1
			}
		}
	}
}